{
  "contracts/GameItems.sol": {
    "GameItems": {
      "abi": [
        {
          "inputs": [],
          "stateMutability": "nonpayable",
          "type": "constructor"
        },
        {
          "inputs": [
            {
              "internalType": "address",
              "name": "sender",
              "type": "address"
            },
            {
              "internalType": "uint256",
              "name": "balance",
              "type": "uint256"
            },
            {
              "internalType": "uint256",
              "name": "needed",
              "type": "uint256"
            },
            {
              "internalType": "uint256",
              "name": "tokenId",
              "type": "uint256"
            }
          ],
          "name": "ERC1155InsufficientBalance",
          "type": "error"
        },
        {
          "inputs": [
            {
              "internalType": "address",
              "name": "approver",
              "type": "address"
            }
          ],
          "name": "ERC1155InvalidApprover",
          "type": "error"
        },
        {
          "inputs": [
            {
              "internalType": "uint256",
              "name": "idsLength",
              "type": "uint256"
            },
            {
              "internalType": "uint256",
              "name": "valuesLength",
              "type": "uint256"
            }
          ],
          "name": "ERC1155InvalidArrayLength",
          "type": "error"
        },
        {
          "inputs": [
            {
              "internalType": "address",
              "name": "operator",
              "type": "address"
            }
          ],
          "name": "ERC1155InvalidOperator",
          "type": "error"
        },
        {
          "inputs": [
            {
              "internalType": "address",
              "name": "receiver",
              "type": "address"
            }
          ],
          "name": "ERC1155InvalidReceiver",
          "type": "error"
        },
        {
          "inputs": [
            {
              "internalType": "address",
              "name": "sender",
              "type": "address"
            }
          ],
          "name": "ERC1155InvalidSender",
          "type": "error"
        },
        {
          "inputs": [
            {
              "internalType": "address",
              "name": "operator",
              "type": "address"
            },
            {
              "internalType": "address",
              "name": "owner",
              "type": "address"
            }
          ],
          "name": "ERC1155MissingApprovalForAll",
          "type": "error"
        },
        {
          "anonymous": false,
          "inputs": [
            {
              "indexed": true,
              "internalType": "address",
              "name": "account",
              "type": "address"
            },
            {
              "indexed": true,
              "internalType": "address",
              "name": "operator",
              "type": "address"
            },
            {
              "indexed": false,
              "internalType": "bool",
              "name": "approved",
              "type": "bool"
            }
          ],
          "name": "ApprovalForAll",
          "type": "event"
        },
        {
          "anonymous": false,
          "inputs": [
            {
              "indexed": true,
              "internalType": "address",
              "name": "operator",
              "type": "address"
            },
            {
              "indexed": true,
              "internalType": "address",
              "name": "from",
              "type": "address"
            },
            {
              "indexed": true,
              "internalType": "address",
              "name": "to",
              "type": "address"
            },
            {
              "indexed": false,
              "internalType": "uint256[]",
              "name": "ids",
              "type": "uint256[]"
            },
            {
              "indexed": false,
              "internalType": "uint256[]",
              "name": "values",
              "type": "uint256[]"
            }
          ],
          "name": "TransferBatch",
          "type": "event"
        },
        {
          "anonymous": false,
          "inputs": [
            {
              "indexed": true,
              "internalType": "address",
              "name": "operator",
              "type": "address"
            },
            {
              "indexed": true,
              "internalType": "address",
              "name": "from",
              "type": "address"
            },
            {
              "indexed": true,
              "internalType": "address",
              "name": "to",
              "type": "address"
            },
            {
              "indexed": false,
              "internalType": "uint256",
              "name": "id",
              "type": "uint256"
            },
            {
              "indexed": false,
              "internalType": "uint256",
              "name": "value",
              "type": "uint256"
            }
          ],
          "name": "TransferSingle",
          "type": "event"
        },
        {
          "anonymous": false,
          "inputs": [
            {
              "indexed": false,
              "internalType": "string",
              "name": "value",
              "type": "string"
            },
            {
              "indexed": true,
              "internalType": "uint256",
              "name": "id",
              "type": "uint256"
            }
          ],
          "name": "URI",
          "type": "event"
        },
        {
          "inputs": [],
          "name": "GOLD",
          "outputs": [
            {
              "internalType": "uint256",
              "name": "",
              "type": "uint256"
            }
          ],
          "stateMutability": "view",
          "type": "function"
        },
        {
          "inputs": [],
          "name": "SHIELD",
          "outputs": [
            {
              "internalType": "uint256",
              "name": "",
              "type": "uint256"
            }
          ],
          "stateMutability": "view",
          "type": "function"
        },
        {
          "inputs": [],
          "name": "SILVER",
          "outputs": [
            {
              "internalType": "uint256",
              "name": "",
              "type": "uint256"
            }
          ],
          "stateMutability": "view",
          "type": "function"
        },
        {
          "inputs": [],
          "name": "SWORD",
          "outputs": [
            {
              "internalType": "uint256",
              "name": "",
              "type": "uint256"
            }
          ],
          "stateMutability": "view",
          "type": "function"
        },
        {
          "inputs": [],
          "name": "THORS_HAMMER",
          "outputs": [
            {
              "internalType": "uint256",
              "name": "",
              "type": "uint256"
            }
          ],
          "stateMutability": "view",
          "type": "function"
        },
        {
          "inputs": [
            {
              "internalType": "address",
              "name": "account",
              "type": "address"
            },
            {
              "internalType": "uint256",
              "name": "id",
              "type": "uint256"
            }
          ],
          "name": "balanceOf",
          "outputs": [
            {
              "internalType": "uint256",
              "name": "",
              "type": "uint256"
            }
          ],
          "stateMutability": "view",
          "type": "function"
        },
        {
          "inputs": [
            {
              "internalType": "address[]",
              "name": "accounts",
              "type": "address[]"
            },
            {
              "internalType": "uint256[]",
              "name": "ids",
              "type": "uint256[]"
            }
          ],
          "name": "balanceOfBatch",
          "outputs": [
            {
              "internalType": "uint256[]",
              "name": "",
              "type": "uint256[]"
            }
          ],
          "stateMutability": "view",
          "type": "function"
        },
        {
          "inputs": [
            {
              "internalType": "address",
              "name": "account",
              "type": "address"
            },
            {
              "internalType": "address",
              "name": "operator",
              "type": "address"
            }
          ],
          "name": "isApprovedForAll",
          "outputs": [
            {
              "internalType": "bool",
              "name": "",
              "type": "bool"
            }
          ],
          "stateMutability": "view",
          "type": "function"
        },
        {
          "inputs": [
            {
              "internalType": "address",
              "name": "user",
              "type": "address"
            },
            {
              "internalType": "uint256",
              "name": "tokenId",
              "type": "uint256"
            },
            {
              "internalType": "uint256",
              "name": "value",
              "type": "uint256"
            }
          ],
          "name": "mint",
          "outputs": [],
          "stateMutability": "nonpayable",
          "type": "function"
        },
        {
          "inputs": [
            {
              "internalType": "address",
              "name": "from",
              "type": "address"
            },
            {
              "internalType": "address",
              "name": "to",
              "type": "address"
            },
            {
              "internalType": "uint256[]",
              "name": "ids",
              "type": "uint256[]"
            },
            {
              "internalType": "uint256[]",
              "name": "values",
              "type": "uint256[]"
            },
            {
              "internalType": "bytes",
              "name": "data",
              "type": "bytes"
            }
          ],
          "name": "safeBatchTransferFrom",
          "outputs": [],
          "stateMutability": "nonpayable",
          "type": "function"
        },
        {
          "inputs": [
            {
              "internalType": "address",
              "name": "from",
              "type": "address"
            },
            {
              "internalType": "address",
              "name": "to",
              "type": "address"
            },
            {
              "internalType": "uint256",
              "name": "id",
              "type": "uint256"
            },
            {
              "internalType": "uint256",
              "name": "value",
              "type": "uint256"
            },
            {
              "internalType": "bytes",
              "name": "data",
              "type": "bytes"
            }
          ],
          "name": "safeTransferFrom",
          "outputs": [],
          "stateMutability": "nonpayable",
          "type": "function"
        },
        {
          "inputs": [
            {
              "internalType": "address",
              "name": "operator",
              "type": "address"
            },
            {
              "internalType": "bool",
              "name": "approved",
              "type": "bool"
            }
          ],
          "name": "setApprovalForAll",
          "outputs": [],
          "stateMutability": "nonpayable",
          "type": "function"
        },
        {
          "inputs": [
            {
              "internalType": "bytes4",
              "name": "interfaceId",
              "type": "bytes4"
            }
          ],
          "name": "supportsInterface",
          "outputs": [
            {
              "internalType": "bool",
              "name": "",
              "type": "bool"
            }
          ],
          "stateMutability": "view",
          "type": "function"
        },
        {
          "inputs": [
            {
              "internalType": "uint256",
              "name": "tokenId",
              "type": "uint256"
            }
          ],
          "name": "uri",
          "outputs": [
            {
              "internalType": "string",
              "name": "",
              "type": "string"
            }
          ],
          "stateMutability": "pure",
          "type": "function"
        }
      ],
      "evm": {
        "bytecode": {
          "linkReferences": {},
          "object": "6080806040523462000145576200001660e0604052565b60236080527f68747470733a2f2f692e726564642e69742f65306434316e736d34707337312e60a052626a706760e81b60c052620000606200005a60025462000702565b6200073f565b6002600052602090819060008051602062001dff833981519152926000915b8183106200012a57505050608001516001600160e81b03191690556047600255600380546001600160a01b03191633179055620000c6620000bf6200018a565b33620001ae565b620000db620000d46200018a565b336200035f565b620000f0620000e96200018a565b336200044e565b62000105620000fe6200018a565b3362000532565b6200011a620001136200018a565b336200061a565b604051611340908162000a9f8239f35b9080600185968295968501518155019501930191906200007f565b600080fd5b634e487b7160e01b600052604160045260246000fd5b601f909101601f19168101906001600160401b038211908210176200018457604052565b6200014a565b60405190602082016001600160401b03811183821017620001845760405260008252565b6001600160a01b0381169190821562000346576040516001938482526020916020810195600087526040820192818452606094606084019561030987526080850180604052855187518082036200032a57505050908391826000905b620002c2575b50505083511460001462000283576000885160008051602062001ddf83398151915262000253885160405191829133958360209093929193604081019481520152565b0390a45b815103620002735750506200027193519051913362000a66565b565b9150916200027194503362000926565b60006040517f4a39dc06d4c0dbc64b70af90fd698a233a518aa5d07e595d983b8c0526c8f7fb339180620002b989898362000802565b0390a462000257565b8651811015620003245780849160051b88016200031a620003118d620002fa8789860151950151946000526000602052604060002090565b9060018060a01b0316600052602052604060002090565b918254620007a8565b905501836200020a565b62000210565b635b05999160e01b8352608488019190915260a4870152604490fd5b604051632bfa23e760e11b815260006004820152602490fd5b6001600160a01b0381169190821562000346576040516001938482526020916020810195808752604082019281845260609460608401956b033b2e3c9fd0803ce800000087526080850180604052855187518082036200032a57505050908391826000905b6200040c5750505083511460001462000283576000885160008051602062001ddf83398151915262000253885160405191829133958360209093929193604081019481520152565b8651811015620003245780849160051b880162000444620003118d620002fa8789860151950151946000526000602052604060002090565b90550183620003c4565b6001600160a01b038116919082156200034657604051600193848252602091602081019560028752604082019281845260609460608401958387526080850180604052855187518082036200032a57505050908391826000905b620004f05750505083511460001462000283576000885160008051602062001ddf83398151915262000253885160405191829133958360209093929193604081019481520152565b8651811015620003245780849160051b880162000528620003118d620002fa8789860151950151946000526000602052604060002090565b90550183620004a8565b6001600160a01b03811691908215620003465760405160019384825260209160208101956003875260408201928184526060946060840195633b9aca0087526080850180604052855187518082036200032a57505050908391826000905b620005d85750505083511460001462000283576000885160008051602062001ddf83398151915262000253885160405191829133958360209093929193604081019481520152565b8651811015620003245780849160051b880162000610620003118d620002fa8789860151950151946000526000602052604060002090565b9055018362000590565b6001600160a01b03811691908215620003465760405160019384825260209160208101956004875260408201928184526060946060840195633b9aca0087526080850180604052855187518082036200032a57505050908391826000905b620006c05750505083511460001462000283576000885160008051602062001ddf83398151915262000253885160405191829133958360209093929193604081019481520152565b8651811015620003245780849160051b8801620006f8620003118d620002fa8789860151950151946000526000602052604060002090565b9055018362000678565b90600182811c9216801562000734575b60208310146200071e57565b634e487b7160e01b600052602260045260246000fd5b91607f169162000712565b601f81116200074b5750565b60026000908152601f9190910160051c60008051602062001dff83398151915201907f405787fa12a823e0f2b7631cc41b3ba8828b3321ca811111fa75cd3aa3bb5ad05b8281106200079c57505050565b8181556001016200078f565b91908201809211620007b657565b634e487b7160e01b600052601160045260246000fd5b90815180825260208080930193019160005b828110620007ed575050505090565b835185529381019392810192600101620007de565b90916200081c6200082b93604084526040840190620007cc565b916020818403910152620007cc565b90565b908160209103126200014557516001600160e01b031981168103620001455790565b919082519283825260005b8481106200087d575050826000602080949584010152601f8019910116010190565b6020818301810151848301820152016200085b565b92620008c56200082b9593620008d49360018060a01b031686526000602087015260a0604087015260a0860190620007cc565b908482036060860152620007cc565b91608081840391015262000850565b3d1562000921573d906001600160401b03821162000184576040519162000915601f8201601f19166020018462000160565b82523d6000602084013e565b606090565b9293919093843b6200093a575b5050505050565b6020916200095f604051948593849363bc197c8160e01b988986526004860162000892565b038160006001600160a01b0388165af160009181620009fb575b50620009bc57826200098a620008e3565b8051919082620009b557604051632bfa23e760e11b81526001600160a01b0383166004820152602490fd5b9050602001fd5b6001600160e01b03191603620009d85750388080808062000933565b604051632bfa23e760e11b81526001600160a01b03919091166004820152602490fd5b62000a2391925060203d60201162000a2b575b62000a1a818362000160565b8101906200082e565b903862000979565b503d62000a0e565b909260a0926200082b9594600180861b031683526000602084015260408301526060820152816080820152019062000850565b9293919093843b62000a79575050505050565b6020916200095f604051948593849363f23a6e6160e01b988986526004860162000a3356fe6080604052600436101561001257600080fd5b60003560e01c8062fdd58e146100f657806301ffc9a7146100f15780630e89341c146100ec57806313dc989f146100e7578063156e29f6146100e25780632eb2c2d6146100dd5780633e4bee38146100d85780634e1273f4146100d35780635b2725ed146100ce578063a22cb465146100c9578063d562e204146100c4578063e3e55f08146100bf578063e985e9c5146100ba5763f242432a146100b557600080fd5b6109f0565b610993565b610977565b61095b565b61089e565b610882565b6107c8565b610767565b610641565b610440565b610424565b610269565b61019f565b610140565b600435906001600160a01b038216820361011157565b600080fd5b602435906001600160a01b038216820361011157565b35906001600160a01b038216820361011157565b3461011157604036600319011261011157602061018461015e6100fb565b6024356000526000835260406000209060018060a01b0316600052602052604060002090565b54604051908152f35b6001600160e01b031981160361011157565b346101115760203660031901126101115760206004356101be8161018d565b63ffffffff60e01b16636cdb3d1360e11b81149081156101fc575b81156101eb575b506040519015158152f35b6301ffc9a760e01b149050386101e0565b6303a24d0760e21b811491506101d9565b60005b8381106102205750506000910152565b8181015183820152602001610210565b906020916102498151809281855285808601910161020d565b601f01601f1916010190565b906020610266928181520190610230565b90565b346101115760203660031901126101115760006004358072184f03e93ff9f4daa797ed6e38ed64bf6a1f0160401b80821015610416575b506d04ee2d6d415b85acef810000000080831015610407575b50662386f26fc10000808310156103f8575b506305f5e100808310156103e9575b50612710808310156103da575b5060648210156103ca575b600a809210156103c0575b60019081602161030f60018701610bf4565b95860101905b61038a575b6040517f68747470733a2f2f67616d652e6578616d706c652f6170692f6974656d2f000060208201526103869061037a8161036c61035b603e83018b610af4565b64173539b7b760d91b815260050190565b03601f198101835282610547565b60405191829182610255565b0390f35b600019019083906f181899199a1a9b1b9c1cb0b131b232b360811b8282061a8353049182156103bb57919082610315565b61031a565b91600101916102fd565b91906064600291049101916102f2565b600491939204910191386102e7565b600891939204910191386102da565b601091939204910191386102cb565b602091939204910191386102b9565b6040935081049150386102a0565b3461011157600036600319011261011157602060405160038152f35b34610111576060366003190112610111576104596100fb565b6003546001600160a01b0390811633036104d8576040519061047a82610527565b600082528216156104bf576104bd916104b76044356024359160405192600184526020840152604083019160018352606084015260808301604052565b91610c26565b005b604051632bfa23e760e11b815260006004820152602490fd5b60405162461bcd60e51b81526020600482015260116024820152702cb7ba9030b932903737ba1037bbb732b960791b6044820152606490fd5b634e487b7160e01b600052604160045260246000fd5b602081019081106001600160401b0382111761054257604052565b610511565b90601f801991011681019081106001600160401b0382111761054257604052565b6001600160401b0381116105425760051b60200190565b9080601f8301121561011157602090823561059981610568565b936105a76040519586610547565b81855260208086019260051b82010192831161011157602001905b8282106105d0575050505090565b813581529083019083016105c2565b6001600160401b03811161054257601f01601f191660200190565b81601f8201121561011157803590610611826105df565b9261061f6040519485610547565b8284526020838301011161011157816000926020809301838601378301015290565b346101115760a03660031901126101115761065a6100fb565b610662610116565b90604435916001600160401b0390818411610111576106866004943690860161057f565b906064358381116101115761069e903690870161057f565b92608435908111610111576106b690369087016105fa565b936001600160a01b03808216903382141580610743575b610716578316156106fe57156106e7576104bd9550610da1565b604051626a0d4560e21b8152600081880152602490fd5b604051632bfa23e760e11b8152600081890152602490fd5b6040805163711bec9160e11b815233818b019081526001600160a01b038616602082015290918291010390fd5b50600082815260016020908152604080832033845290915290205460ff16156106cd565b3461011157600036600319011261011157602060405160008152f35b90815180825260208080930193019160005b8281106107a3575050505090565b835185529381019392810192600101610795565b906020610266928181520190610783565b34610111576040366003190112610111576004356001600160401b03808211610111573660238301121561011157816004013561080481610568565b926108126040519485610547565b8184526020916024602086019160051b8301019136831161011157602401905b82821061086b5785602435868111610111576103869161085961085f92369060040161057f565b90610b35565b604051918291826107b7565b8380916108778461012c565b815201910190610832565b3461011157600036600319011261011157602060405160048152f35b34610111576040366003190112610111576108b76100fb565b602435801515808203610111576001600160a01b038316928315610943573360009081526001602090815260408083206001600160a01b039094168352929052209060ff801983541691161790557f17307eab39ab6107e8899845ad3d59bd9653f200f220920489ca2b5937696c316040518061093e339482919091602081019215159052565b0390a3005b60405162ced3e160e81b815260006004820152602490fd5b3461011157600036600319011261011157602060405160028152f35b3461011157600036600319011261011157602060405160018152f35b3461011157604036600319011261011157602060ff6109e46109b36100fb565b6109bb610116565b6001600160a01b0391821660009081526001865260408082209290931681526020919091522090565b54166040519015158152f35b346101115760a036600319011261011157610a096100fb565b610a11610116565b6084356001600160401b03811161011157610a309036906004016105fa565b906001600160a01b03838116903382141580610ad0575b610aa9578216156104bf5715610a91576104bd92610a896064356044359160405192600184526020840152604083019160018352606084015260808301604052565b929091610da1565b604051626a0d4560e21b815260006004820152602490fd5b60405163711bec9160e11b81523360048201526001600160a01b0386166024820152604490fd5b50600082815260016020908152604080832033845290915290205460ff1615610a47565b90610b076020928281519485920161020d565b0190565b8051821015610b1f5760209160051b010190565b634e487b7160e01b600052603260045260246000fd5b91909180518351808203610bd2575050805190610b6a610b5483610568565b92610b626040519485610547565b808452610568565b60209190601f1901368484013760005b8151811015610bca57600581901b8281018401519087018401516000908152602081815260408083206001600160a01b039094168352929052205460019190610bc38287610b0b565b5201610b7a565b509193505050565b604051635b05999160e01b815260048101919091526024810191909152604490fd5b90610bfe826105df565b610c0b6040519182610547565b8281528092610c1c601f19916105df565b0190602036910137565b908051835190818103610bd257505060005b8151811015610cb657600581901b82810160209081015191860101516001929185906001600160a01b038216610c72575b50505001610c38565b610cac91610c8d610ca4926000526000602052604060002090565b9060018060a01b0316600052602052604060002090565b918254610f9a565b9055388481610c69565b50805191939291600103610d58576020818101518382015160408051928352928201526001600160a01b0386169160009133917fc3d58168c5ae7397731d063d5bbf3d657854427343f4c083240f7aacaa2d0f6291a45b6001600160a01b038416610d22575b50505050565b8051600103610d495790602080610d4095930151910151913361129e565b38808080610d1c565b610d5393336110a4565b610d40565b6040516001600160a01b0385169060009033907f4a39dc06d4c0dbc64b70af90fd698a233a518aa5d07e595d983b8c0526c8f7fb9080610d99888883610fbd565b0390a4610d0d565b949190918151845190818103610bd257505060005b8251811015610ea457600581901b83810160209081015191870101516001600160a01b03929186908a8516610e1e575b6001948216610df9575b50505001610db6565b610e1491610c8d610ca4926000526000602052604060002090565b9055388581610df0565b9192939050610e3b8a610c8d846000526000602052604060002090565b54838110610e6d5791879184600196959403610e658d610c8d856000526000602052604060002090565b559450610de6565b6040516303dee4c560e01b81526001600160a01b038c16600482015260248101919091526044810184905260648101839052608490fd5b509491939290936001855114600014610f4f576020858101518382015160408051928352928201526001600160a01b03838116929086169133917fc3d58168c5ae7397731d063d5bbf3d657854427343f4c083240f7aacaa2d0f6291a45b6001600160a01b038116610f18575b5050505050565b8451600103610f3e57602080610f3496015192015192336112d3565b3880808080610f11565b610f4a9491923361119f565b610f34565b6040516001600160a01b03828116919085169033907f4a39dc06d4c0dbc64b70af90fd698a233a518aa5d07e595d983b8c0526c8f7fb9080610f92888c83610fbd565b0390a4610f02565b91908201809211610fa757565b634e487b7160e01b600052601160045260246000fd5b9091610fd461026693604084526040840190610783565b916020818403910152610783565b9081602091031261011157516102668161018d565b9261102661026695936110349360018060a01b031686526000602087015260a0604087015260a0860190610783565b908482036060860152610783565b916080818403910152610230565b93906102669593611026916110349460018060a01b03809216885216602087015260a0604087015260a0860190610783565b3d1561109f573d90611085826105df565b916110936040519384610547565b82523d6000602084013e565b606090565b9293919093843b6110b6575050505050565b6020916110d9604051948593849363bc197c8160e01b9889865260048601610ff7565b038160006001600160a01b0388165af16000918161116e575b506111315782611100611074565b805191908261112a57604051632bfa23e760e11b81526001600160a01b0383166004820152602490fd5b9050602001fd5b6001600160e01b0319160361114b57503880808080610f11565b604051632bfa23e760e11b81526001600160a01b03919091166004820152602490fd5b61119191925060203d602011611198575b6111898183610547565b810190610fe2565b90386110f2565b503d61117f565b939290949194853b6111b4575b505050505050565b6111d7602093604051958694859463bc197c8160e01b998a875260048701611042565b038160006001600160a01b0388165af160009181611219575b506111fe5782611100611074565b6001600160e01b0319160361114b57503880808080806111ac565b61123391925060203d602011611198576111898183610547565b90386111f0565b909260a0926102669594600180861b0316835260006020840152604083015260608201528160808201520190610230565b919261026695949160a094600180871b038092168552166020840152604083015260608201528160808201520190610230565b9293919093843b6112b0575050505050565b6020916110d9604051948593849363f23a6e6160e01b988986526004860161123a565b939290949194853b6112e757505050505050565b6111d7602093604051958694859463f23a6e6160e01b998a87526004870161126b56fea2646970667358221220bc30c0c7541e74dba6f609c6460e768eabef6f5a037d567b00f55d84f8887a8764736f6c63430008180033c3d58168c5ae7397731d063d5bbf3d657854427343f4c083240f7aacaa2d0f62405787fa12a823e0f2b7631cc41b3ba8828b3321ca811111fa75cd3aa3bb5ace",
          "opcodes": "PUSH1 0x80 DUP1 PUSH1 0x40 MSTORE CALLVALUE PUSH3 0x145 JUMPI PUSH3 0x16 PUSH1 0xE0 PUSH1 0x40 MSTORE JUMP JUMPDEST PUSH1 0x23 PUSH1 0x80 MSTORE PUSH32 0x68747470733A2F2F692E726564642E69742F65306434316E736D34707337312E PUSH1 0xA0 MSTORE PUSH3 0x6A7067 PUSH1 0xE8 SHL PUSH1 0xC0 MSTORE PUSH3 0x60 PUSH3 0x5A PUSH1 0x2 SLOAD PUSH3 0x702 JUMP JUMPDEST PUSH3 0x73F JUMP JUMPDEST PUSH1 0x2 PUSH1 0x0 MSTORE PUSH1 0x20 SWAP1 DUP2 SWAP1 PUSH1 0x0 DUP1 MLOAD PUSH1 0x20 PUSH3 0x1DFF DUP4 CODECOPY DUP2 MLOAD SWAP2 MSTORE SWAP3 PUSH1 0x0 SWAP2 JUMPDEST DUP2 DUP4 LT PUSH3 0x12A JUMPI POP POP POP PUSH1 0x80 ADD MLOAD PUSH1 0x1 PUSH1 0x1 PUSH1 0xE8 SHL SUB NOT AND SWAP1 SSTORE PUSH1 0x47 PUSH1 0x2 SSTORE PUSH1 0x3 DUP1 SLOAD PUSH1 0x1 PUSH1 0x1 PUSH1 0xA0 SHL SUB NOT AND CALLER OR SWAP1 SSTORE PUSH3 0xC6 PUSH3 0xBF PUSH3 0x18A JUMP JUMPDEST CALLER PUSH3 0x1AE JUMP JUMPDEST PUSH3 0xDB PUSH3 0xD4 PUSH3 0x18A JUMP JUMPDEST CALLER PUSH3 0x35F JUMP JUMPDEST PUSH3 0xF0 PUSH3 0xE9 PUSH3 0x18A JUMP JUMPDEST CALLER PUSH3 0x44E JUMP JUMPDEST PUSH3 0x105 PUSH3 0xFE PUSH3 0x18A JUMP JUMPDEST CALLER PUSH3 0x532 JUMP JUMPDEST PUSH3 0x11A PUSH3 0x113 PUSH3 0x18A JUMP JUMPDEST CALLER PUSH3 0x61A JUMP JUMPDEST PUSH1 0x40 MLOAD PUSH2 0x1340 SWAP1 DUP2 PUSH3 0xA9F DUP3 CODECOPY RETURN JUMPDEST SWAP1 DUP1 PUSH1 0x1 DUP6 SWAP7 DUP3 SWAP6 SWAP7 DUP6 ADD MLOAD DUP2 SSTORE ADD SWAP6 ADD SWAP4 ADD SWAP2 SWAP1 PUSH3 0x7F JUMP JUMPDEST PUSH1 0x0 DUP1 REVERT JUMPDEST PUSH4 0x4E487B71 PUSH1 0xE0 SHL PUSH1 0x0 MSTORE PUSH1 0x41 PUSH1 0x4 MSTORE PUSH1 0x24 PUSH1 0x0 REVERT JUMPDEST PUSH1 0x1F SWAP1 SWAP2 ADD PUSH1 0x1F NOT AND DUP2 ADD SWAP1 PUSH1 0x1 PUSH1 0x1 PUSH1 0x40 SHL SUB DUP3 GT SWAP1 DUP3 LT OR PUSH3 0x184 JUMPI PUSH1 0x40 MSTORE JUMP JUMPDEST PUSH3 0x14A JUMP JUMPDEST PUSH1 0x40 MLOAD SWAP1 PUSH1 0x20 DUP3 ADD PUSH1 0x1 PUSH1 0x1 PUSH1 0x40 SHL SUB DUP2 GT DUP4 DUP3 LT OR PUSH3 0x184 JUMPI PUSH1 0x40 MSTORE PUSH1 0x0 DUP3 MSTORE JUMP JUMPDEST PUSH1 0x1 PUSH1 0x1 PUSH1 0xA0 SHL SUB DUP2 AND SWAP2 SWAP1 DUP3 ISZERO PUSH3 0x346 JUMPI PUSH1 0x40 MLOAD PUSH1 0x1 SWAP4 DUP5 DUP3 MSTORE PUSH1 0x20 SWAP2 PUSH1 0x20 DUP2 ADD SWAP6 PUSH1 0x0 DUP8 MSTORE PUSH1 0x40 DUP3 ADD SWAP3 DUP2 DUP5 MSTORE PUSH1 0x60 SWAP5 PUSH1 0x60 DUP5 ADD SWAP6 PUSH2 0x309 DUP8 MSTORE PUSH1 0x80 DUP6 ADD DUP1 PUSH1 0x40 MSTORE DUP6 MLOAD DUP8 MLOAD DUP1 DUP3 SUB PUSH3 0x32A JUMPI POP POP POP SWAP1 DUP4 SWAP2 DUP3 PUSH1 0x0 SWAP1 JUMPDEST PUSH3 0x2C2 JUMPI JUMPDEST POP POP POP DUP4 MLOAD EQ PUSH1 0x0 EQ PUSH3 0x283 JUMPI PUSH1 0x0 DUP9 MLOAD PUSH1 0x0 DUP1 MLOAD PUSH1 0x20 PUSH3 0x1DDF DUP4 CODECOPY DUP2 MLOAD SWAP2 MSTORE PUSH3 0x253 DUP9 MLOAD PUSH1 0x40 MLOAD SWAP2 DUP3 SWAP2 CALLER SWAP6 DUP4 PUSH1 0x20 SWAP1 SWAP4 SWAP3 SWAP2 SWAP4 PUSH1 0x40 DUP2 ADD SWAP5 DUP2 MSTORE ADD MSTORE JUMP JUMPDEST SUB SWAP1 LOG4 JUMPDEST DUP2 MLOAD SUB PUSH3 0x273 JUMPI POP POP PUSH3 0x271 SWAP4 MLOAD SWAP1 MLOAD SWAP2 CALLER PUSH3 0xA66 JUMP JUMPDEST JUMP JUMPDEST SWAP2 POP SWAP2 PUSH3 0x271 SWAP5 POP CALLER PUSH3 0x926 JUMP JUMPDEST PUSH1 0x0 PUSH1 0x40 MLOAD PUSH32 0x4A39DC06D4C0DBC64B70AF90FD698A233A518AA5D07E595D983B8C0526C8F7FB CALLER SWAP2 DUP1 PUSH3 0x2B9 DUP10 DUP10 DUP4 PUSH3 0x802 JUMP JUMPDEST SUB SWAP1 LOG4 PUSH3 0x257 JUMP JUMPDEST DUP7 MLOAD DUP2 LT ISZERO PUSH3 0x324 JUMPI DUP1 DUP5 SWAP2 PUSH1 0x5 SHL DUP9 ADD PUSH3 0x31A PUSH3 0x311 DUP14 PUSH3 0x2FA DUP8 DUP10 DUP7 ADD MLOAD SWAP6 ADD MLOAD SWAP5 PUSH1 0x0 MSTORE PUSH1 0x0 PUSH1 0x20 MSTORE PUSH1 0x40 PUSH1 0x0 KECCAK256 SWAP1 JUMP JUMPDEST SWAP1 PUSH1 0x1 DUP1 PUSH1 0xA0 SHL SUB AND PUSH1 0x0 MSTORE PUSH1 0x20 MSTORE PUSH1 0x40 PUSH1 0x0 KECCAK256 SWAP1 JUMP JUMPDEST SWAP2 DUP3 SLOAD PUSH3 0x7A8 JUMP JUMPDEST SWAP1 SSTORE ADD DUP4 PUSH3 0x20A JUMP JUMPDEST PUSH3 0x210 JUMP JUMPDEST PUSH4 0x5B059991 PUSH1 0xE0 SHL DUP4 MSTORE PUSH1 0x84 DUP9 ADD SWAP2 SWAP1 SWAP2 MSTORE PUSH1 0xA4 DUP8 ADD MSTORE PUSH1 0x44 SWAP1 REVERT JUMPDEST PUSH1 0x40 MLOAD PUSH4 0x2BFA23E7 PUSH1 0xE1 SHL DUP2 MSTORE PUSH1 0x0 PUSH1 0x4 DUP3 ADD MSTORE PUSH1 0x24 SWAP1 REVERT JUMPDEST PUSH1 0x1 PUSH1 0x1 PUSH1 0xA0 SHL SUB DUP2 AND SWAP2 SWAP1 DUP3 ISZERO PUSH3 0x346 JUMPI PUSH1 0x40 MLOAD PUSH1 0x1 SWAP4 DUP5 DUP3 MSTORE PUSH1 0x20 SWAP2 PUSH1 0x20 DUP2 ADD SWAP6 DUP1 DUP8 MSTORE PUSH1 0x40 DUP3 ADD SWAP3 DUP2 DUP5 MSTORE PUSH1 0x60 SWAP5 PUSH1 0x60 DUP5 ADD SWAP6 PUSH12 0x33B2E3C9FD0803CE8000000 DUP8 MSTORE PUSH1 0x80 DUP6 ADD DUP1 PUSH1 0x40 MSTORE DUP6 MLOAD DUP8 MLOAD DUP1 DUP3 SUB PUSH3 0x32A JUMPI POP POP POP SWAP1 DUP4 SWAP2 DUP3 PUSH1 0x0 SWAP1 JUMPDEST PUSH3 0x40C JUMPI POP POP POP DUP4 MLOAD EQ PUSH1 0x0 EQ PUSH3 0x283 JUMPI PUSH1 0x0 DUP9 MLOAD PUSH1 0x0 DUP1 MLOAD PUSH1 0x20 PUSH3 0x1DDF DUP4 CODECOPY DUP2 MLOAD SWAP2 MSTORE PUSH3 0x253 DUP9 MLOAD PUSH1 0x40 MLOAD SWAP2 DUP3 SWAP2 CALLER SWAP6 DUP4 PUSH1 0x20 SWAP1 SWAP4 SWAP3 SWAP2 SWAP4 PUSH1 0x40 DUP2 ADD SWAP5 DUP2 MSTORE ADD MSTORE JUMP JUMPDEST DUP7 MLOAD DUP2 LT ISZERO PUSH3 0x324 JUMPI DUP1 DUP5 SWAP2 PUSH1 0x5 SHL DUP9 ADD PUSH3 0x444 PUSH3 0x311 DUP14 PUSH3 0x2FA DUP8 DUP10 DUP7 ADD MLOAD SWAP6 ADD MLOAD SWAP5 PUSH1 0x0 MSTORE PUSH1 0x0 PUSH1 0x20 MSTORE PUSH1 0x40 PUSH1 0x0 KECCAK256 SWAP1 JUMP JUMPDEST SWAP1 SSTORE ADD DUP4 PUSH3 0x3C4 JUMP JUMPDEST PUSH1 0x1 PUSH1 0x1 PUSH1 0xA0 SHL SUB DUP2 AND SWAP2 SWAP1 DUP3 ISZERO PUSH3 0x346 JUMPI PUSH1 0x40 MLOAD PUSH1 0x1 SWAP4 DUP5 DUP3 MSTORE PUSH1 0x20 SWAP2 PUSH1 0x20 DUP2 ADD SWAP6 PUSH1 0x2 DUP8 MSTORE PUSH1 0x40 DUP3 ADD SWAP3 DUP2 DUP5 MSTORE PUSH1 0x60 SWAP5 PUSH1 0x60 DUP5 ADD SWAP6 DUP4 DUP8 MSTORE PUSH1 0x80 DUP6 ADD DUP1 PUSH1 0x40 MSTORE DUP6 MLOAD DUP8 MLOAD DUP1 DUP3 SUB PUSH3 0x32A JUMPI POP POP POP SWAP1 DUP4 SWAP2 DUP3 PUSH1 0x0 SWAP1 JUMPDEST PUSH3 0x4F0 JUMPI POP POP POP DUP4 MLOAD EQ PUSH1 0x0 EQ PUSH3 0x283 JUMPI PUSH1 0x0 DUP9 MLOAD PUSH1 0x0 DUP1 MLOAD PUSH1 0x20 PUSH3 0x1DDF DUP4 CODECOPY DUP2 MLOAD SWAP2 MSTORE PUSH3 0x253 DUP9 MLOAD PUSH1 0x40 MLOAD SWAP2 DUP3 SWAP2 CALLER SWAP6 DUP4 PUSH1 0x20 SWAP1 SWAP4 SWAP3 SWAP2 SWAP4 PUSH1 0x40 DUP2 ADD SWAP5 DUP2 MSTORE ADD MSTORE JUMP JUMPDEST DUP7 MLOAD DUP2 LT ISZERO PUSH3 0x324 JUMPI DUP1 DUP5 SWAP2 PUSH1 0x5 SHL DUP9 ADD PUSH3 0x528 PUSH3 0x311 DUP14 PUSH3 0x2FA DUP8 DUP10 DUP7 ADD MLOAD SWAP6 ADD MLOAD SWAP5 PUSH1 0x0 MSTORE PUSH1 0x0 PUSH1 0x20 MSTORE PUSH1 0x40 PUSH1 0x0 KECCAK256 SWAP1 JUMP JUMPDEST SWAP1 SSTORE ADD DUP4 PUSH3 0x4A8 JUMP JUMPDEST PUSH1 0x1 PUSH1 0x1 PUSH1 0xA0 SHL SUB DUP2 AND SWAP2 SWAP1 DUP3 ISZERO PUSH3 0x346 JUMPI PUSH1 0x40 MLOAD PUSH1 0x1 SWAP4 DUP5 DUP3 MSTORE PUSH1 0x20 SWAP2 PUSH1 0x20 DUP2 ADD SWAP6 PUSH1 0x3 DUP8 MSTORE PUSH1 0x40 DUP3 ADD SWAP3 DUP2 DUP5 MSTORE PUSH1 0x60 SWAP5 PUSH1 0x60 DUP5 ADD SWAP6 PUSH4 0x3B9ACA00 DUP8 MSTORE PUSH1 0x80 DUP6 ADD DUP1 PUSH1 0x40 MSTORE DUP6 MLOAD DUP8 MLOAD DUP1 DUP3 SUB PUSH3 0x32A JUMPI POP POP POP SWAP1 DUP4 SWAP2 DUP3 PUSH1 0x0 SWAP1 JUMPDEST PUSH3 0x5D8 JUMPI POP POP POP DUP4 MLOAD EQ PUSH1 0x0 EQ PUSH3 0x283 JUMPI PUSH1 0x0 DUP9 MLOAD PUSH1 0x0 DUP1 MLOAD PUSH1 0x20 PUSH3 0x1DDF DUP4 CODECOPY DUP2 MLOAD SWAP2 MSTORE PUSH3 0x253 DUP9 MLOAD PUSH1 0x40 MLOAD SWAP2 DUP3 SWAP2 CALLER SWAP6 DUP4 PUSH1 0x20 SWAP1 SWAP4 SWAP3 SWAP2 SWAP4 PUSH1 0x40 DUP2 ADD SWAP5 DUP2 MSTORE ADD MSTORE JUMP JUMPDEST DUP7 MLOAD DUP2 LT ISZERO PUSH3 0x324 JUMPI DUP1 DUP5 SWAP2 PUSH1 0x5 SHL DUP9 ADD PUSH3 0x610 PUSH3 0x311 DUP14 PUSH3 0x2FA DUP8 DUP10 DUP7 ADD MLOAD SWAP6 ADD MLOAD SWAP5 PUSH1 0x0 MSTORE PUSH1 0x0 PUSH1 0x20 MSTORE PUSH1 0x40 PUSH1 0x0 KECCAK256 SWAP1 JUMP JUMPDEST SWAP1 SSTORE ADD DUP4 PUSH3 0x590 JUMP JUMPDEST PUSH1 0x1 PUSH1 0x1 PUSH1 0xA0 SHL SUB DUP2 AND SWAP2 SWAP1 DUP3 ISZERO PUSH3 0x346 JUMPI PUSH1 0x40 MLOAD PUSH1 0x1 SWAP4 DUP5 DUP3 MSTORE PUSH1 0x20 SWAP2 PUSH1 0x20 DUP2 ADD SWAP6 PUSH1 0x4 DUP8 MSTORE PUSH1 0x40 DUP3 ADD SWAP3 DUP2 DUP5 MSTORE PUSH1 0x60 SWAP5 PUSH1 0x60 DUP5 ADD SWAP6 PUSH4 0x3B9ACA00 DUP8 MSTORE PUSH1 0x80 DUP6 ADD DUP1 PUSH1 0x40 MSTORE DUP6 MLOAD DUP8 MLOAD DUP1 DUP3 SUB PUSH3 0x32A JUMPI POP POP POP SWAP1 DUP4 SWAP2 DUP3 PUSH1 0x0 SWAP1 JUMPDEST PUSH3 0x6C0 JUMPI POP POP POP DUP4 MLOAD EQ PUSH1 0x0 EQ PUSH3 0x283 JUMPI PUSH1 0x0 DUP9 MLOAD PUSH1 0x0 DUP1 MLOAD PUSH1 0x20 PUSH3 0x1DDF DUP4 CODECOPY DUP2 MLOAD SWAP2 MSTORE PUSH3 0x253 DUP9 MLOAD PUSH1 0x40 MLOAD SWAP2 DUP3 SWAP2 CALLER SWAP6 DUP4 PUSH1 0x20 SWAP1 SWAP4 SWAP3 SWAP2 SWAP4 PUSH1 0x40 DUP2 ADD SWAP5 DUP2 MSTORE ADD MSTORE JUMP JUMPDEST DUP7 MLOAD DUP2 LT ISZERO PUSH3 0x324 JUMPI DUP1 DUP5 SWAP2 PUSH1 0x5 SHL DUP9 ADD PUSH3 0x6F8 PUSH3 0x311 DUP14 PUSH3 0x2FA DUP8 DUP10 DUP7 ADD MLOAD SWAP6 ADD MLOAD SWAP5 PUSH1 0x0 MSTORE PUSH1 0x0 PUSH1 0x20 MSTORE PUSH1 0x40 PUSH1 0x0 KECCAK256 SWAP1 JUMP JUMPDEST SWAP1 SSTORE ADD DUP4 PUSH3 0x678 JUMP JUMPDEST SWAP1 PUSH1 0x1 DUP3 DUP2 SHR SWAP3 AND DUP1 ISZERO PUSH3 0x734 JUMPI JUMPDEST PUSH1 0x20 DUP4 LT EQ PUSH3 0x71E JUMPI JUMP JUMPDEST PUSH4 0x4E487B71 PUSH1 0xE0 SHL PUSH1 0x0 MSTORE PUSH1 0x22 PUSH1 0x4 MSTORE PUSH1 0x24 PUSH1 0x0 REVERT JUMPDEST SWAP2 PUSH1 0x7F AND SWAP2 PUSH3 0x712 JUMP JUMPDEST PUSH1 0x1F DUP2 GT PUSH3 0x74B JUMPI POP JUMP JUMPDEST PUSH1 0x2 PUSH1 0x0 SWAP1 DUP2 MSTORE PUSH1 0x1F SWAP2 SWAP1 SWAP2 ADD PUSH1 0x5 SHR PUSH1 0x0 DUP1 MLOAD PUSH1 0x20 PUSH3 0x1DFF DUP4 CODECOPY DUP2 MLOAD SWAP2 MSTORE ADD SWAP1 PUSH32 0x405787FA12A823E0F2B7631CC41B3BA8828B3321CA811111FA75CD3AA3BB5AD0 JUMPDEST DUP3 DUP2 LT PUSH3 0x79C JUMPI POP POP POP JUMP JUMPDEST DUP2 DUP2 SSTORE PUSH1 0x1 ADD PUSH3 0x78F JUMP JUMPDEST SWAP2 SWAP1 DUP3 ADD DUP1 SWAP3 GT PUSH3 0x7B6 JUMPI JUMP JUMPDEST PUSH4 0x4E487B71 PUSH1 0xE0 SHL PUSH1 0x0 MSTORE PUSH1 0x11 PUSH1 0x4 MSTORE PUSH1 0x24 PUSH1 0x0 REVERT JUMPDEST SWAP1 DUP2 MLOAD DUP1 DUP3 MSTORE PUSH1 0x20 DUP1 DUP1 SWAP4 ADD SWAP4 ADD SWAP2 PUSH1 0x0 JUMPDEST DUP3 DUP2 LT PUSH3 0x7ED JUMPI POP POP POP POP SWAP1 JUMP JUMPDEST DUP4 MLOAD DUP6 MSTORE SWAP4 DUP2 ADD SWAP4 SWAP3 DUP2 ADD SWAP3 PUSH1 0x1 ADD PUSH3 0x7DE JUMP JUMPDEST SWAP1 SWAP2 PUSH3 0x81C PUSH3 0x82B SWAP4 PUSH1 0x40 DUP5 MSTORE PUSH1 0x40 DUP5 ADD SWAP1 PUSH3 0x7CC JUMP JUMPDEST SWAP2 PUSH1 0x20 DUP2 DUP5 SUB SWAP2 ADD MSTORE PUSH3 0x7CC JUMP JUMPDEST SWAP1 JUMP JUMPDEST SWAP1 DUP2 PUSH1 0x20 SWAP2 SUB SLT PUSH3 0x145 JUMPI MLOAD PUSH1 0x1 PUSH1 0x1 PUSH1 0xE0 SHL SUB NOT DUP2 AND DUP2 SUB PUSH3 0x145 JUMPI SWAP1 JUMP JUMPDEST SWAP2 SWAP1 DUP3 MLOAD SWAP3 DUP4 DUP3 MSTORE PUSH1 0x0 JUMPDEST DUP5 DUP2 LT PUSH3 0x87D JUMPI POP POP DUP3 PUSH1 0x0 PUSH1 0x20 DUP1 SWAP5 SWAP6 DUP5 ADD ADD MSTORE PUSH1 0x1F DUP1 NOT SWAP2 ADD AND ADD ADD SWAP1 JUMP JUMPDEST PUSH1 0x20 DUP2 DUP4 ADD DUP2 ADD MLOAD DUP5 DUP4 ADD DUP3 ADD MSTORE ADD PUSH3 0x85B JUMP JUMPDEST SWAP3 PUSH3 0x8C5 PUSH3 0x82B SWAP6 SWAP4 PUSH3 0x8D4 SWAP4 PUSH1 0x1 DUP1 PUSH1 0xA0 SHL SUB AND DUP7 MSTORE PUSH1 0x0 PUSH1 0x20 DUP8 ADD MSTORE PUSH1 0xA0 PUSH1 0x40 DUP8 ADD MSTORE PUSH1 0xA0 DUP7 ADD SWAP1 PUSH3 0x7CC JUMP JUMPDEST SWAP1 DUP5 DUP3 SUB PUSH1 0x60 DUP7 ADD MSTORE PUSH3 0x7CC JUMP JUMPDEST SWAP2 PUSH1 0x80 DUP2 DUP5 SUB SWAP2 ADD MSTORE PUSH3 0x850 JUMP JUMPDEST RETURNDATASIZE ISZERO PUSH3 0x921 JUMPI RETURNDATASIZE SWAP1 PUSH1 0x1 PUSH1 0x1 PUSH1 0x40 SHL SUB DUP3 GT PUSH3 0x184 JUMPI PUSH1 0x40 MLOAD SWAP2 PUSH3 0x915 PUSH1 0x1F DUP3 ADD PUSH1 0x1F NOT AND PUSH1 0x20 ADD DUP5 PUSH3 0x160 JUMP JUMPDEST DUP3 MSTORE RETURNDATASIZE PUSH1 0x0 PUSH1 0x20 DUP5 ADD RETURNDATACOPY JUMP JUMPDEST PUSH1 0x60 SWAP1 JUMP JUMPDEST SWAP3 SWAP4 SWAP2 SWAP1 SWAP4 DUP5 EXTCODESIZE PUSH3 0x93A JUMPI JUMPDEST POP POP POP POP POP JUMP JUMPDEST PUSH1 0x20 SWAP2 PUSH3 0x95F PUSH1 0x40 MLOAD SWAP5 DUP6 SWAP4 DUP5 SWAP4 PUSH4 0xBC197C81 PUSH1 0xE0 SHL SWAP9 DUP10 DUP7 MSTORE PUSH1 0x4 DUP7 ADD PUSH3 0x892 JUMP JUMPDEST SUB DUP2 PUSH1 0x0 PUSH1 0x1 PUSH1 0x1 PUSH1 0xA0 SHL SUB DUP9 AND GAS CALL PUSH1 0x0 SWAP2 DUP2 PUSH3 0x9FB JUMPI JUMPDEST POP PUSH3 0x9BC JUMPI DUP3 PUSH3 0x98A PUSH3 0x8E3 JUMP JUMPDEST DUP1 MLOAD SWAP2 SWAP1 DUP3 PUSH3 0x9B5 JUMPI PUSH1 0x40 MLOAD PUSH4 0x2BFA23E7 PUSH1 0xE1 SHL DUP2 MSTORE PUSH1 0x1 PUSH1 0x1 PUSH1 0xA0 SHL SUB DUP4 AND PUSH1 0x4 DUP3 ADD MSTORE PUSH1 0x24 SWAP1 REVERT JUMPDEST SWAP1 POP PUSH1 0x20 ADD REVERT JUMPDEST PUSH1 0x1 PUSH1 0x1 PUSH1 0xE0 SHL SUB NOT AND SUB PUSH3 0x9D8 JUMPI POP CODESIZE DUP1 DUP1 DUP1 DUP1 PUSH3 0x933 JUMP JUMPDEST PUSH1 0x40 MLOAD PUSH4 0x2BFA23E7 PUSH1 0xE1 SHL DUP2 MSTORE PUSH1 0x1 PUSH1 0x1 PUSH1 0xA0 SHL SUB SWAP2 SWAP1 SWAP2 AND PUSH1 0x4 DUP3 ADD MSTORE PUSH1 0x24 SWAP1 REVERT JUMPDEST PUSH3 0xA23 SWAP2 SWAP3 POP PUSH1 0x20 RETURNDATASIZE PUSH1 0x20 GT PUSH3 0xA2B JUMPI JUMPDEST PUSH3 0xA1A DUP2 DUP4 PUSH3 0x160 JUMP JUMPDEST DUP2 ADD SWAP1 PUSH3 0x82E JUMP JUMPDEST SWAP1 CODESIZE PUSH3 0x979 JUMP JUMPDEST POP RETURNDATASIZE PUSH3 0xA0E JUMP JUMPDEST SWAP1 SWAP3 PUSH1 0xA0 SWAP3 PUSH3 0x82B SWAP6 SWAP5 PUSH1 0x1 DUP1 DUP7 SHL SUB AND DUP4 MSTORE PUSH1 0x0 PUSH1 0x20 DUP5 ADD MSTORE PUSH1 0x40 DUP4 ADD MSTORE PUSH1 0x60 DUP3 ADD MSTORE DUP2 PUSH1 0x80 DUP3 ADD MSTORE ADD SWAP1 PUSH3 0x850 JUMP JUMPDEST SWAP3 SWAP4 SWAP2 SWAP1 SWAP4 DUP5 EXTCODESIZE PUSH3 0xA79 JUMPI POP POP POP POP POP JUMP JUMPDEST PUSH1 0x20 SWAP2 PUSH3 0x95F PUSH1 0x40 MLOAD SWAP5 DUP6 SWAP4 DUP5 SWAP4 PUSH4 0xF23A6E61 PUSH1 0xE0 SHL SWAP9 DUP10 DUP7 MSTORE PUSH1 0x4 DUP7 ADD PUSH3 0xA33 JUMP INVALID PUSH1 0x80 PUSH1 0x40 MSTORE PUSH1 0x4 CALLDATASIZE LT ISZERO PUSH2 0x12 JUMPI PUSH1 0x0 DUP1 REVERT JUMPDEST PUSH1 0x0 CALLDATALOAD PUSH1 0xE0 SHR DUP1 PUSH3 0xFDD58E EQ PUSH2 0xF6 JUMPI DUP1 PUSH4 0x1FFC9A7 EQ PUSH2 0xF1 JUMPI DUP1 PUSH4 0xE89341C EQ PUSH2 0xEC JUMPI DUP1 PUSH4 0x13DC989F EQ PUSH2 0xE7 JUMPI DUP1 PUSH4 0x156E29F6 EQ PUSH2 0xE2 JUMPI DUP1 PUSH4 0x2EB2C2D6 EQ PUSH2 0xDD JUMPI DUP1 PUSH4 0x3E4BEE38 EQ PUSH2 0xD8 JUMPI DUP1 PUSH4 0x4E1273F4 EQ PUSH2 0xD3 JUMPI DUP1 PUSH4 0x5B2725ED EQ PUSH2 0xCE JUMPI DUP1 PUSH4 0xA22CB465 EQ PUSH2 0xC9 JUMPI DUP1 PUSH4 0xD562E204 EQ PUSH2 0xC4 JUMPI DUP1 PUSH4 0xE3E55F08 EQ PUSH2 0xBF JUMPI DUP1 PUSH4 0xE985E9C5 EQ PUSH2 0xBA JUMPI PUSH4 0xF242432A EQ PUSH2 0xB5 JUMPI PUSH1 0x0 DUP1 REVERT JUMPDEST PUSH2 0x9F0 JUMP JUMPDEST PUSH2 0x993 JUMP JUMPDEST PUSH2 0x977 JUMP JUMPDEST PUSH2 0x95B JUMP JUMPDEST PUSH2 0x89E JUMP JUMPDEST PUSH2 0x882 JUMP JUMPDEST PUSH2 0x7C8 JUMP JUMPDEST PUSH2 0x767 JUMP JUMPDEST PUSH2 0x641 JUMP JUMPDEST PUSH2 0x440 JUMP JUMPDEST PUSH2 0x424 JUMP JUMPDEST PUSH2 0x269 JUMP JUMPDEST PUSH2 0x19F JUMP JUMPDEST PUSH2 0x140 JUMP JUMPDEST PUSH1 0x4 CALLDATALOAD SWAP1 PUSH1 0x1 PUSH1 0x1 PUSH1 0xA0 SHL SUB DUP3 AND DUP3 SUB PUSH2 0x111 JUMPI JUMP JUMPDEST PUSH1 0x0 DUP1 REVERT JUMPDEST PUSH1 0x24 CALLDATALOAD SWAP1 PUSH1 0x1 PUSH1 0x1 PUSH1 0xA0 SHL SUB DUP3 AND DUP3 SUB PUSH2 0x111 JUMPI JUMP JUMPDEST CALLDATALOAD SWAP1 PUSH1 0x1 PUSH1 0x1 PUSH1 0xA0 SHL SUB DUP3 AND DUP3 SUB PUSH2 0x111 JUMPI JUMP JUMPDEST CALLVALUE PUSH2 0x111 JUMPI PUSH1 0x40 CALLDATASIZE PUSH1 0x3 NOT ADD SLT PUSH2 0x111 JUMPI PUSH1 0x20 PUSH2 0x184 PUSH2 0x15E PUSH2 0xFB JUMP JUMPDEST PUSH1 0x24 CALLDATALOAD PUSH1 0x0 MSTORE PUSH1 0x0 DUP4 MSTORE PUSH1 0x40 PUSH1 0x0 KECCAK256 SWAP1 PUSH1 0x1 DUP1 PUSH1 0xA0 SHL SUB AND PUSH1 0x0 MSTORE PUSH1 0x20 MSTORE PUSH1 0x40 PUSH1 0x0 KECCAK256 SWAP1 JUMP JUMPDEST SLOAD PUSH1 0x40 MLOAD SWAP1 DUP2 MSTORE RETURN JUMPDEST PUSH1 0x1 PUSH1 0x1 PUSH1 0xE0 SHL SUB NOT DUP2 AND SUB PUSH2 0x111 JUMPI JUMP JUMPDEST CALLVALUE PUSH2 0x111 JUMPI PUSH1 0x20 CALLDATASIZE PUSH1 0x3 NOT ADD SLT PUSH2 0x111 JUMPI PUSH1 0x20 PUSH1 0x4 CALLDATALOAD PUSH2 0x1BE DUP2 PUSH2 0x18D JUMP JUMPDEST PUSH4 0xFFFFFFFF PUSH1 0xE0 SHL AND PUSH4 0x6CDB3D13 PUSH1 0xE1 SHL DUP2 EQ SWAP1 DUP2 ISZERO PUSH2 0x1FC JUMPI JUMPDEST DUP2 ISZERO PUSH2 0x1EB JUMPI JUMPDEST POP PUSH1 0x40 MLOAD SWAP1 ISZERO ISZERO DUP2 MSTORE RETURN JUMPDEST PUSH4 0x1FFC9A7 PUSH1 0xE0 SHL EQ SWAP1 POP CODESIZE PUSH2 0x1E0 JUMP JUMPDEST PUSH4 0x3A24D07 PUSH1 0xE2 SHL DUP2 EQ SWAP2 POP PUSH2 0x1D9 JUMP JUMPDEST PUSH1 0x0 JUMPDEST DUP4 DUP2 LT PUSH2 0x220 JUMPI POP POP PUSH1 0x0 SWAP2 ADD MSTORE JUMP JUMPDEST DUP2 DUP2 ADD MLOAD DUP4 DUP3 ADD MSTORE PUSH1 0x20 ADD PUSH2 0x210 JUMP JUMPDEST SWAP1 PUSH1 0x20 SWAP2 PUSH2 0x249 DUP2 MLOAD DUP1 SWAP3 DUP2 DUP6 MSTORE DUP6 DUP1 DUP7 ADD SWAP2 ADD PUSH2 0x20D JUMP JUMPDEST PUSH1 0x1F ADD PUSH1 0x1F NOT AND ADD ADD SWAP1 JUMP JUMPDEST SWAP1 PUSH1 0x20 PUSH2 0x266 SWAP3 DUP2 DUP2 MSTORE ADD SWAP1 PUSH2 0x230 JUMP JUMPDEST SWAP1 JUMP JUMPDEST CALLVALUE PUSH2 0x111 JUMPI PUSH1 0x20 CALLDATASIZE PUSH1 0x3 NOT ADD SLT PUSH2 0x111 JUMPI PUSH1 0x0 PUSH1 0x4 CALLDATALOAD DUP1 PUSH19 0x184F03E93FF9F4DAA797ED6E38ED64BF6A1F01 PUSH1 0x40 SHL DUP1 DUP3 LT ISZERO PUSH2 0x416 JUMPI JUMPDEST POP PUSH14 0x4EE2D6D415B85ACEF8100000000 DUP1 DUP4 LT ISZERO PUSH2 0x407 JUMPI JUMPDEST POP PUSH7 0x2386F26FC10000 DUP1 DUP4 LT ISZERO PUSH2 0x3F8 JUMPI JUMPDEST POP PUSH4 0x5F5E100 DUP1 DUP4 LT ISZERO PUSH2 0x3E9 JUMPI JUMPDEST POP PUSH2 0x2710 DUP1 DUP4 LT ISZERO PUSH2 0x3DA JUMPI JUMPDEST POP PUSH1 0x64 DUP3 LT ISZERO PUSH2 0x3CA JUMPI JUMPDEST PUSH1 0xA DUP1 SWAP3 LT ISZERO PUSH2 0x3C0 JUMPI JUMPDEST PUSH1 0x1 SWAP1 DUP2 PUSH1 0x21 PUSH2 0x30F PUSH1 0x1 DUP8 ADD PUSH2 0xBF4 JUMP JUMPDEST SWAP6 DUP7 ADD ADD SWAP1 JUMPDEST PUSH2 0x38A JUMPI JUMPDEST PUSH1 0x40 MLOAD PUSH32 0x68747470733A2F2F67616D652E6578616D706C652F6170692F6974656D2F0000 PUSH1 0x20 DUP3 ADD MSTORE PUSH2 0x386 SWAP1 PUSH2 0x37A DUP2 PUSH2 0x36C PUSH2 0x35B PUSH1 0x3E DUP4 ADD DUP12 PUSH2 0xAF4 JUMP JUMPDEST PUSH5 0x173539B7B7 PUSH1 0xD9 SHL DUP2 MSTORE PUSH1 0x5 ADD SWAP1 JUMP JUMPDEST SUB PUSH1 0x1F NOT DUP2 ADD DUP4 MSTORE DUP3 PUSH2 0x547 JUMP JUMPDEST PUSH1 0x40 MLOAD SWAP2 DUP3 SWAP2 DUP3 PUSH2 0x255 JUMP JUMPDEST SUB SWAP1 RETURN JUMPDEST PUSH1 0x0 NOT ADD SWAP1 DUP4 SWAP1 PUSH16 0x181899199A1A9B1B9C1CB0B131B232B3 PUSH1 0x81 SHL DUP3 DUP3 MOD BYTE DUP4 MSTORE8 DIV SWAP2 DUP3 ISZERO PUSH2 0x3BB JUMPI SWAP2 SWAP1 DUP3 PUSH2 0x315 JUMP JUMPDEST PUSH2 0x31A JUMP JUMPDEST SWAP2 PUSH1 0x1 ADD SWAP2 PUSH2 0x2FD JUMP JUMPDEST SWAP2 SWAP1 PUSH1 0x64 PUSH1 0x2 SWAP2 DIV SWAP2 ADD SWAP2 PUSH2 0x2F2 JUMP JUMPDEST PUSH1 0x4 SWAP2 SWAP4 SWAP3 DIV SWAP2 ADD SWAP2 CODESIZE PUSH2 0x2E7 JUMP JUMPDEST PUSH1 0x8 SWAP2 SWAP4 SWAP3 DIV SWAP2 ADD SWAP2 CODESIZE PUSH2 0x2DA JUMP JUMPDEST PUSH1 0x10 SWAP2 SWAP4 SWAP3 DIV SWAP2 ADD SWAP2 CODESIZE PUSH2 0x2CB JUMP JUMPDEST PUSH1 0x20 SWAP2 SWAP4 SWAP3 DIV SWAP2 ADD SWAP2 CODESIZE PUSH2 0x2B9 JUMP JUMPDEST PUSH1 0x40 SWAP4 POP DUP2 DIV SWAP2 POP CODESIZE PUSH2 0x2A0 JUMP JUMPDEST CALLVALUE PUSH2 0x111 JUMPI PUSH1 0x0 CALLDATASIZE PUSH1 0x3 NOT ADD SLT PUSH2 0x111 JUMPI PUSH1 0x20 PUSH1 0x40 MLOAD PUSH1 0x3 DUP2 MSTORE RETURN JUMPDEST CALLVALUE PUSH2 0x111 JUMPI PUSH1 0x60 CALLDATASIZE PUSH1 0x3 NOT ADD SLT PUSH2 0x111 JUMPI PUSH2 0x459 PUSH2 0xFB JUMP JUMPDEST PUSH1 0x3 SLOAD PUSH1 0x1 PUSH1 0x1 PUSH1 0xA0 SHL SUB SWAP1 DUP2 AND CALLER SUB PUSH2 0x4D8 JUMPI PUSH1 0x40 MLOAD SWAP1 PUSH2 0x47A DUP3 PUSH2 0x527 JUMP JUMPDEST PUSH1 0x0 DUP3 MSTORE DUP3 AND ISZERO PUSH2 0x4BF JUMPI PUSH2 0x4BD SWAP2 PUSH2 0x4B7 PUSH1 0x44 CALLDATALOAD PUSH1 0x24 CALLDATALOAD SWAP2 PUSH1 0x40 MLOAD SWAP3 PUSH1 0x1 DUP5 MSTORE PUSH1 0x20 DUP5 ADD MSTORE PUSH1 0x40 DUP4 ADD SWAP2 PUSH1 0x1 DUP4 MSTORE PUSH1 0x60 DUP5 ADD MSTORE PUSH1 0x80 DUP4 ADD PUSH1 0x40 MSTORE JUMP JUMPDEST SWAP2 PUSH2 0xC26 JUMP JUMPDEST STOP JUMPDEST PUSH1 0x40 MLOAD PUSH4 0x2BFA23E7 PUSH1 0xE1 SHL DUP2 MSTORE PUSH1 0x0 PUSH1 0x4 DUP3 ADD MSTORE PUSH1 0x24 SWAP1 REVERT JUMPDEST PUSH1 0x40 MLOAD PUSH3 0x461BCD PUSH1 0xE5 SHL DUP2 MSTORE PUSH1 0x20 PUSH1 0x4 DUP3 ADD MSTORE PUSH1 0x11 PUSH1 0x24 DUP3 ADD MSTORE PUSH17 0x2CB7BA9030B932903737BA1037BBB732B9 PUSH1 0x79 SHL PUSH1 0x44 DUP3 ADD MSTORE PUSH1 0x64 SWAP1 REVERT JUMPDEST PUSH4 0x4E487B71 PUSH1 0xE0 SHL PUSH1 0x0 MSTORE PUSH1 0x41 PUSH1 0x4 MSTORE PUSH1 0x24 PUSH1 0x0 REVERT JUMPDEST PUSH1 0x20 DUP2 ADD SWAP1 DUP2 LT PUSH1 0x1 PUSH1 0x1 PUSH1 0x40 SHL SUB DUP3 GT OR PUSH2 0x542 JUMPI PUSH1 0x40 MSTORE JUMP JUMPDEST PUSH2 0x511 JUMP JUMPDEST SWAP1 PUSH1 0x1F DUP1 NOT SWAP2 ADD AND DUP2 ADD SWAP1 DUP2 LT PUSH1 0x1 PUSH1 0x1 PUSH1 0x40 SHL SUB DUP3 GT OR PUSH2 0x542 JUMPI PUSH1 0x40 MSTORE JUMP JUMPDEST PUSH1 0x1 PUSH1 0x1 PUSH1 0x40 SHL SUB DUP2 GT PUSH2 0x542 JUMPI PUSH1 0x5 SHL PUSH1 0x20 ADD SWAP1 JUMP JUMPDEST SWAP1 DUP1 PUSH1 0x1F DUP4 ADD SLT ISZERO PUSH2 0x111 JUMPI PUSH1 0x20 SWAP1 DUP3 CALLDATALOAD PUSH2 0x599 DUP2 PUSH2 0x568 JUMP JUMPDEST SWAP4 PUSH2 0x5A7 PUSH1 0x40 MLOAD SWAP6 DUP7 PUSH2 0x547 JUMP JUMPDEST DUP2 DUP6 MSTORE PUSH1 0x20 DUP1 DUP7 ADD SWAP3 PUSH1 0x5 SHL DUP3 ADD ADD SWAP3 DUP4 GT PUSH2 0x111 JUMPI PUSH1 0x20 ADD SWAP1 JUMPDEST DUP3 DUP3 LT PUSH2 0x5D0 JUMPI POP POP POP POP SWAP1 JUMP JUMPDEST DUP2 CALLDATALOAD DUP2 MSTORE SWAP1 DUP4 ADD SWAP1 DUP4 ADD PUSH2 0x5C2 JUMP JUMPDEST PUSH1 0x1 PUSH1 0x1 PUSH1 0x40 SHL SUB DUP2 GT PUSH2 0x542 JUMPI PUSH1 0x1F ADD PUSH1 0x1F NOT AND PUSH1 0x20 ADD SWAP1 JUMP JUMPDEST DUP2 PUSH1 0x1F DUP3 ADD SLT ISZERO PUSH2 0x111 JUMPI DUP1 CALLDATALOAD SWAP1 PUSH2 0x611 DUP3 PUSH2 0x5DF JUMP JUMPDEST SWAP3 PUSH2 0x61F PUSH1 0x40 MLOAD SWAP5 DUP6 PUSH2 0x547 JUMP JUMPDEST DUP3 DUP5 MSTORE PUSH1 0x20 DUP4 DUP4 ADD ADD GT PUSH2 0x111 JUMPI DUP2 PUSH1 0x0 SWAP3 PUSH1 0x20 DUP1 SWAP4 ADD DUP4 DUP7 ADD CALLDATACOPY DUP4 ADD ADD MSTORE SWAP1 JUMP JUMPDEST CALLVALUE PUSH2 0x111 JUMPI PUSH1 0xA0 CALLDATASIZE PUSH1 0x3 NOT ADD SLT PUSH2 0x111 JUMPI PUSH2 0x65A PUSH2 0xFB JUMP JUMPDEST PUSH2 0x662 PUSH2 0x116 JUMP JUMPDEST SWAP1 PUSH1 0x44 CALLDATALOAD SWAP2 PUSH1 0x1 PUSH1 0x1 PUSH1 0x40 SHL SUB SWAP1 DUP2 DUP5 GT PUSH2 0x111 JUMPI PUSH2 0x686 PUSH1 0x4 SWAP5 CALLDATASIZE SWAP1 DUP7 ADD PUSH2 0x57F JUMP JUMPDEST SWAP1 PUSH1 0x64 CALLDATALOAD DUP4 DUP2 GT PUSH2 0x111 JUMPI PUSH2 0x69E SWAP1 CALLDATASIZE SWAP1 DUP8 ADD PUSH2 0x57F JUMP JUMPDEST SWAP3 PUSH1 0x84 CALLDATALOAD SWAP1 DUP2 GT PUSH2 0x111 JUMPI PUSH2 0x6B6 SWAP1 CALLDATASIZE SWAP1 DUP8 ADD PUSH2 0x5FA JUMP JUMPDEST SWAP4 PUSH1 0x1 PUSH1 0x1 PUSH1 0xA0 SHL SUB DUP1 DUP3 AND SWAP1 CALLER DUP3 EQ ISZERO DUP1 PUSH2 0x743 JUMPI JUMPDEST PUSH2 0x716 JUMPI DUP4 AND ISZERO PUSH2 0x6FE JUMPI ISZERO PUSH2 0x6E7 JUMPI PUSH2 0x4BD SWAP6 POP PUSH2 0xDA1 JUMP JUMPDEST PUSH1 0x40 MLOAD PUSH3 0x6A0D45 PUSH1 0xE2 SHL DUP2 MSTORE PUSH1 0x0 DUP2 DUP9 ADD MSTORE PUSH1 0x24 SWAP1 REVERT JUMPDEST PUSH1 0x40 MLOAD PUSH4 0x2BFA23E7 PUSH1 0xE1 SHL DUP2 MSTORE PUSH1 0x0 DUP2 DUP10 ADD MSTORE PUSH1 0x24 SWAP1 REVERT JUMPDEST PUSH1 0x40 DUP1 MLOAD PUSH4 0x711BEC91 PUSH1 0xE1 SHL DUP2 MSTORE CALLER DUP2 DUP12 ADD SWAP1 DUP2 MSTORE PUSH1 0x1 PUSH1 0x1 PUSH1 0xA0 SHL SUB DUP7 AND PUSH1 0x20 DUP3 ADD MSTORE SWAP1 SWAP2 DUP3 SWAP2 ADD SUB SWAP1 REVERT JUMPDEST POP PUSH1 0x0 DUP3 DUP2 MSTORE PUSH1 0x1 PUSH1 0x20 SWAP1 DUP2 MSTORE PUSH1 0x40 DUP1 DUP4 KECCAK256 CALLER DUP5 MSTORE SWAP1 SWAP2 MSTORE SWAP1 KECCAK256 SLOAD PUSH1 0xFF AND ISZERO PUSH2 0x6CD JUMP JUMPDEST CALLVALUE PUSH2 0x111 JUMPI PUSH1 0x0 CALLDATASIZE PUSH1 0x3 NOT ADD SLT PUSH2 0x111 JUMPI PUSH1 0x20 PUSH1 0x40 MLOAD PUSH1 0x0 DUP2 MSTORE RETURN JUMPDEST SWAP1 DUP2 MLOAD DUP1 DUP3 MSTORE PUSH1 0x20 DUP1 DUP1 SWAP4 ADD SWAP4 ADD SWAP2 PUSH1 0x0 JUMPDEST DUP3 DUP2 LT PUSH2 0x7A3 JUMPI POP POP POP POP SWAP1 JUMP JUMPDEST DUP4 MLOAD DUP6 MSTORE SWAP4 DUP2 ADD SWAP4 SWAP3 DUP2 ADD SWAP3 PUSH1 0x1 ADD PUSH2 0x795 JUMP JUMPDEST SWAP1 PUSH1 0x20 PUSH2 0x266 SWAP3 DUP2 DUP2 MSTORE ADD SWAP1 PUSH2 0x783 JUMP JUMPDEST CALLVALUE PUSH2 0x111 JUMPI PUSH1 0x40 CALLDATASIZE PUSH1 0x3 NOT ADD SLT PUSH2 0x111 JUMPI PUSH1 0x4 CALLDATALOAD PUSH1 0x1 PUSH1 0x1 PUSH1 0x40 SHL SUB DUP1 DUP3 GT PUSH2 0x111 JUMPI CALLDATASIZE PUSH1 0x23 DUP4 ADD SLT ISZERO PUSH2 0x111 JUMPI DUP2 PUSH1 0x4 ADD CALLDATALOAD PUSH2 0x804 DUP2 PUSH2 0x568 JUMP JUMPDEST SWAP3 PUSH2 0x812 PUSH1 0x40 MLOAD SWAP5 DUP6 PUSH2 0x547 JUMP JUMPDEST DUP2 DUP5 MSTORE PUSH1 0x20 SWAP2 PUSH1 0x24 PUSH1 0x20 DUP7 ADD SWAP2 PUSH1 0x5 SHL DUP4 ADD ADD SWAP2 CALLDATASIZE DUP4 GT PUSH2 0x111 JUMPI PUSH1 0x24 ADD SWAP1 JUMPDEST DUP3 DUP3 LT PUSH2 0x86B JUMPI DUP6 PUSH1 0x24 CALLDATALOAD DUP7 DUP2 GT PUSH2 0x111 JUMPI PUSH2 0x386 SWAP2 PUSH2 0x859 PUSH2 0x85F SWAP3 CALLDATASIZE SWAP1 PUSH1 0x4 ADD PUSH2 0x57F JUMP JUMPDEST SWAP1 PUSH2 0xB35 JUMP JUMPDEST PUSH1 0x40 MLOAD SWAP2 DUP3 SWAP2 DUP3 PUSH2 0x7B7 JUMP JUMPDEST DUP4 DUP1 SWAP2 PUSH2 0x877 DUP5 PUSH2 0x12C JUMP JUMPDEST DUP2 MSTORE ADD SWAP2 ADD SWAP1 PUSH2 0x832 JUMP JUMPDEST CALLVALUE PUSH2 0x111 JUMPI PUSH1 0x0 CALLDATASIZE PUSH1 0x3 NOT ADD SLT PUSH2 0x111 JUMPI PUSH1 0x20 PUSH1 0x40 MLOAD PUSH1 0x4 DUP2 MSTORE RETURN JUMPDEST CALLVALUE PUSH2 0x111 JUMPI PUSH1 0x40 CALLDATASIZE PUSH1 0x3 NOT ADD SLT PUSH2 0x111 JUMPI PUSH2 0x8B7 PUSH2 0xFB JUMP JUMPDEST PUSH1 0x24 CALLDATALOAD DUP1 ISZERO ISZERO DUP1 DUP3 SUB PUSH2 0x111 JUMPI PUSH1 0x1 PUSH1 0x1 PUSH1 0xA0 SHL SUB DUP4 AND SWAP3 DUP4 ISZERO PUSH2 0x943 JUMPI CALLER PUSH1 0x0 SWAP1 DUP2 MSTORE PUSH1 0x1 PUSH1 0x20 SWAP1 DUP2 MSTORE PUSH1 0x40 DUP1 DUP4 KECCAK256 PUSH1 0x1 PUSH1 0x1 PUSH1 0xA0 SHL SUB SWAP1 SWAP5 AND DUP4 MSTORE SWAP3 SWAP1 MSTORE KECCAK256 SWAP1 PUSH1 0xFF DUP1 NOT DUP4 SLOAD AND SWAP2 AND OR SWAP1 SSTORE PUSH32 0x17307EAB39AB6107E8899845AD3D59BD9653F200F220920489CA2B5937696C31 PUSH1 0x40 MLOAD DUP1 PUSH2 0x93E CALLER SWAP5 DUP3 SWAP2 SWAP1 SWAP2 PUSH1 0x20 DUP2 ADD SWAP3 ISZERO ISZERO SWAP1 MSTORE JUMP JUMPDEST SUB SWAP1 LOG3 STOP JUMPDEST PUSH1 0x40 MLOAD PUSH3 0xCED3E1 PUSH1 0xE8 SHL DUP2 MSTORE PUSH1 0x0 PUSH1 0x4 DUP3 ADD MSTORE PUSH1 0x24 SWAP1 REVERT JUMPDEST CALLVALUE PUSH2 0x111 JUMPI PUSH1 0x0 CALLDATASIZE PUSH1 0x3 NOT ADD SLT PUSH2 0x111 JUMPI PUSH1 0x20 PUSH1 0x40 MLOAD PUSH1 0x2 DUP2 MSTORE RETURN JUMPDEST CALLVALUE PUSH2 0x111 JUMPI PUSH1 0x0 CALLDATASIZE PUSH1 0x3 NOT ADD SLT PUSH2 0x111 JUMPI PUSH1 0x20 PUSH1 0x40 MLOAD PUSH1 0x1 DUP2 MSTORE RETURN JUMPDEST CALLVALUE PUSH2 0x111 JUMPI PUSH1 0x40 CALLDATASIZE PUSH1 0x3 NOT ADD SLT PUSH2 0x111 JUMPI PUSH1 0x20 PUSH1 0xFF PUSH2 0x9E4 PUSH2 0x9B3 PUSH2 0xFB JUMP JUMPDEST PUSH2 0x9BB PUSH2 0x116 JUMP JUMPDEST PUSH1 0x1 PUSH1 0x1 PUSH1 0xA0 SHL SUB SWAP2 DUP3 AND PUSH1 0x0 SWAP1 DUP2 MSTORE PUSH1 0x1 DUP7 MSTORE PUSH1 0x40 DUP1 DUP3 KECCAK256 SWAP3 SWAP1 SWAP4 AND DUP2 MSTORE PUSH1 0x20 SWAP2 SWAP1 SWAP2 MSTORE KECCAK256 SWAP1 JUMP JUMPDEST SLOAD AND PUSH1 0x40 MLOAD SWAP1 ISZERO ISZERO DUP2 MSTORE RETURN JUMPDEST CALLVALUE PUSH2 0x111 JUMPI PUSH1 0xA0 CALLDATASIZE PUSH1 0x3 NOT ADD SLT PUSH2 0x111 JUMPI PUSH2 0xA09 PUSH2 0xFB JUMP JUMPDEST PUSH2 0xA11 PUSH2 0x116 JUMP JUMPDEST PUSH1 0x84 CALLDATALOAD PUSH1 0x1 PUSH1 0x1 PUSH1 0x40 SHL SUB DUP2 GT PUSH2 0x111 JUMPI PUSH2 0xA30 SWAP1 CALLDATASIZE SWAP1 PUSH1 0x4 ADD PUSH2 0x5FA JUMP JUMPDEST SWAP1 PUSH1 0x1 PUSH1 0x1 PUSH1 0xA0 SHL SUB DUP4 DUP2 AND SWAP1 CALLER DUP3 EQ ISZERO DUP1 PUSH2 0xAD0 JUMPI JUMPDEST PUSH2 0xAA9 JUMPI DUP3 AND ISZERO PUSH2 0x4BF JUMPI ISZERO PUSH2 0xA91 JUMPI PUSH2 0x4BD SWAP3 PUSH2 0xA89 PUSH1 0x64 CALLDATALOAD PUSH1 0x44 CALLDATALOAD SWAP2 PUSH1 0x40 MLOAD SWAP3 PUSH1 0x1 DUP5 MSTORE PUSH1 0x20 DUP5 ADD MSTORE PUSH1 0x40 DUP4 ADD SWAP2 PUSH1 0x1 DUP4 MSTORE PUSH1 0x60 DUP5 ADD MSTORE PUSH1 0x80 DUP4 ADD PUSH1 0x40 MSTORE JUMP JUMPDEST SWAP3 SWAP1 SWAP2 PUSH2 0xDA1 JUMP JUMPDEST PUSH1 0x40 MLOAD PUSH3 0x6A0D45 PUSH1 0xE2 SHL DUP2 MSTORE PUSH1 0x0 PUSH1 0x4 DUP3 ADD MSTORE PUSH1 0x24 SWAP1 REVERT JUMPDEST PUSH1 0x40 MLOAD PUSH4 0x711BEC91 PUSH1 0xE1 SHL DUP2 MSTORE CALLER PUSH1 0x4 DUP3 ADD MSTORE PUSH1 0x1 PUSH1 0x1 PUSH1 0xA0 SHL SUB DUP7 AND PUSH1 0x24 DUP3 ADD MSTORE PUSH1 0x44 SWAP1 REVERT JUMPDEST POP PUSH1 0x0 DUP3 DUP2 MSTORE PUSH1 0x1 PUSH1 0x20 SWAP1 DUP2 MSTORE PUSH1 0x40 DUP1 DUP4 KECCAK256 CALLER DUP5 MSTORE SWAP1 SWAP2 MSTORE SWAP1 KECCAK256 SLOAD PUSH1 0xFF AND ISZERO PUSH2 0xA47 JUMP JUMPDEST SWAP1 PUSH2 0xB07 PUSH1 0x20 SWAP3 DUP3 DUP2 MLOAD SWAP5 DUP6 SWAP3 ADD PUSH2 0x20D JUMP JUMPDEST ADD SWAP1 JUMP JUMPDEST DUP1 MLOAD DUP3 LT ISZERO PUSH2 0xB1F JUMPI PUSH1 0x20 SWAP2 PUSH1 0x5 SHL ADD ADD SWAP1 JUMP JUMPDEST PUSH4 0x4E487B71 PUSH1 0xE0 SHL PUSH1 0x0 MSTORE PUSH1 0x32 PUSH1 0x4 MSTORE PUSH1 0x24 PUSH1 0x0 REVERT JUMPDEST SWAP2 SWAP1 SWAP2 DUP1 MLOAD DUP4 MLOAD DUP1 DUP3 SUB PUSH2 0xBD2 JUMPI POP POP DUP1 MLOAD SWAP1 PUSH2 0xB6A PUSH2 0xB54 DUP4 PUSH2 0x568 JUMP JUMPDEST SWAP3 PUSH2 0xB62 PUSH1 0x40 MLOAD SWAP5 DUP6 PUSH2 0x547 JUMP JUMPDEST DUP1 DUP5 MSTORE PUSH2 0x568 JUMP JUMPDEST PUSH1 0x20 SWAP2 SWAP1 PUSH1 0x1F NOT ADD CALLDATASIZE DUP5 DUP5 ADD CALLDATACOPY PUSH1 0x0 JUMPDEST DUP2 MLOAD DUP2 LT ISZERO PUSH2 0xBCA JUMPI PUSH1 0x5 DUP2 SWAP1 SHL DUP3 DUP2 ADD DUP5 ADD MLOAD SWAP1 DUP8 ADD DUP5 ADD MLOAD PUSH1 0x0 SWAP1 DUP2 MSTORE PUSH1 0x20 DUP2 DUP2 MSTORE PUSH1 0x40 DUP1 DUP4 KECCAK256 PUSH1 0x1 PUSH1 0x1 PUSH1 0xA0 SHL SUB SWAP1 SWAP5 AND DUP4 MSTORE SWAP3 SWAP1 MSTORE KECCAK256 SLOAD PUSH1 0x1 SWAP2 SWAP1 PUSH2 0xBC3 DUP3 DUP8 PUSH2 0xB0B JUMP JUMPDEST MSTORE ADD PUSH2 0xB7A JUMP JUMPDEST POP SWAP2 SWAP4 POP POP POP JUMP JUMPDEST PUSH1 0x40 MLOAD PUSH4 0x5B059991 PUSH1 0xE0 SHL DUP2 MSTORE PUSH1 0x4 DUP2 ADD SWAP2 SWAP1 SWAP2 MSTORE PUSH1 0x24 DUP2 ADD SWAP2 SWAP1 SWAP2 MSTORE PUSH1 0x44 SWAP1 REVERT JUMPDEST SWAP1 PUSH2 0xBFE DUP3 PUSH2 0x5DF JUMP JUMPDEST PUSH2 0xC0B PUSH1 0x40 MLOAD SWAP2 DUP3 PUSH2 0x547 JUMP JUMPDEST DUP3 DUP2 MSTORE DUP1 SWAP3 PUSH2 0xC1C PUSH1 0x1F NOT SWAP2 PUSH2 0x5DF JUMP JUMPDEST ADD SWAP1 PUSH1 0x20 CALLDATASIZE SWAP2 ADD CALLDATACOPY JUMP JUMPDEST SWAP1 DUP1 MLOAD DUP4 MLOAD SWAP1 DUP2 DUP2 SUB PUSH2 0xBD2 JUMPI POP POP PUSH1 0x0 JUMPDEST DUP2 MLOAD DUP2 LT ISZERO PUSH2 0xCB6 JUMPI PUSH1 0x5 DUP2 SWAP1 SHL DUP3 DUP2 ADD PUSH1 0x20 SWAP1 DUP2 ADD MLOAD SWAP2 DUP7 ADD ADD MLOAD PUSH1 0x1 SWAP3 SWAP2 DUP6 SWAP1 PUSH1 0x1 PUSH1 0x1 PUSH1 0xA0 SHL SUB DUP3 AND PUSH2 0xC72 JUMPI JUMPDEST POP POP POP ADD PUSH2 0xC38 JUMP JUMPDEST PUSH2 0xCAC SWAP2 PUSH2 0xC8D PUSH2 0xCA4 SWAP3 PUSH1 0x0 MSTORE PUSH1 0x0 PUSH1 0x20 MSTORE PUSH1 0x40 PUSH1 0x0 KECCAK256 SWAP1 JUMP JUMPDEST SWAP1 PUSH1 0x1 DUP1 PUSH1 0xA0 SHL SUB AND PUSH1 0x0 MSTORE PUSH1 0x20 MSTORE PUSH1 0x40 PUSH1 0x0 KECCAK256 SWAP1 JUMP JUMPDEST SWAP2 DUP3 SLOAD PUSH2 0xF9A JUMP JUMPDEST SWAP1 SSTORE CODESIZE DUP5 DUP2 PUSH2 0xC69 JUMP JUMPDEST POP DUP1 MLOAD SWAP2 SWAP4 SWAP3 SWAP2 PUSH1 0x1 SUB PUSH2 0xD58 JUMPI PUSH1 0x20 DUP2 DUP2 ADD MLOAD DUP4 DUP3 ADD MLOAD PUSH1 0x40 DUP1 MLOAD SWAP3 DUP4 MSTORE SWAP3 DUP3 ADD MSTORE PUSH1 0x1 PUSH1 0x1 PUSH1 0xA0 SHL SUB DUP7 AND SWAP2 PUSH1 0x0 SWAP2 CALLER SWAP2 PUSH32 0xC3D58168C5AE7397731D063D5BBF3D657854427343F4C083240F7AACAA2D0F62 SWAP2 LOG4 JUMPDEST PUSH1 0x1 PUSH1 0x1 PUSH1 0xA0 SHL SUB DUP5 AND PUSH2 0xD22 JUMPI JUMPDEST POP POP POP POP JUMP JUMPDEST DUP1 MLOAD PUSH1 0x1 SUB PUSH2 0xD49 JUMPI SWAP1 PUSH1 0x20 DUP1 PUSH2 0xD40 SWAP6 SWAP4 ADD MLOAD SWAP2 ADD MLOAD SWAP2 CALLER PUSH2 0x129E JUMP JUMPDEST CODESIZE DUP1 DUP1 DUP1 PUSH2 0xD1C JUMP JUMPDEST PUSH2 0xD53 SWAP4 CALLER PUSH2 0x10A4 JUMP JUMPDEST PUSH2 0xD40 JUMP JUMPDEST PUSH1 0x40 MLOAD PUSH1 0x1 PUSH1 0x1 PUSH1 0xA0 SHL SUB DUP6 AND SWAP1 PUSH1 0x0 SWAP1 CALLER SWAP1 PUSH32 0x4A39DC06D4C0DBC64B70AF90FD698A233A518AA5D07E595D983B8C0526C8F7FB SWAP1 DUP1 PUSH2 0xD99 DUP9 DUP9 DUP4 PUSH2 0xFBD JUMP JUMPDEST SUB SWAP1 LOG4 PUSH2 0xD0D JUMP JUMPDEST SWAP5 SWAP2 SWAP1 SWAP2 DUP2 MLOAD DUP5 MLOAD SWAP1 DUP2 DUP2 SUB PUSH2 0xBD2 JUMPI POP POP PUSH1 0x0 JUMPDEST DUP3 MLOAD DUP2 LT ISZERO PUSH2 0xEA4 JUMPI PUSH1 0x5 DUP2 SWAP1 SHL DUP4 DUP2 ADD PUSH1 0x20 SWAP1 DUP2 ADD MLOAD SWAP2 DUP8 ADD ADD MLOAD PUSH1 0x1 PUSH1 0x1 PUSH1 0xA0 SHL SUB SWAP3 SWAP2 DUP7 SWAP1 DUP11 DUP6 AND PUSH2 0xE1E JUMPI JUMPDEST PUSH1 0x1 SWAP5 DUP3 AND PUSH2 0xDF9 JUMPI JUMPDEST POP POP POP ADD PUSH2 0xDB6 JUMP JUMPDEST PUSH2 0xE14 SWAP2 PUSH2 0xC8D PUSH2 0xCA4 SWAP3 PUSH1 0x0 MSTORE PUSH1 0x0 PUSH1 0x20 MSTORE PUSH1 0x40 PUSH1 0x0 KECCAK256 SWAP1 JUMP JUMPDEST SWAP1 SSTORE CODESIZE DUP6 DUP2 PUSH2 0xDF0 JUMP JUMPDEST SWAP2 SWAP3 SWAP4 SWAP1 POP PUSH2 0xE3B DUP11 PUSH2 0xC8D DUP5 PUSH1 0x0 MSTORE PUSH1 0x0 PUSH1 0x20 MSTORE PUSH1 0x40 PUSH1 0x0 KECCAK256 SWAP1 JUMP JUMPDEST SLOAD DUP4 DUP2 LT PUSH2 0xE6D JUMPI SWAP2 DUP8 SWAP2 DUP5 PUSH1 0x1 SWAP7 SWAP6 SWAP5 SUB PUSH2 0xE65 DUP14 PUSH2 0xC8D DUP6 PUSH1 0x0 MSTORE PUSH1 0x0 PUSH1 0x20 MSTORE PUSH1 0x40 PUSH1 0x0 KECCAK256 SWAP1 JUMP JUMPDEST SSTORE SWAP5 POP PUSH2 0xDE6 JUMP JUMPDEST PUSH1 0x40 MLOAD PUSH4 0x3DEE4C5 PUSH1 0xE0 SHL DUP2 MSTORE PUSH1 0x1 PUSH1 0x1 PUSH1 0xA0 SHL SUB DUP13 AND PUSH1 0x4 DUP3 ADD MSTORE PUSH1 0x24 DUP2 ADD SWAP2 SWAP1 SWAP2 MSTORE PUSH1 0x44 DUP2 ADD DUP5 SWAP1 MSTORE PUSH1 0x64 DUP2 ADD DUP4 SWAP1 MSTORE PUSH1 0x84 SWAP1 REVERT JUMPDEST POP SWAP5 SWAP2 SWAP4 SWAP3 SWAP1 SWAP4 PUSH1 0x1 DUP6 MLOAD EQ PUSH1 0x0 EQ PUSH2 0xF4F JUMPI PUSH1 0x20 DUP6 DUP2 ADD MLOAD DUP4 DUP3 ADD MLOAD PUSH1 0x40 DUP1 MLOAD SWAP3 DUP4 MSTORE SWAP3 DUP3 ADD MSTORE PUSH1 0x1 PUSH1 0x1 PUSH1 0xA0 SHL SUB DUP4 DUP2 AND SWAP3 SWAP1 DUP7 AND SWAP2 CALLER SWAP2 PUSH32 0xC3D58168C5AE7397731D063D5BBF3D657854427343F4C083240F7AACAA2D0F62 SWAP2 LOG4 JUMPDEST PUSH1 0x1 PUSH1 0x1 PUSH1 0xA0 SHL SUB DUP2 AND PUSH2 0xF18 JUMPI JUMPDEST POP POP POP POP POP JUMP JUMPDEST DUP5 MLOAD PUSH1 0x1 SUB PUSH2 0xF3E JUMPI PUSH1 0x20 DUP1 PUSH2 0xF34 SWAP7 ADD MLOAD SWAP3 ADD MLOAD SWAP3 CALLER PUSH2 0x12D3 JUMP JUMPDEST CODESIZE DUP1 DUP1 DUP1 DUP1 PUSH2 0xF11 JUMP JUMPDEST PUSH2 0xF4A SWAP5 SWAP2 SWAP3 CALLER PUSH2 0x119F JUMP JUMPDEST PUSH2 0xF34 JUMP JUMPDEST PUSH1 0x40 MLOAD PUSH1 0x1 PUSH1 0x1 PUSH1 0xA0 SHL SUB DUP3 DUP2 AND SWAP2 SWAP1 DUP6 AND SWAP1 CALLER SWAP1 PUSH32 0x4A39DC06D4C0DBC64B70AF90FD698A233A518AA5D07E595D983B8C0526C8F7FB SWAP1 DUP1 PUSH2 0xF92 DUP9 DUP13 DUP4 PUSH2 0xFBD JUMP JUMPDEST SUB SWAP1 LOG4 PUSH2 0xF02 JUMP JUMPDEST SWAP2 SWAP1 DUP3 ADD DUP1 SWAP3 GT PUSH2 0xFA7 JUMPI JUMP JUMPDEST PUSH4 0x4E487B71 PUSH1 0xE0 SHL PUSH1 0x0 MSTORE PUSH1 0x11 PUSH1 0x4 MSTORE PUSH1 0x24 PUSH1 0x0 REVERT JUMPDEST SWAP1 SWAP2 PUSH2 0xFD4 PUSH2 0x266 SWAP4 PUSH1 0x40 DUP5 MSTORE PUSH1 0x40 DUP5 ADD SWAP1 PUSH2 0x783 JUMP JUMPDEST SWAP2 PUSH1 0x20 DUP2 DUP5 SUB SWAP2 ADD MSTORE PUSH2 0x783 JUMP JUMPDEST SWAP1 DUP2 PUSH1 0x20 SWAP2 SUB SLT PUSH2 0x111 JUMPI MLOAD PUSH2 0x266 DUP2 PUSH2 0x18D JUMP JUMPDEST SWAP3 PUSH2 0x1026 PUSH2 0x266 SWAP6 SWAP4 PUSH2 0x1034 SWAP4 PUSH1 0x1 DUP1 PUSH1 0xA0 SHL SUB AND DUP7 MSTORE PUSH1 0x0 PUSH1 0x20 DUP8 ADD MSTORE PUSH1 0xA0 PUSH1 0x40 DUP8 ADD MSTORE PUSH1 0xA0 DUP7 ADD SWAP1 PUSH2 0x783 JUMP JUMPDEST SWAP1 DUP5 DUP3 SUB PUSH1 0x60 DUP7 ADD MSTORE PUSH2 0x783 JUMP JUMPDEST SWAP2 PUSH1 0x80 DUP2 DUP5 SUB SWAP2 ADD MSTORE PUSH2 0x230 JUMP JUMPDEST SWAP4 SWAP1 PUSH2 0x266 SWAP6 SWAP4 PUSH2 0x1026 SWAP2 PUSH2 0x1034 SWAP5 PUSH1 0x1 DUP1 PUSH1 0xA0 SHL SUB DUP1 SWAP3 AND DUP9 MSTORE AND PUSH1 0x20 DUP8 ADD MSTORE PUSH1 0xA0 PUSH1 0x40 DUP8 ADD MSTORE PUSH1 0xA0 DUP7 ADD SWAP1 PUSH2 0x783 JUMP JUMPDEST RETURNDATASIZE ISZERO PUSH2 0x109F JUMPI RETURNDATASIZE SWAP1 PUSH2 0x1085 DUP3 PUSH2 0x5DF JUMP JUMPDEST SWAP2 PUSH2 0x1093 PUSH1 0x40 MLOAD SWAP4 DUP5 PUSH2 0x547 JUMP JUMPDEST DUP3 MSTORE RETURNDATASIZE PUSH1 0x0 PUSH1 0x20 DUP5 ADD RETURNDATACOPY JUMP JUMPDEST PUSH1 0x60 SWAP1 JUMP JUMPDEST SWAP3 SWAP4 SWAP2 SWAP1 SWAP4 DUP5 EXTCODESIZE PUSH2 0x10B6 JUMPI POP POP POP POP POP JUMP JUMPDEST PUSH1 0x20 SWAP2 PUSH2 0x10D9 PUSH1 0x40 MLOAD SWAP5 DUP6 SWAP4 DUP5 SWAP4 PUSH4 0xBC197C81 PUSH1 0xE0 SHL SWAP9 DUP10 DUP7 MSTORE PUSH1 0x4 DUP7 ADD PUSH2 0xFF7 JUMP JUMPDEST SUB DUP2 PUSH1 0x0 PUSH1 0x1 PUSH1 0x1 PUSH1 0xA0 SHL SUB DUP9 AND GAS CALL PUSH1 0x0 SWAP2 DUP2 PUSH2 0x116E JUMPI JUMPDEST POP PUSH2 0x1131 JUMPI DUP3 PUSH2 0x1100 PUSH2 0x1074 JUMP JUMPDEST DUP1 MLOAD SWAP2 SWAP1 DUP3 PUSH2 0x112A JUMPI PUSH1 0x40 MLOAD PUSH4 0x2BFA23E7 PUSH1 0xE1 SHL DUP2 MSTORE PUSH1 0x1 PUSH1 0x1 PUSH1 0xA0 SHL SUB DUP4 AND PUSH1 0x4 DUP3 ADD MSTORE PUSH1 0x24 SWAP1 REVERT JUMPDEST SWAP1 POP PUSH1 0x20 ADD REVERT JUMPDEST PUSH1 0x1 PUSH1 0x1 PUSH1 0xE0 SHL SUB NOT AND SUB PUSH2 0x114B JUMPI POP CODESIZE DUP1 DUP1 DUP1 DUP1 PUSH2 0xF11 JUMP JUMPDEST PUSH1 0x40 MLOAD PUSH4 0x2BFA23E7 PUSH1 0xE1 SHL DUP2 MSTORE PUSH1 0x1 PUSH1 0x1 PUSH1 0xA0 SHL SUB SWAP2 SWAP1 SWAP2 AND PUSH1 0x4 DUP3 ADD MSTORE PUSH1 0x24 SWAP1 REVERT JUMPDEST PUSH2 0x1191 SWAP2 SWAP3 POP PUSH1 0x20 RETURNDATASIZE PUSH1 0x20 GT PUSH2 0x1198 JUMPI JUMPDEST PUSH2 0x1189 DUP2 DUP4 PUSH2 0x547 JUMP JUMPDEST DUP2 ADD SWAP1 PUSH2 0xFE2 JUMP JUMPDEST SWAP1 CODESIZE PUSH2 0x10F2 JUMP JUMPDEST POP RETURNDATASIZE PUSH2 0x117F JUMP JUMPDEST SWAP4 SWAP3 SWAP1 SWAP5 SWAP2 SWAP5 DUP6 EXTCODESIZE PUSH2 0x11B4 JUMPI JUMPDEST POP POP POP POP POP POP JUMP JUMPDEST PUSH2 0x11D7 PUSH1 0x20 SWAP4 PUSH1 0x40 MLOAD SWAP6 DUP7 SWAP5 DUP6 SWAP5 PUSH4 0xBC197C81 PUSH1 0xE0 SHL SWAP10 DUP11 DUP8 MSTORE PUSH1 0x4 DUP8 ADD PUSH2 0x1042 JUMP JUMPDEST SUB DUP2 PUSH1 0x0 PUSH1 0x1 PUSH1 0x1 PUSH1 0xA0 SHL SUB DUP9 AND GAS CALL PUSH1 0x0 SWAP2 DUP2 PUSH2 0x1219 JUMPI JUMPDEST POP PUSH2 0x11FE JUMPI DUP3 PUSH2 0x1100 PUSH2 0x1074 JUMP JUMPDEST PUSH1 0x1 PUSH1 0x1 PUSH1 0xE0 SHL SUB NOT AND SUB PUSH2 0x114B JUMPI POP CODESIZE DUP1 DUP1 DUP1 DUP1 DUP1 PUSH2 0x11AC JUMP JUMPDEST PUSH2 0x1233 SWAP2 SWAP3 POP PUSH1 0x20 RETURNDATASIZE PUSH1 0x20 GT PUSH2 0x1198 JUMPI PUSH2 0x1189 DUP2 DUP4 PUSH2 0x547 JUMP JUMPDEST SWAP1 CODESIZE PUSH2 0x11F0 JUMP JUMPDEST SWAP1 SWAP3 PUSH1 0xA0 SWAP3 PUSH2 0x266 SWAP6 SWAP5 PUSH1 0x1 DUP1 DUP7 SHL SUB AND DUP4 MSTORE PUSH1 0x0 PUSH1 0x20 DUP5 ADD MSTORE PUSH1 0x40 DUP4 ADD MSTORE PUSH1 0x60 DUP3 ADD MSTORE DUP2 PUSH1 0x80 DUP3 ADD MSTORE ADD SWAP1 PUSH2 0x230 JUMP JUMPDEST SWAP2 SWAP3 PUSH2 0x266 SWAP6 SWAP5 SWAP2 PUSH1 0xA0 SWAP5 PUSH1 0x1 DUP1 DUP8 SHL SUB DUP1 SWAP3 AND DUP6 MSTORE AND PUSH1 0x20 DUP5 ADD MSTORE PUSH1 0x40 DUP4 ADD MSTORE PUSH1 0x60 DUP3 ADD MSTORE DUP2 PUSH1 0x80 DUP3 ADD MSTORE ADD SWAP1 PUSH2 0x230 JUMP JUMPDEST SWAP3 SWAP4 SWAP2 SWAP1 SWAP4 DUP5 EXTCODESIZE PUSH2 0x12B0 JUMPI POP POP POP POP POP JUMP JUMPDEST PUSH1 0x20 SWAP2 PUSH2 0x10D9 PUSH1 0x40 MLOAD SWAP5 DUP6 SWAP4 DUP5 SWAP4 PUSH4 0xF23A6E61 PUSH1 0xE0 SHL SWAP9 DUP10 DUP7 MSTORE PUSH1 0x4 DUP7 ADD PUSH2 0x123A JUMP JUMPDEST SWAP4 SWAP3 SWAP1 SWAP5 SWAP2 SWAP5 DUP6 EXTCODESIZE PUSH2 0x12E7 JUMPI POP POP POP POP POP POP JUMP JUMPDEST PUSH2 0x11D7 PUSH1 0x20 SWAP4 PUSH1 0x40 MLOAD SWAP6 DUP7 SWAP5 DUP6 SWAP5 PUSH4 0xF23A6E61 PUSH1 0xE0 SHL SWAP10 DUP11 DUP8 MSTORE PUSH1 0x4 DUP8 ADD PUSH2 0x126B JUMP INVALID LOG2 PUSH5 0x6970667358 0x22 SLT KECCAK256 0xBC ADDRESS 0xC0 0xC7 SLOAD 0x1E PUSH21 0xDBA6F609C6460E768EABEF6F5A037D567B00F55D84 0xF8 DUP9 PUSH27 0x8764736F6C63430008180033C3D58168C5AE7397731D063D5BBF3D PUSH6 0x7854427343F4 0xC0 DUP4 0x24 0xF PUSH27 0xACAA2D0F62405787FA12A823E0F2B7631CC41B3BA8828B3321CA81 GT GT STATICCALL PUSH22 0xCD3AA3BB5ACE00000000000000000000000000000000 "
        },
        "methodIdentifiers": {
          "GOLD()": "3e4bee38",
          "SHIELD()": "5b2725ed",
          "SILVER()": "e3e55f08",
          "SWORD()": "13dc989f",
          "THORS_HAMMER()": "d562e204",
          "balanceOf(address,uint256)": "00fdd58e",
          "balanceOfBatch(address[],uint256[])": "4e1273f4",
          "isApprovedForAll(address,address)": "e985e9c5",
          "mint(address,uint256,uint256)": "156e29f6",
          "safeBatchTransferFrom(address,address,uint256[],uint256[],bytes)": "2eb2c2d6",
          "safeTransferFrom(address,address,uint256,uint256,bytes)": "f242432a",
          "setApprovalForAll(address,bool)": "a22cb465",
          "supportsInterface(bytes4)": "01ffc9a7",
          "uri(uint256)": "0e89341c"
        }
      }
    }
  }
}