{
  "contracts/Market.sol": {
    "Market": {
      "abi": [
        {
          "inputs": [
            {
              "internalType": "address",
              "name": "owner",
              "type": "address"
            }
          ],
          "name": "OwnableInvalidOwner",
          "type": "error"
        },
        {
          "inputs": [
            {
              "internalType": "address",
              "name": "account",
              "type": "address"
            }
          ],
          "name": "OwnableUnauthorizedAccount",
          "type": "error"
        },
        {
          "anonymous": false,
          "inputs": [
            {
              "indexed": false,
              "internalType": "uint256",
              "name": "orderId",
              "type": "uint256"
            },
            {
              "indexed": false,
              "internalType": "address",
              "name": "buyer",
              "type": "address"
            },
            {
              "indexed": false,
              "internalType": "uint256",
              "name": "tokenId",
              "type": "uint256"
            },
            {
              "indexed": false,
              "internalType": "uint256",
              "name": "price",
              "type": "uint256"
            }
          ],
          "name": "Buy",
          "type": "event"
        },
        {
          "anonymous": false,
          "inputs": [
            {
              "indexed": false,
              "internalType": "uint256",
              "name": "orderId",
              "type": "uint256"
            },
            {
              "indexed": false,
              "internalType": "address",
              "name": "creator",
              "type": "address"
            },
            {
              "indexed": false,
              "internalType": "uint256",
              "name": "price",
              "type": "uint256"
            },
            {
              "indexed": false,
              "internalType": "address",
              "name": "nft",
              "type": "address"
            },
            {
              "indexed": false,
              "internalType": "uint256",
              "name": "tokenId",
              "type": "uint256"
            }
          ],
          "name": "OrderCreated",
          "type": "event"
        },
        {
          "anonymous": false,
          "inputs": [
            {
              "indexed": true,
              "internalType": "address",
              "name": "previousOwner",
              "type": "address"
            },
            {
              "indexed": true,
              "internalType": "address",
              "name": "newOwner",
              "type": "address"
            }
          ],
          "name": "OwnershipTransferred",
          "type": "event"
        },
        {
          "anonymous": false,
          "inputs": [
            {
              "indexed": false,
              "internalType": "uint256",
              "name": "proposeId",
              "type": "uint256"
            },
            {
              "indexed": false,
              "internalType": "address",
              "name": "proposer",
              "type": "address"
            },
            {
              "indexed": false,
              "internalType": "uint256",
              "name": "proposedPrice",
              "type": "uint256"
            },
            {
              "indexed": false,
              "internalType": "address",
              "name": "nft",
              "type": "address"
            },
            {
              "indexed": false,
              "internalType": "uint256",
              "name": "tokenId",
              "type": "uint256"
            },
            {
              "indexed": false,
              "internalType": "address",
              "name": "nftOwner",
              "type": "address"
            },
            {
              "indexed": false,
              "internalType": "uint256",
              "name": "orderId",
              "type": "uint256"
            }
          ],
          "name": "ProposalCanceled",
          "type": "event"
        },
        {
          "anonymous": false,
          "inputs": [
            {
              "indexed": false,
              "internalType": "uint256",
              "name": "proposeId",
              "type": "uint256"
            },
            {
              "indexed": false,
              "internalType": "address",
              "name": "proposer",
              "type": "address"
            },
            {
              "indexed": false,
              "internalType": "uint256",
              "name": "proposedPrice",
              "type": "uint256"
            },
            {
              "indexed": false,
              "internalType": "address",
              "name": "nft",
              "type": "address"
            },
            {
              "indexed": false,
              "internalType": "uint256",
              "name": "tokenId",
              "type": "uint256"
            },
            {
              "indexed": false,
              "internalType": "address",
              "name": "nftOwner",
              "type": "address"
            },
            {
              "indexed": false,
              "internalType": "uint256",
              "name": "orderId",
              "type": "uint256"
            }
          ],
          "name": "ProposalCreated",
          "type": "event"
        },
        {
          "anonymous": false,
          "inputs": [
            {
              "indexed": false,
              "internalType": "uint256",
              "name": "proposeId",
              "type": "uint256"
            },
            {
              "indexed": false,
              "internalType": "address",
              "name": "proposer",
              "type": "address"
            },
            {
              "indexed": false,
              "internalType": "uint256",
              "name": "proposedPrice",
              "type": "uint256"
            },
            {
              "indexed": false,
              "internalType": "address",
              "name": "nft",
              "type": "address"
            },
            {
              "indexed": false,
              "internalType": "uint256",
              "name": "tokenId",
              "type": "uint256"
            },
            {
              "indexed": false,
              "internalType": "address",
              "name": "nftOwner",
              "type": "address"
            },
            {
              "indexed": false,
              "internalType": "uint256",
              "name": "orderId",
              "type": "uint256"
            }
          ],
          "name": "ProposalSelected",
          "type": "event"
        },
        {
          "stateMutability": "payable",
          "type": "fallback"
        },
        {
          "inputs": [
            {
              "internalType": "uint256",
              "name": "orderId",
              "type": "uint256"
            }
          ],
          "name": "buy",
          "outputs": [],
          "stateMutability": "payable",
          "type": "function"
        },
        {
          "inputs": [
            {
              "internalType": "uint256",
              "name": "proposalId",
              "type": "uint256"
            }
          ],
          "name": "cancelProposal",
          "outputs": [],
          "stateMutability": "nonpayable",
          "type": "function"
        },
        {
          "inputs": [
            {
              "internalType": "uint256",
              "name": "orderId",
              "type": "uint256"
            },
            {
              "internalType": "uint256",
              "name": "proposedPrice",
              "type": "uint256"
            }
          ],
          "name": "createProposal",
          "outputs": [],
          "stateMutability": "payable",
          "type": "function"
        },
        {
          "inputs": [
            {
              "internalType": "address",
              "name": "nftAddress",
              "type": "address"
            },
            {
              "internalType": "uint256",
              "name": "tokenId",
              "type": "uint256"
            },
            {
              "internalType": "uint256",
              "name": "price",
              "type": "uint256"
            }
          ],
          "name": "createSellOrder",
          "outputs": [],
          "stateMutability": "payable",
          "type": "function"
        },
        {
          "inputs": [],
          "name": "fee",
          "outputs": [
            {
              "internalType": "uint256",
              "name": "",
              "type": "uint256"
            }
          ],
          "stateMutability": "view",
          "type": "function"
        },
        {
          "inputs": [
            {
              "internalType": "address",
              "name": "nftAddress",
              "type": "address"
            },
            {
              "internalType": "uint256",
              "name": "tokenId",
              "type": "uint256"
            },
            {
              "internalType": "uint256",
              "name": "price",
              "type": "uint256"
            },
            {
              "internalType": "address",
              "name": "sender",
              "type": "address"
            }
          ],
          "name": "generateId",
          "outputs": [
            {
              "internalType": "uint256",
              "name": "id",
              "type": "uint256"
            }
          ],
          "stateMutability": "pure",
          "type": "function"
        },
        {
          "inputs": [
            {
              "internalType": "uint256",
              "name": "orderId",
              "type": "uint256"
            }
          ],
          "name": "orders",
          "outputs": [
            {
              "internalType": "uint256",
              "name": "id",
              "type": "uint256"
            },
            {
              "internalType": "address",
              "name": "creator",
              "type": "address"
            },
            {
              "internalType": "address",
              "name": "nft",
              "type": "address"
            },
            {
              "internalType": "uint256",
              "name": "tokenId",
              "type": "uint256"
            },
            {
              "internalType": "uint256",
              "name": "price",
              "type": "uint256"
            }
          ],
          "stateMutability": "view",
          "type": "function"
        },
        {
          "inputs": [],
          "name": "owner",
          "outputs": [
            {
              "internalType": "address",
              "name": "",
              "type": "address"
            }
          ],
          "stateMutability": "view",
          "type": "function"
        },
        {
          "inputs": [
            {
              "internalType": "uint256",
              "name": "proposalId",
              "type": "uint256"
            }
          ],
          "name": "proposals",
          "outputs": [
            {
              "internalType": "uint256",
              "name": "id",
              "type": "uint256"
            },
            {
              "internalType": "address",
              "name": "nft",
              "type": "address"
            },
            {
              "internalType": "uint256",
              "name": "tokenId",
              "type": "uint256"
            },
            {
              "internalType": "address",
              "name": "nftOwner",
              "type": "address"
            },
            {
              "internalType": "address",
              "name": "proposer",
              "type": "address"
            },
            {
              "internalType": "uint256",
              "name": "proposedPrice",
              "type": "uint256"
            },
            {
              "internalType": "uint256",
              "name": "orderId",
              "type": "uint256"
            }
          ],
          "stateMutability": "view",
          "type": "function"
        },
        {
          "inputs": [],
          "name": "renounceOwnership",
          "outputs": [],
          "stateMutability": "nonpayable",
          "type": "function"
        },
        {
          "inputs": [
            {
              "internalType": "uint256",
              "name": "proposalId",
              "type": "uint256"
            }
          ],
          "name": "selectProposer",
          "outputs": [],
          "stateMutability": "nonpayable",
          "type": "function"
        },
        {
          "inputs": [
            {
              "internalType": "address",
              "name": "newOwner",
              "type": "address"
            }
          ],
          "name": "transferOwnership",
          "outputs": [],
          "stateMutability": "nonpayable",
          "type": "function"
        },
        {
          "stateMutability": "payable",
          "type": "receive"
        }
      ],
      "evm": {
        "bytecode": {
          "linkReferences": {},
          "object": "6080806040523461007e5733156100685760008054336001600160a01b03198216811783556040519290916001600160a01b0316907f8be0079c531659141344cd1fd0a4f28419497f9722a3daafe3b4186f6b6457e09080a360018055610fa590816100848239f35b631e4fbdf760e01b815260006004820152602490fd5b600080fdfe608080604052600436101561001a575b50361561001857005b005b600090813560e01c908163013cf08b14610d175750806304e9e17a14610ae35780636935bda6146108a4578063715018a61461084a57806386a5017c1461063d5780638da5cb5b146106165780639ba1ad19146105c7578063a85c38ef14610566578063d96a094a14610364578063ddca3f4314610346578063e0a8f6f5146101315763f2fde38b0361000f573461012e57602036600319011261012e576100c0610d8d565b6100c8610f43565b6001600160a01b03908116908115610115576000548260018060a01b0319821617600055167f8be0079c531659141344cd1fd0a4f28419497f9722a3daafe3b4186f6b6457e0600080a380f35b604051631e4fbdf760e01b815260048101849052602490fd5b80fd5b503461012e57602036600319011261012e57600435815260036020526101b96040822060405161016081610dfe565b8154815260018201546001600160a01b0390811660208301526002830154604083015260038301548116606083015260048301541660808201819052600583015460a083015260069092015460c0909101521515610eb0565b6004358152600360205260408120604051906101d482610dfe565b8054825260018101546001600160a01b0390811660208401526002820154604084015260038201548116606084015260048201541660808301819052600582015460a0840190815260069092015460c0840152330361030a575160018060a01b03608083015116606461024960015484610da3565b049260018060a01b03602082015116906040810151948680808060c086015195606060018060a01b03910151169460043582526003602052816006604082208281558260018201558260028201558260038201558260048201558260058201550155818115610301575b3390f1156102f6577f3cb1bb21d4247cd586bdda29c5179969ee1107cd09bf4e04c5cb2fbe8a0be050956102f09360405196879660043588610e74565b0390a180f35b6040513d88823e3d90fd5b506108fc6102b3565b60405162461bcd60e51b81526020600482015260146024820152732cb7ba9030b932903737ba10383937b837b9b2b960611b6044820152606490fd5b503461012e578060031936011261012e576020600154604051908152f35b506020806003193601126105625760043590818352600291828252608060408520936103d36040519561039687610dcc565b8054875260018060a01b03968460048960018501541693848a8501528a878201541660408501526003810154606085015201549101521515610e2e565b82865280845260408620604051956103ea87610dcc565b81548752806001830154169686810197885281848401541690604081019182526004600385015494606083019586520154958691015284341061052d579080899493925116915197511691813b15610529576040516323b872dd60e01b81526001600160a01b0384166004820152336024820152604481018990529184908390606490829084905af19081156104f8578492869261050c575b5090829383600481948a8352808c528260408120918183558160018401558201558260038201550155828215610503575bf1156104f8577fcc93b0018cb6ae09600353141c5e6471ae473f39200cfe34a3f588895176c28c93608093604051938452339084015260408301526060820152a180f35b6040513d86823e3d90fd5b506108fc6104b4565b61051891939250610e1a565b6105255783839138610483565b8280fd5b8380fd5b60405162461bcd60e51b815260048101889052600d60248201526c4c61636b206f66206d6f6e657960981b6044820152606490fd5b5080fd5b503461012e57602036600319011261012e57604060a0916004358152600260205220805490600180841b0390816001820154169160028201541660046003830154920154926040519485526020850152604084015260608301526080820152f35b503461012e57608036600319011261012e576105e1610d8d565b606435906001600160a01b038216820361061157602091610609916044359060243590610efc565b604051908152f35b600080fd5b503461012e578060031936011261012e57546040516001600160a01b039091168152602090f35b503461012e5760208060031936011261056257600435908183526003815260408320916106c56040519361067085610dfe565b8054855260018060a01b039485600183015416858201526002820154604082015285600383015416606082015260c060068760048501541693846080850152600581015460a085015201549101521515610eb0565b808452600382526040842091604051906106de82610dfe565b8354825284600185015416818301908152600285015495604084019687528060038701541691606085019383855282600489015416936080870194855260c0600660058b01549a60a08a019b8c520154970196875233036108125750818091511697519451935116915116945192863b1561080e576040516323b872dd60e01b81523360048201526001600160a01b0387166024820152604481018290528881606481838c5af18015610803576107f0575b5087808580156107e6575b8280929181923390f1156107db577f1f66d68942ef54cede3d546cfd01feb5422bc9fe0e4f86398853940b20bb537f966102f09460405197889788610e74565b6040513d89823e3d90fd5b6108fc915061079b565b6107fc90989198610e1a565b9638610790565b6040513d8b823e3d90fd5b8780fd5b6064906040519062461bcd60e51b8252600482015260116024820152702cb7ba9030b932903737ba1037bbb732b960791b6044820152fd5b503461012e578060031936011261012e57610863610f43565b80546001600160a01b03198116825581906001600160a01b03167f8be0079c531659141344cd1fd0a4f28419497f9722a3daafe3b4186f6b6457e08280a380f35b50604036600319011261012e57600435906024358282526020926002845260408320610915604051916108d683610dcc565b8054835260018060a01b0392608060048560018501541693848b8501528660028201541660408501526003810154606085015201549101521515610e2e565b823410610aa257818452600285526040842060405161093381610dcc565b815481528260018301541692838883015285608082600286015416938460408201526004600387015496876060840152015491829101521115610a4b5791818798600687897f5f85e628b24cc1177b1c1fe0d398ad8df0df2c711e3056f020a957618fab3e8b9b899760409b996102f09b896109b133878387610efc565b9e8f95600382519b8c986109c48a610dfe565b808a52818a01988952848a0195865260608a0196875260c060808b019a338c5260a081019c8d52019b8c5283525220985189558260018a019451169360018060a01b03199485825416179055516002890155816003890191511683825416179055600487019251169082541617905551600584015551910155604051968796339088610e74565b60405162461bcd60e51b815260048101899052602960248201527f596f752063616e20656173696c792062757920746f6b656e20776974686f7574604482015268081c1c9bdc1bdcd85b60ba1b6064820152608490fd5b60405162461bcd60e51b81526004810186905260196024820152780b2deea40c8d2c8dce840e6cadce840cadcdeeaced0408aa89603b1b6044820152606490fd5b50606036600319011261012e57610af8610d8d565b602435604435916064610b0d60015485610da3565b043410610cd2576040516331a9108f60e11b8152600481018390526001600160a01b0393828516929091602091908281602481885afa8015610cc75787918991610c62575b50163303610c1d57917f01eb91f5dcefe786687093f16ff50592c3375c92c1678a2001576ed7b6600014959391610b8f86948360a0983392610efc565b9460048960405192610ba084610dcc565b888452848401338152604085019088825260608601928a8452604060808801958a87528d815260028a5220965187558060018801925116916001808f1b031992838254161790556002870192511690825416179055516003840155519101556040519485523390850152604084015260608301526080820152a180f35b60405162461bcd60e51b815260048101839052601c60248201527f596f7520617265206e6f74206f776e6572206f6620746865206e6674000000006044820152606490fd5b915050823d8411610cc0575b601f8101601f1916820167ffffffffffffffff811183821017610cac57849183916040528101031261080e5751868116810361080e57869038610b52565b634e487b7160e01b8a52604160045260248afd5b503d610c6e565b6040513d8a823e3d90fd5b60405162461bcd60e51b815260206004820152601c60248201527f596f75206d757374207061792066656520746f2073656c6c206e6674000000006044820152606490fd5b90503461056257602036600319011261056257604060e092600435815260036020522080549060018060a01b038060018301541690600283015481600385015416916004850154169260066005860154950154958752602087015260408601526060850152608084015260a083015260c0820152f35b600435906001600160a01b038216820361061157565b81810292918115918404141715610db657565b634e487b7160e01b600052601160045260246000fd5b60a0810190811067ffffffffffffffff821117610de857604052565b634e487b7160e01b600052604160045260246000fd5b60e0810190811067ffffffffffffffff821117610de857604052565b67ffffffffffffffff8111610de857604052565b15610e3557565b60405162461bcd60e51b8152602060048201526017602482015276151a1a5cc81bdc99195c88191bd95cdb9d08195e1a5cdd604a1b6044820152606490fd5b939160c095919897969260e0860199865260018060a01b0394858093166020880152604087015216606085015260808401521660a08201520152565b15610eb757565b60405162461bcd60e51b815260206004820152601a60248201527f546869732070726f706f73616c20646f65736e742065786973740000000000006044820152606490fd5b90926040519260208401946bffffffffffffffffffffffff19809460601b1686526034850152605484015260601b16607482015260688152610f3d81610dcc565b51902090565b6000546001600160a01b03163303610f5757565b60405163118cdaa760e01b8152336004820152602490fdfea2646970667358221220306cc7f2327b87465e673b5bd00940e89e5da5c8b4b33d294261e7fb555ea13864736f6c63430008180033",
          "opcodes": "PUSH1 0x80 DUP1 PUSH1 0x40 MSTORE CALLVALUE PUSH2 0x7E JUMPI CALLER ISZERO PUSH2 0x68 JUMPI PUSH1 0x0 DUP1 SLOAD CALLER PUSH1 0x1 PUSH1 0x1 PUSH1 0xA0 SHL SUB NOT DUP3 AND DUP2 OR DUP4 SSTORE PUSH1 0x40 MLOAD SWAP3 SWAP1 SWAP2 PUSH1 0x1 PUSH1 0x1 PUSH1 0xA0 SHL SUB AND SWAP1 PUSH32 0x8BE0079C531659141344CD1FD0A4F28419497F9722A3DAAFE3B4186F6B6457E0 SWAP1 DUP1 LOG3 PUSH1 0x1 DUP1 SSTORE PUSH2 0xFA5 SWAP1 DUP2 PUSH2 0x84 DUP3 CODECOPY RETURN JUMPDEST PUSH4 0x1E4FBDF7 PUSH1 0xE0 SHL DUP2 MSTORE PUSH1 0x0 PUSH1 0x4 DUP3 ADD MSTORE PUSH1 0x24 SWAP1 REVERT JUMPDEST PUSH1 0x0 DUP1 REVERT INVALID PUSH1 0x80 DUP1 PUSH1 0x40 MSTORE PUSH1 0x4 CALLDATASIZE LT ISZERO PUSH2 0x1A JUMPI JUMPDEST POP CALLDATASIZE ISZERO PUSH2 0x18 JUMPI STOP JUMPDEST STOP JUMPDEST PUSH1 0x0 SWAP1 DUP2 CALLDATALOAD PUSH1 0xE0 SHR SWAP1 DUP2 PUSH4 0x13CF08B EQ PUSH2 0xD17 JUMPI POP DUP1 PUSH4 0x4E9E17A EQ PUSH2 0xAE3 JUMPI DUP1 PUSH4 0x6935BDA6 EQ PUSH2 0x8A4 JUMPI DUP1 PUSH4 0x715018A6 EQ PUSH2 0x84A JUMPI DUP1 PUSH4 0x86A5017C EQ PUSH2 0x63D JUMPI DUP1 PUSH4 0x8DA5CB5B EQ PUSH2 0x616 JUMPI DUP1 PUSH4 0x9BA1AD19 EQ PUSH2 0x5C7 JUMPI DUP1 PUSH4 0xA85C38EF EQ PUSH2 0x566 JUMPI DUP1 PUSH4 0xD96A094A EQ PUSH2 0x364 JUMPI DUP1 PUSH4 0xDDCA3F43 EQ PUSH2 0x346 JUMPI DUP1 PUSH4 0xE0A8F6F5 EQ PUSH2 0x131 JUMPI PUSH4 0xF2FDE38B SUB PUSH2 0xF JUMPI CALLVALUE PUSH2 0x12E JUMPI PUSH1 0x20 CALLDATASIZE PUSH1 0x3 NOT ADD SLT PUSH2 0x12E JUMPI PUSH2 0xC0 PUSH2 0xD8D JUMP JUMPDEST PUSH2 0xC8 PUSH2 0xF43 JUMP JUMPDEST PUSH1 0x1 PUSH1 0x1 PUSH1 0xA0 SHL SUB SWAP1 DUP2 AND SWAP1 DUP2 ISZERO PUSH2 0x115 JUMPI PUSH1 0x0 SLOAD DUP3 PUSH1 0x1 DUP1 PUSH1 0xA0 SHL SUB NOT DUP3 AND OR PUSH1 0x0 SSTORE AND PUSH32 0x8BE0079C531659141344CD1FD0A4F28419497F9722A3DAAFE3B4186F6B6457E0 PUSH1 0x0 DUP1 LOG3 DUP1 RETURN JUMPDEST PUSH1 0x40 MLOAD PUSH4 0x1E4FBDF7 PUSH1 0xE0 SHL DUP2 MSTORE PUSH1 0x4 DUP2 ADD DUP5 SWAP1 MSTORE PUSH1 0x24 SWAP1 REVERT JUMPDEST DUP1 REVERT JUMPDEST POP CALLVALUE PUSH2 0x12E JUMPI PUSH1 0x20 CALLDATASIZE PUSH1 0x3 NOT ADD SLT PUSH2 0x12E JUMPI PUSH1 0x4 CALLDATALOAD DUP2 MSTORE PUSH1 0x3 PUSH1 0x20 MSTORE PUSH2 0x1B9 PUSH1 0x40 DUP3 KECCAK256 PUSH1 0x40 MLOAD PUSH2 0x160 DUP2 PUSH2 0xDFE JUMP JUMPDEST DUP2 SLOAD DUP2 MSTORE PUSH1 0x1 DUP3 ADD SLOAD PUSH1 0x1 PUSH1 0x1 PUSH1 0xA0 SHL SUB SWAP1 DUP2 AND PUSH1 0x20 DUP4 ADD MSTORE PUSH1 0x2 DUP4 ADD SLOAD PUSH1 0x40 DUP4 ADD MSTORE PUSH1 0x3 DUP4 ADD SLOAD DUP2 AND PUSH1 0x60 DUP4 ADD MSTORE PUSH1 0x4 DUP4 ADD SLOAD AND PUSH1 0x80 DUP3 ADD DUP2 SWAP1 MSTORE PUSH1 0x5 DUP4 ADD SLOAD PUSH1 0xA0 DUP4 ADD MSTORE PUSH1 0x6 SWAP1 SWAP3 ADD SLOAD PUSH1 0xC0 SWAP1 SWAP2 ADD MSTORE ISZERO ISZERO PUSH2 0xEB0 JUMP JUMPDEST PUSH1 0x4 CALLDATALOAD DUP2 MSTORE PUSH1 0x3 PUSH1 0x20 MSTORE PUSH1 0x40 DUP2 KECCAK256 PUSH1 0x40 MLOAD SWAP1 PUSH2 0x1D4 DUP3 PUSH2 0xDFE JUMP JUMPDEST DUP1 SLOAD DUP3 MSTORE PUSH1 0x1 DUP2 ADD SLOAD PUSH1 0x1 PUSH1 0x1 PUSH1 0xA0 SHL SUB SWAP1 DUP2 AND PUSH1 0x20 DUP5 ADD MSTORE PUSH1 0x2 DUP3 ADD SLOAD PUSH1 0x40 DUP5 ADD MSTORE PUSH1 0x3 DUP3 ADD SLOAD DUP2 AND PUSH1 0x60 DUP5 ADD MSTORE PUSH1 0x4 DUP3 ADD SLOAD AND PUSH1 0x80 DUP4 ADD DUP2 SWAP1 MSTORE PUSH1 0x5 DUP3 ADD SLOAD PUSH1 0xA0 DUP5 ADD SWAP1 DUP2 MSTORE PUSH1 0x6 SWAP1 SWAP3 ADD SLOAD PUSH1 0xC0 DUP5 ADD MSTORE CALLER SUB PUSH2 0x30A JUMPI MLOAD PUSH1 0x1 DUP1 PUSH1 0xA0 SHL SUB PUSH1 0x80 DUP4 ADD MLOAD AND PUSH1 0x64 PUSH2 0x249 PUSH1 0x1 SLOAD DUP5 PUSH2 0xDA3 JUMP JUMPDEST DIV SWAP3 PUSH1 0x1 DUP1 PUSH1 0xA0 SHL SUB PUSH1 0x20 DUP3 ADD MLOAD AND SWAP1 PUSH1 0x40 DUP2 ADD MLOAD SWAP5 DUP7 DUP1 DUP1 DUP1 PUSH1 0xC0 DUP7 ADD MLOAD SWAP6 PUSH1 0x60 PUSH1 0x1 DUP1 PUSH1 0xA0 SHL SUB SWAP2 ADD MLOAD AND SWAP5 PUSH1 0x4 CALLDATALOAD DUP3 MSTORE PUSH1 0x3 PUSH1 0x20 MSTORE DUP2 PUSH1 0x6 PUSH1 0x40 DUP3 KECCAK256 DUP3 DUP2 SSTORE DUP3 PUSH1 0x1 DUP3 ADD SSTORE DUP3 PUSH1 0x2 DUP3 ADD SSTORE DUP3 PUSH1 0x3 DUP3 ADD SSTORE DUP3 PUSH1 0x4 DUP3 ADD SSTORE DUP3 PUSH1 0x5 DUP3 ADD SSTORE ADD SSTORE DUP2 DUP2 ISZERO PUSH2 0x301 JUMPI JUMPDEST CALLER SWAP1 CALL ISZERO PUSH2 0x2F6 JUMPI PUSH32 0x3CB1BB21D4247CD586BDDA29C5179969EE1107CD09BF4E04C5CB2FBE8A0BE050 SWAP6 PUSH2 0x2F0 SWAP4 PUSH1 0x40 MLOAD SWAP7 DUP8 SWAP7 PUSH1 0x4 CALLDATALOAD DUP9 PUSH2 0xE74 JUMP JUMPDEST SUB SWAP1 LOG1 DUP1 RETURN JUMPDEST PUSH1 0x40 MLOAD RETURNDATASIZE DUP9 DUP3 RETURNDATACOPY RETURNDATASIZE SWAP1 REVERT JUMPDEST POP PUSH2 0x8FC PUSH2 0x2B3 JUMP JUMPDEST PUSH1 0x40 MLOAD PUSH3 0x461BCD PUSH1 0xE5 SHL DUP2 MSTORE PUSH1 0x20 PUSH1 0x4 DUP3 ADD MSTORE PUSH1 0x14 PUSH1 0x24 DUP3 ADD MSTORE PUSH20 0x2CB7BA9030B932903737BA10383937B837B9B2B9 PUSH1 0x61 SHL PUSH1 0x44 DUP3 ADD MSTORE PUSH1 0x64 SWAP1 REVERT JUMPDEST POP CALLVALUE PUSH2 0x12E JUMPI DUP1 PUSH1 0x3 NOT CALLDATASIZE ADD SLT PUSH2 0x12E JUMPI PUSH1 0x20 PUSH1 0x1 SLOAD PUSH1 0x40 MLOAD SWAP1 DUP2 MSTORE RETURN JUMPDEST POP PUSH1 0x20 DUP1 PUSH1 0x3 NOT CALLDATASIZE ADD SLT PUSH2 0x562 JUMPI PUSH1 0x4 CALLDATALOAD SWAP1 DUP2 DUP4 MSTORE PUSH1 0x2 SWAP2 DUP3 DUP3 MSTORE PUSH1 0x80 PUSH1 0x40 DUP6 KECCAK256 SWAP4 PUSH2 0x3D3 PUSH1 0x40 MLOAD SWAP6 PUSH2 0x396 DUP8 PUSH2 0xDCC JUMP JUMPDEST DUP1 SLOAD DUP8 MSTORE PUSH1 0x1 DUP1 PUSH1 0xA0 SHL SUB SWAP7 DUP5 PUSH1 0x4 DUP10 PUSH1 0x1 DUP6 ADD SLOAD AND SWAP4 DUP5 DUP11 DUP6 ADD MSTORE DUP11 DUP8 DUP3 ADD SLOAD AND PUSH1 0x40 DUP6 ADD MSTORE PUSH1 0x3 DUP2 ADD SLOAD PUSH1 0x60 DUP6 ADD MSTORE ADD SLOAD SWAP2 ADD MSTORE ISZERO ISZERO PUSH2 0xE2E JUMP JUMPDEST DUP3 DUP7 MSTORE DUP1 DUP5 MSTORE PUSH1 0x40 DUP7 KECCAK256 PUSH1 0x40 MLOAD SWAP6 PUSH2 0x3EA DUP8 PUSH2 0xDCC JUMP JUMPDEST DUP2 SLOAD DUP8 MSTORE DUP1 PUSH1 0x1 DUP4 ADD SLOAD AND SWAP7 DUP7 DUP2 ADD SWAP8 DUP9 MSTORE DUP2 DUP5 DUP5 ADD SLOAD AND SWAP1 PUSH1 0x40 DUP2 ADD SWAP2 DUP3 MSTORE PUSH1 0x4 PUSH1 0x3 DUP6 ADD SLOAD SWAP5 PUSH1 0x60 DUP4 ADD SWAP6 DUP7 MSTORE ADD SLOAD SWAP6 DUP7 SWAP2 ADD MSTORE DUP5 CALLVALUE LT PUSH2 0x52D JUMPI SWAP1 DUP1 DUP10 SWAP5 SWAP4 SWAP3 MLOAD AND SWAP2 MLOAD SWAP8 MLOAD AND SWAP2 DUP2 EXTCODESIZE ISZERO PUSH2 0x529 JUMPI PUSH1 0x40 MLOAD PUSH4 0x23B872DD PUSH1 0xE0 SHL DUP2 MSTORE PUSH1 0x1 PUSH1 0x1 PUSH1 0xA0 SHL SUB DUP5 AND PUSH1 0x4 DUP3 ADD MSTORE CALLER PUSH1 0x24 DUP3 ADD MSTORE PUSH1 0x44 DUP2 ADD DUP10 SWAP1 MSTORE SWAP2 DUP5 SWAP1 DUP4 SWAP1 PUSH1 0x64 SWAP1 DUP3 SWAP1 DUP5 SWAP1 GAS CALL SWAP1 DUP2 ISZERO PUSH2 0x4F8 JUMPI DUP5 SWAP3 DUP7 SWAP3 PUSH2 0x50C JUMPI JUMPDEST POP SWAP1 DUP3 SWAP4 DUP4 PUSH1 0x4 DUP2 SWAP5 DUP11 DUP4 MSTORE DUP1 DUP13 MSTORE DUP3 PUSH1 0x40 DUP2 KECCAK256 SWAP2 DUP2 DUP4 SSTORE DUP2 PUSH1 0x1 DUP5 ADD SSTORE DUP3 ADD SSTORE DUP3 PUSH1 0x3 DUP3 ADD SSTORE ADD SSTORE DUP3 DUP3 ISZERO PUSH2 0x503 JUMPI JUMPDEST CALL ISZERO PUSH2 0x4F8 JUMPI PUSH32 0xCC93B0018CB6AE09600353141C5E6471AE473F39200CFE34A3F588895176C28C SWAP4 PUSH1 0x80 SWAP4 PUSH1 0x40 MLOAD SWAP4 DUP5 MSTORE CALLER SWAP1 DUP5 ADD MSTORE PUSH1 0x40 DUP4 ADD MSTORE PUSH1 0x60 DUP3 ADD MSTORE LOG1 DUP1 RETURN JUMPDEST PUSH1 0x40 MLOAD RETURNDATASIZE DUP7 DUP3 RETURNDATACOPY RETURNDATASIZE SWAP1 REVERT JUMPDEST POP PUSH2 0x8FC PUSH2 0x4B4 JUMP JUMPDEST PUSH2 0x518 SWAP2 SWAP4 SWAP3 POP PUSH2 0xE1A JUMP JUMPDEST PUSH2 0x525 JUMPI DUP4 DUP4 SWAP2 CODESIZE PUSH2 0x483 JUMP JUMPDEST DUP3 DUP1 REVERT JUMPDEST DUP4 DUP1 REVERT JUMPDEST PUSH1 0x40 MLOAD PUSH3 0x461BCD PUSH1 0xE5 SHL DUP2 MSTORE PUSH1 0x4 DUP2 ADD DUP9 SWAP1 MSTORE PUSH1 0xD PUSH1 0x24 DUP3 ADD MSTORE PUSH13 0x4C61636B206F66206D6F6E6579 PUSH1 0x98 SHL PUSH1 0x44 DUP3 ADD MSTORE PUSH1 0x64 SWAP1 REVERT JUMPDEST POP DUP1 REVERT JUMPDEST POP CALLVALUE PUSH2 0x12E JUMPI PUSH1 0x20 CALLDATASIZE PUSH1 0x3 NOT ADD SLT PUSH2 0x12E JUMPI PUSH1 0x40 PUSH1 0xA0 SWAP2 PUSH1 0x4 CALLDATALOAD DUP2 MSTORE PUSH1 0x2 PUSH1 0x20 MSTORE KECCAK256 DUP1 SLOAD SWAP1 PUSH1 0x1 DUP1 DUP5 SHL SUB SWAP1 DUP2 PUSH1 0x1 DUP3 ADD SLOAD AND SWAP2 PUSH1 0x2 DUP3 ADD SLOAD AND PUSH1 0x4 PUSH1 0x3 DUP4 ADD SLOAD SWAP3 ADD SLOAD SWAP3 PUSH1 0x40 MLOAD SWAP5 DUP6 MSTORE PUSH1 0x20 DUP6 ADD MSTORE PUSH1 0x40 DUP5 ADD MSTORE PUSH1 0x60 DUP4 ADD MSTORE PUSH1 0x80 DUP3 ADD MSTORE RETURN JUMPDEST POP CALLVALUE PUSH2 0x12E JUMPI PUSH1 0x80 CALLDATASIZE PUSH1 0x3 NOT ADD SLT PUSH2 0x12E JUMPI PUSH2 0x5E1 PUSH2 0xD8D JUMP JUMPDEST PUSH1 0x64 CALLDATALOAD SWAP1 PUSH1 0x1 PUSH1 0x1 PUSH1 0xA0 SHL SUB DUP3 AND DUP3 SUB PUSH2 0x611 JUMPI PUSH1 0x20 SWAP2 PUSH2 0x609 SWAP2 PUSH1 0x44 CALLDATALOAD SWAP1 PUSH1 0x24 CALLDATALOAD SWAP1 PUSH2 0xEFC JUMP JUMPDEST PUSH1 0x40 MLOAD SWAP1 DUP2 MSTORE RETURN JUMPDEST PUSH1 0x0 DUP1 REVERT JUMPDEST POP CALLVALUE PUSH2 0x12E JUMPI DUP1 PUSH1 0x3 NOT CALLDATASIZE ADD SLT PUSH2 0x12E JUMPI SLOAD PUSH1 0x40 MLOAD PUSH1 0x1 PUSH1 0x1 PUSH1 0xA0 SHL SUB SWAP1 SWAP2 AND DUP2 MSTORE PUSH1 0x20 SWAP1 RETURN JUMPDEST POP CALLVALUE PUSH2 0x12E JUMPI PUSH1 0x20 DUP1 PUSH1 0x3 NOT CALLDATASIZE ADD SLT PUSH2 0x562 JUMPI PUSH1 0x4 CALLDATALOAD SWAP1 DUP2 DUP4 MSTORE PUSH1 0x3 DUP2 MSTORE PUSH1 0x40 DUP4 KECCAK256 SWAP2 PUSH2 0x6C5 PUSH1 0x40 MLOAD SWAP4 PUSH2 0x670 DUP6 PUSH2 0xDFE JUMP JUMPDEST DUP1 SLOAD DUP6 MSTORE PUSH1 0x1 DUP1 PUSH1 0xA0 SHL SUB SWAP5 DUP6 PUSH1 0x1 DUP4 ADD SLOAD AND DUP6 DUP3 ADD MSTORE PUSH1 0x2 DUP3 ADD SLOAD PUSH1 0x40 DUP3 ADD MSTORE DUP6 PUSH1 0x3 DUP4 ADD SLOAD AND PUSH1 0x60 DUP3 ADD MSTORE PUSH1 0xC0 PUSH1 0x6 DUP8 PUSH1 0x4 DUP6 ADD SLOAD AND SWAP4 DUP5 PUSH1 0x80 DUP6 ADD MSTORE PUSH1 0x5 DUP2 ADD SLOAD PUSH1 0xA0 DUP6 ADD MSTORE ADD SLOAD SWAP2 ADD MSTORE ISZERO ISZERO PUSH2 0xEB0 JUMP JUMPDEST DUP1 DUP5 MSTORE PUSH1 0x3 DUP3 MSTORE PUSH1 0x40 DUP5 KECCAK256 SWAP2 PUSH1 0x40 MLOAD SWAP1 PUSH2 0x6DE DUP3 PUSH2 0xDFE JUMP JUMPDEST DUP4 SLOAD DUP3 MSTORE DUP5 PUSH1 0x1 DUP6 ADD SLOAD AND DUP2 DUP4 ADD SWAP1 DUP2 MSTORE PUSH1 0x2 DUP6 ADD SLOAD SWAP6 PUSH1 0x40 DUP5 ADD SWAP7 DUP8 MSTORE DUP1 PUSH1 0x3 DUP8 ADD SLOAD AND SWAP2 PUSH1 0x60 DUP6 ADD SWAP4 DUP4 DUP6 MSTORE DUP3 PUSH1 0x4 DUP10 ADD SLOAD AND SWAP4 PUSH1 0x80 DUP8 ADD SWAP5 DUP6 MSTORE PUSH1 0xC0 PUSH1 0x6 PUSH1 0x5 DUP12 ADD SLOAD SWAP11 PUSH1 0xA0 DUP11 ADD SWAP12 DUP13 MSTORE ADD SLOAD SWAP8 ADD SWAP7 DUP8 MSTORE CALLER SUB PUSH2 0x812 JUMPI POP DUP2 DUP1 SWAP2 MLOAD AND SWAP8 MLOAD SWAP5 MLOAD SWAP4 MLOAD AND SWAP2 MLOAD AND SWAP5 MLOAD SWAP3 DUP7 EXTCODESIZE ISZERO PUSH2 0x80E JUMPI PUSH1 0x40 MLOAD PUSH4 0x23B872DD PUSH1 0xE0 SHL DUP2 MSTORE CALLER PUSH1 0x4 DUP3 ADD MSTORE PUSH1 0x1 PUSH1 0x1 PUSH1 0xA0 SHL SUB DUP8 AND PUSH1 0x24 DUP3 ADD MSTORE PUSH1 0x44 DUP2 ADD DUP3 SWAP1 MSTORE DUP9 DUP2 PUSH1 0x64 DUP2 DUP4 DUP13 GAS CALL DUP1 ISZERO PUSH2 0x803 JUMPI PUSH2 0x7F0 JUMPI JUMPDEST POP DUP8 DUP1 DUP6 DUP1 ISZERO PUSH2 0x7E6 JUMPI JUMPDEST DUP3 DUP1 SWAP3 SWAP2 DUP2 SWAP3 CALLER SWAP1 CALL ISZERO PUSH2 0x7DB JUMPI PUSH32 0x1F66D68942EF54CEDE3D546CFD01FEB5422BC9FE0E4F86398853940B20BB537F SWAP7 PUSH2 0x2F0 SWAP5 PUSH1 0x40 MLOAD SWAP8 DUP9 SWAP8 DUP9 PUSH2 0xE74 JUMP JUMPDEST PUSH1 0x40 MLOAD RETURNDATASIZE DUP10 DUP3 RETURNDATACOPY RETURNDATASIZE SWAP1 REVERT JUMPDEST PUSH2 0x8FC SWAP2 POP PUSH2 0x79B JUMP JUMPDEST PUSH2 0x7FC SWAP1 SWAP9 SWAP2 SWAP9 PUSH2 0xE1A JUMP JUMPDEST SWAP7 CODESIZE PUSH2 0x790 JUMP JUMPDEST PUSH1 0x40 MLOAD RETURNDATASIZE DUP12 DUP3 RETURNDATACOPY RETURNDATASIZE SWAP1 REVERT JUMPDEST DUP8 DUP1 REVERT JUMPDEST PUSH1 0x64 SWAP1 PUSH1 0x40 MLOAD SWAP1 PUSH3 0x461BCD PUSH1 0xE5 SHL DUP3 MSTORE PUSH1 0x4 DUP3 ADD MSTORE PUSH1 0x11 PUSH1 0x24 DUP3 ADD MSTORE PUSH17 0x2CB7BA9030B932903737BA1037BBB732B9 PUSH1 0x79 SHL PUSH1 0x44 DUP3 ADD MSTORE REVERT JUMPDEST POP CALLVALUE PUSH2 0x12E JUMPI DUP1 PUSH1 0x3 NOT CALLDATASIZE ADD SLT PUSH2 0x12E JUMPI PUSH2 0x863 PUSH2 0xF43 JUMP JUMPDEST DUP1 SLOAD PUSH1 0x1 PUSH1 0x1 PUSH1 0xA0 SHL SUB NOT DUP2 AND DUP3 SSTORE DUP2 SWAP1 PUSH1 0x1 PUSH1 0x1 PUSH1 0xA0 SHL SUB AND PUSH32 0x8BE0079C531659141344CD1FD0A4F28419497F9722A3DAAFE3B4186F6B6457E0 DUP3 DUP1 LOG3 DUP1 RETURN JUMPDEST POP PUSH1 0x40 CALLDATASIZE PUSH1 0x3 NOT ADD SLT PUSH2 0x12E JUMPI PUSH1 0x4 CALLDATALOAD SWAP1 PUSH1 0x24 CALLDATALOAD DUP3 DUP3 MSTORE PUSH1 0x20 SWAP3 PUSH1 0x2 DUP5 MSTORE PUSH1 0x40 DUP4 KECCAK256 PUSH2 0x915 PUSH1 0x40 MLOAD SWAP2 PUSH2 0x8D6 DUP4 PUSH2 0xDCC JUMP JUMPDEST DUP1 SLOAD DUP4 MSTORE PUSH1 0x1 DUP1 PUSH1 0xA0 SHL SUB SWAP3 PUSH1 0x80 PUSH1 0x4 DUP6 PUSH1 0x1 DUP6 ADD SLOAD AND SWAP4 DUP5 DUP12 DUP6 ADD MSTORE DUP7 PUSH1 0x2 DUP3 ADD SLOAD AND PUSH1 0x40 DUP6 ADD MSTORE PUSH1 0x3 DUP2 ADD SLOAD PUSH1 0x60 DUP6 ADD MSTORE ADD SLOAD SWAP2 ADD MSTORE ISZERO ISZERO PUSH2 0xE2E JUMP JUMPDEST DUP3 CALLVALUE LT PUSH2 0xAA2 JUMPI DUP2 DUP5 MSTORE PUSH1 0x2 DUP6 MSTORE PUSH1 0x40 DUP5 KECCAK256 PUSH1 0x40 MLOAD PUSH2 0x933 DUP2 PUSH2 0xDCC JUMP JUMPDEST DUP2 SLOAD DUP2 MSTORE DUP3 PUSH1 0x1 DUP4 ADD SLOAD AND SWAP3 DUP4 DUP9 DUP4 ADD MSTORE DUP6 PUSH1 0x80 DUP3 PUSH1 0x2 DUP7 ADD SLOAD AND SWAP4 DUP5 PUSH1 0x40 DUP3 ADD MSTORE PUSH1 0x4 PUSH1 0x3 DUP8 ADD SLOAD SWAP7 DUP8 PUSH1 0x60 DUP5 ADD MSTORE ADD SLOAD SWAP2 DUP3 SWAP2 ADD MSTORE GT ISZERO PUSH2 0xA4B JUMPI SWAP2 DUP2 DUP8 SWAP9 PUSH1 0x6 DUP8 DUP10 PUSH32 0x5F85E628B24CC1177B1C1FE0D398AD8DF0DF2C711E3056F020A957618FAB3E8B SWAP12 DUP10 SWAP8 PUSH1 0x40 SWAP12 SWAP10 PUSH2 0x2F0 SWAP12 DUP10 PUSH2 0x9B1 CALLER DUP8 DUP4 DUP8 PUSH2 0xEFC JUMP JUMPDEST SWAP15 DUP16 SWAP6 PUSH1 0x3 DUP3 MLOAD SWAP12 DUP13 SWAP9 PUSH2 0x9C4 DUP11 PUSH2 0xDFE JUMP JUMPDEST DUP1 DUP11 MSTORE DUP2 DUP11 ADD SWAP9 DUP10 MSTORE DUP5 DUP11 ADD SWAP6 DUP7 MSTORE PUSH1 0x60 DUP11 ADD SWAP7 DUP8 MSTORE PUSH1 0xC0 PUSH1 0x80 DUP12 ADD SWAP11 CALLER DUP13 MSTORE PUSH1 0xA0 DUP2 ADD SWAP13 DUP14 MSTORE ADD SWAP12 DUP13 MSTORE DUP4 MSTORE MSTORE KECCAK256 SWAP9 MLOAD DUP10 SSTORE DUP3 PUSH1 0x1 DUP11 ADD SWAP5 MLOAD AND SWAP4 PUSH1 0x1 DUP1 PUSH1 0xA0 SHL SUB NOT SWAP5 DUP6 DUP3 SLOAD AND OR SWAP1 SSTORE MLOAD PUSH1 0x2 DUP10 ADD SSTORE DUP2 PUSH1 0x3 DUP10 ADD SWAP2 MLOAD AND DUP4 DUP3 SLOAD AND OR SWAP1 SSTORE PUSH1 0x4 DUP8 ADD SWAP3 MLOAD AND SWAP1 DUP3 SLOAD AND OR SWAP1 SSTORE MLOAD PUSH1 0x5 DUP5 ADD SSTORE MLOAD SWAP2 ADD SSTORE PUSH1 0x40 MLOAD SWAP7 DUP8 SWAP7 CALLER SWAP1 DUP9 PUSH2 0xE74 JUMP JUMPDEST PUSH1 0x40 MLOAD PUSH3 0x461BCD PUSH1 0xE5 SHL DUP2 MSTORE PUSH1 0x4 DUP2 ADD DUP10 SWAP1 MSTORE PUSH1 0x29 PUSH1 0x24 DUP3 ADD MSTORE PUSH32 0x596F752063616E20656173696C792062757920746F6B656E20776974686F7574 PUSH1 0x44 DUP3 ADD MSTORE PUSH9 0x81C1C9BDC1BDCD85B PUSH1 0xBA SHL PUSH1 0x64 DUP3 ADD MSTORE PUSH1 0x84 SWAP1 REVERT JUMPDEST PUSH1 0x40 MLOAD PUSH3 0x461BCD PUSH1 0xE5 SHL DUP2 MSTORE PUSH1 0x4 DUP2 ADD DUP7 SWAP1 MSTORE PUSH1 0x19 PUSH1 0x24 DUP3 ADD MSTORE PUSH25 0xB2DEEA40C8D2C8DCE840E6CADCE840CADCDEEACED0408AA89 PUSH1 0x3B SHL PUSH1 0x44 DUP3 ADD MSTORE PUSH1 0x64 SWAP1 REVERT JUMPDEST POP PUSH1 0x60 CALLDATASIZE PUSH1 0x3 NOT ADD SLT PUSH2 0x12E JUMPI PUSH2 0xAF8 PUSH2 0xD8D JUMP JUMPDEST PUSH1 0x24 CALLDATALOAD PUSH1 0x44 CALLDATALOAD SWAP2 PUSH1 0x64 PUSH2 0xB0D PUSH1 0x1 SLOAD DUP6 PUSH2 0xDA3 JUMP JUMPDEST DIV CALLVALUE LT PUSH2 0xCD2 JUMPI PUSH1 0x40 MLOAD PUSH4 0x31A9108F PUSH1 0xE1 SHL DUP2 MSTORE PUSH1 0x4 DUP2 ADD DUP4 SWAP1 MSTORE PUSH1 0x1 PUSH1 0x1 PUSH1 0xA0 SHL SUB SWAP4 DUP3 DUP6 AND SWAP3 SWAP1 SWAP2 PUSH1 0x20 SWAP2 SWAP1 DUP3 DUP2 PUSH1 0x24 DUP2 DUP9 GAS STATICCALL DUP1 ISZERO PUSH2 0xCC7 JUMPI DUP8 SWAP2 DUP10 SWAP2 PUSH2 0xC62 JUMPI JUMPDEST POP AND CALLER SUB PUSH2 0xC1D JUMPI SWAP2 PUSH32 0x1EB91F5DCEFE786687093F16FF50592C3375C92C1678A2001576ED7B6600014 SWAP6 SWAP4 SWAP2 PUSH2 0xB8F DUP7 SWAP5 DUP4 PUSH1 0xA0 SWAP9 CALLER SWAP3 PUSH2 0xEFC JUMP JUMPDEST SWAP5 PUSH1 0x4 DUP10 PUSH1 0x40 MLOAD SWAP3 PUSH2 0xBA0 DUP5 PUSH2 0xDCC JUMP JUMPDEST DUP9 DUP5 MSTORE DUP5 DUP5 ADD CALLER DUP2 MSTORE PUSH1 0x40 DUP6 ADD SWAP1 DUP9 DUP3 MSTORE PUSH1 0x60 DUP7 ADD SWAP3 DUP11 DUP5 MSTORE PUSH1 0x40 PUSH1 0x80 DUP9 ADD SWAP6 DUP11 DUP8 MSTORE DUP14 DUP2 MSTORE PUSH1 0x2 DUP11 MSTORE KECCAK256 SWAP7 MLOAD DUP8 SSTORE DUP1 PUSH1 0x1 DUP9 ADD SWAP3 MLOAD AND SWAP2 PUSH1 0x1 DUP1 DUP16 SHL SUB NOT SWAP3 DUP4 DUP3 SLOAD AND OR SWAP1 SSTORE PUSH1 0x2 DUP8 ADD SWAP3 MLOAD AND SWAP1 DUP3 SLOAD AND OR SWAP1 SSTORE MLOAD PUSH1 0x3 DUP5 ADD SSTORE MLOAD SWAP2 ADD SSTORE PUSH1 0x40 MLOAD SWAP5 DUP6 MSTORE CALLER SWAP1 DUP6 ADD MSTORE PUSH1 0x40 DUP5 ADD MSTORE PUSH1 0x60 DUP4 ADD MSTORE PUSH1 0x80 DUP3 ADD MSTORE LOG1 DUP1 RETURN JUMPDEST PUSH1 0x40 MLOAD PUSH3 0x461BCD PUSH1 0xE5 SHL DUP2 MSTORE PUSH1 0x4 DUP2 ADD DUP4 SWAP1 MSTORE PUSH1 0x1C PUSH1 0x24 DUP3 ADD MSTORE PUSH32 0x596F7520617265206E6F74206F776E6572206F6620746865206E667400000000 PUSH1 0x44 DUP3 ADD MSTORE PUSH1 0x64 SWAP1 REVERT JUMPDEST SWAP2 POP POP DUP3 RETURNDATASIZE DUP5 GT PUSH2 0xCC0 JUMPI JUMPDEST PUSH1 0x1F DUP2 ADD PUSH1 0x1F NOT AND DUP3 ADD PUSH8 0xFFFFFFFFFFFFFFFF DUP2 GT DUP4 DUP3 LT OR PUSH2 0xCAC JUMPI DUP5 SWAP2 DUP4 SWAP2 PUSH1 0x40 MSTORE DUP2 ADD SUB SLT PUSH2 0x80E JUMPI MLOAD DUP7 DUP2 AND DUP2 SUB PUSH2 0x80E JUMPI DUP7 SWAP1 CODESIZE PUSH2 0xB52 JUMP JUMPDEST PUSH4 0x4E487B71 PUSH1 0xE0 SHL DUP11 MSTORE PUSH1 0x41 PUSH1 0x4 MSTORE PUSH1 0x24 DUP11 REVERT JUMPDEST POP RETURNDATASIZE PUSH2 0xC6E JUMP JUMPDEST PUSH1 0x40 MLOAD RETURNDATASIZE DUP11 DUP3 RETURNDATACOPY RETURNDATASIZE SWAP1 REVERT JUMPDEST PUSH1 0x40 MLOAD PUSH3 0x461BCD PUSH1 0xE5 SHL DUP2 MSTORE PUSH1 0x20 PUSH1 0x4 DUP3 ADD MSTORE PUSH1 0x1C PUSH1 0x24 DUP3 ADD MSTORE PUSH32 0x596F75206D757374207061792066656520746F2073656C6C206E667400000000 PUSH1 0x44 DUP3 ADD MSTORE PUSH1 0x64 SWAP1 REVERT JUMPDEST SWAP1 POP CALLVALUE PUSH2 0x562 JUMPI PUSH1 0x20 CALLDATASIZE PUSH1 0x3 NOT ADD SLT PUSH2 0x562 JUMPI PUSH1 0x40 PUSH1 0xE0 SWAP3 PUSH1 0x4 CALLDATALOAD DUP2 MSTORE PUSH1 0x3 PUSH1 0x20 MSTORE KECCAK256 DUP1 SLOAD SWAP1 PUSH1 0x1 DUP1 PUSH1 0xA0 SHL SUB DUP1 PUSH1 0x1 DUP4 ADD SLOAD AND SWAP1 PUSH1 0x2 DUP4 ADD SLOAD DUP2 PUSH1 0x3 DUP6 ADD SLOAD AND SWAP2 PUSH1 0x4 DUP6 ADD SLOAD AND SWAP3 PUSH1 0x6 PUSH1 0x5 DUP7 ADD SLOAD SWAP6 ADD SLOAD SWAP6 DUP8 MSTORE PUSH1 0x20 DUP8 ADD MSTORE PUSH1 0x40 DUP7 ADD MSTORE PUSH1 0x60 DUP6 ADD MSTORE PUSH1 0x80 DUP5 ADD MSTORE PUSH1 0xA0 DUP4 ADD MSTORE PUSH1 0xC0 DUP3 ADD MSTORE RETURN JUMPDEST PUSH1 0x4 CALLDATALOAD SWAP1 PUSH1 0x1 PUSH1 0x1 PUSH1 0xA0 SHL SUB DUP3 AND DUP3 SUB PUSH2 0x611 JUMPI JUMP JUMPDEST DUP2 DUP2 MUL SWAP3 SWAP2 DUP2 ISZERO SWAP2 DUP5 DIV EQ OR ISZERO PUSH2 0xDB6 JUMPI JUMP JUMPDEST PUSH4 0x4E487B71 PUSH1 0xE0 SHL PUSH1 0x0 MSTORE PUSH1 0x11 PUSH1 0x4 MSTORE PUSH1 0x24 PUSH1 0x0 REVERT JUMPDEST PUSH1 0xA0 DUP2 ADD SWAP1 DUP2 LT PUSH8 0xFFFFFFFFFFFFFFFF DUP3 GT OR PUSH2 0xDE8 JUMPI PUSH1 0x40 MSTORE JUMP JUMPDEST PUSH4 0x4E487B71 PUSH1 0xE0 SHL PUSH1 0x0 MSTORE PUSH1 0x41 PUSH1 0x4 MSTORE PUSH1 0x24 PUSH1 0x0 REVERT JUMPDEST PUSH1 0xE0 DUP2 ADD SWAP1 DUP2 LT PUSH8 0xFFFFFFFFFFFFFFFF DUP3 GT OR PUSH2 0xDE8 JUMPI PUSH1 0x40 MSTORE JUMP JUMPDEST PUSH8 0xFFFFFFFFFFFFFFFF DUP2 GT PUSH2 0xDE8 JUMPI PUSH1 0x40 MSTORE JUMP JUMPDEST ISZERO PUSH2 0xE35 JUMPI JUMP JUMPDEST PUSH1 0x40 MLOAD PUSH3 0x461BCD PUSH1 0xE5 SHL DUP2 MSTORE PUSH1 0x20 PUSH1 0x4 DUP3 ADD MSTORE PUSH1 0x17 PUSH1 0x24 DUP3 ADD MSTORE PUSH23 0x151A1A5CC81BDC99195C88191BD95CDB9D08195E1A5CDD PUSH1 0x4A SHL PUSH1 0x44 DUP3 ADD MSTORE PUSH1 0x64 SWAP1 REVERT JUMPDEST SWAP4 SWAP2 PUSH1 0xC0 SWAP6 SWAP2 SWAP9 SWAP8 SWAP7 SWAP3 PUSH1 0xE0 DUP7 ADD SWAP10 DUP7 MSTORE PUSH1 0x1 DUP1 PUSH1 0xA0 SHL SUB SWAP5 DUP6 DUP1 SWAP4 AND PUSH1 0x20 DUP9 ADD MSTORE PUSH1 0x40 DUP8 ADD MSTORE AND PUSH1 0x60 DUP6 ADD MSTORE PUSH1 0x80 DUP5 ADD MSTORE AND PUSH1 0xA0 DUP3 ADD MSTORE ADD MSTORE JUMP JUMPDEST ISZERO PUSH2 0xEB7 JUMPI JUMP JUMPDEST PUSH1 0x40 MLOAD PUSH3 0x461BCD PUSH1 0xE5 SHL DUP2 MSTORE PUSH1 0x20 PUSH1 0x4 DUP3 ADD MSTORE PUSH1 0x1A PUSH1 0x24 DUP3 ADD MSTORE PUSH32 0x546869732070726F706F73616C20646F65736E74206578697374000000000000 PUSH1 0x44 DUP3 ADD MSTORE PUSH1 0x64 SWAP1 REVERT JUMPDEST SWAP1 SWAP3 PUSH1 0x40 MLOAD SWAP3 PUSH1 0x20 DUP5 ADD SWAP5 PUSH12 0xFFFFFFFFFFFFFFFFFFFFFFFF NOT DUP1 SWAP5 PUSH1 0x60 SHL AND DUP7 MSTORE PUSH1 0x34 DUP6 ADD MSTORE PUSH1 0x54 DUP5 ADD MSTORE PUSH1 0x60 SHL AND PUSH1 0x74 DUP3 ADD MSTORE PUSH1 0x68 DUP2 MSTORE PUSH2 0xF3D DUP2 PUSH2 0xDCC JUMP JUMPDEST MLOAD SWAP1 KECCAK256 SWAP1 JUMP JUMPDEST PUSH1 0x0 SLOAD PUSH1 0x1 PUSH1 0x1 PUSH1 0xA0 SHL SUB AND CALLER SUB PUSH2 0xF57 JUMPI JUMP JUMPDEST PUSH1 0x40 MLOAD PUSH4 0x118CDAA7 PUSH1 0xE0 SHL DUP2 MSTORE CALLER PUSH1 0x4 DUP3 ADD MSTORE PUSH1 0x24 SWAP1 REVERT INVALID LOG2 PUSH5 0x6970667358 0x22 SLT KECCAK256 ADDRESS PUSH13 0xC7F2327B87465E673B5BD00940 0xE8 SWAP15 TSTORE 0xA5 0xC8 0xB4 0xB3 RETURNDATASIZE 0x29 TIMESTAMP PUSH2 0xE7FB SSTORE MCOPY LOG1 CODESIZE PUSH5 0x736F6C6343 STOP ADDMOD XOR STOP CALLER "
        },
        "methodIdentifiers": {
          "buy(uint256)": "d96a094a",
          "cancelProposal(uint256)": "e0a8f6f5",
          "createProposal(uint256,uint256)": "6935bda6",
          "createSellOrder(address,uint256,uint256)": "04e9e17a",
          "fee()": "ddca3f43",
          "generateId(address,uint256,uint256,address)": "9ba1ad19",
          "orders(uint256)": "a85c38ef",
          "owner()": "8da5cb5b",
          "proposals(uint256)": "013cf08b",
          "renounceOwnership()": "715018a6",
          "selectProposer(uint256)": "86a5017c",
          "transferOwnership(address)": "f2fde38b"
        }
      }
    }
  }
}