{
  "_format": "hh-sol-artifact-1",
  "contractName": "GameItems",
  "sourceName": "contracts/GameItems.sol",
  "abi": [
    {
      "inputs": [],
      "stateMutability": "nonpayable",
      "type": "constructor"
    },
    {
      "inputs": [
        {
          "internalType": "address",
          "name": "sender",
          "type": "address"
        },
        {
          "internalType": "uint256",
          "name": "balance",
          "type": "uint256"
        },
        {
          "internalType": "uint256",
          "name": "needed",
          "type": "uint256"
        },
        {
          "internalType": "uint256",
          "name": "tokenId",
          "type": "uint256"
        }
      ],
      "name": "ERC1155InsufficientBalance",
      "type": "error"
    },
    {
      "inputs": [
        {
          "internalType": "address",
          "name": "approver",
          "type": "address"
        }
      ],
      "name": "ERC1155InvalidApprover",
      "type": "error"
    },
    {
      "inputs": [
        {
          "internalType": "uint256",
          "name": "idsLength",
          "type": "uint256"
        },
        {
          "internalType": "uint256",
          "name": "valuesLength",
          "type": "uint256"
        }
      ],
      "name": "ERC1155InvalidArrayLength",
      "type": "error"
    },
    {
      "inputs": [
        {
          "internalType": "address",
          "name": "operator",
          "type": "address"
        }
      ],
      "name": "ERC1155InvalidOperator",
      "type": "error"
    },
    {
      "inputs": [
        {
          "internalType": "address",
          "name": "receiver",
          "type": "address"
        }
      ],
      "name": "ERC1155InvalidReceiver",
      "type": "error"
    },
    {
      "inputs": [
        {
          "internalType": "address",
          "name": "sender",
          "type": "address"
        }
      ],
      "name": "ERC1155InvalidSender",
      "type": "error"
    },
    {
      "inputs": [
        {
          "internalType": "address",
          "name": "operator",
          "type": "address"
        },
        {
          "internalType": "address",
          "name": "owner",
          "type": "address"
        }
      ],
      "name": "ERC1155MissingApprovalForAll",
      "type": "error"
    },
    {
      "anonymous": false,
      "inputs": [
        {
          "indexed": true,
          "internalType": "address",
          "name": "account",
          "type": "address"
        },
        {
          "indexed": true,
          "internalType": "address",
          "name": "operator",
          "type": "address"
        },
        {
          "indexed": false,
          "internalType": "bool",
          "name": "approved",
          "type": "bool"
        }
      ],
      "name": "ApprovalForAll",
      "type": "event"
    },
    {
      "anonymous": false,
      "inputs": [
        {
          "indexed": true,
          "internalType": "address",
          "name": "operator",
          "type": "address"
        },
        {
          "indexed": true,
          "internalType": "address",
          "name": "from",
          "type": "address"
        },
        {
          "indexed": true,
          "internalType": "address",
          "name": "to",
          "type": "address"
        },
        {
          "indexed": false,
          "internalType": "uint256[]",
          "name": "ids",
          "type": "uint256[]"
        },
        {
          "indexed": false,
          "internalType": "uint256[]",
          "name": "values",
          "type": "uint256[]"
        }
      ],
      "name": "TransferBatch",
      "type": "event"
    },
    {
      "anonymous": false,
      "inputs": [
        {
          "indexed": true,
          "internalType": "address",
          "name": "operator",
          "type": "address"
        },
        {
          "indexed": true,
          "internalType": "address",
          "name": "from",
          "type": "address"
        },
        {
          "indexed": true,
          "internalType": "address",
          "name": "to",
          "type": "address"
        },
        {
          "indexed": false,
          "internalType": "uint256",
          "name": "id",
          "type": "uint256"
        },
        {
          "indexed": false,
          "internalType": "uint256",
          "name": "value",
          "type": "uint256"
        }
      ],
      "name": "TransferSingle",
      "type": "event"
    },
    {
      "anonymous": false,
      "inputs": [
        {
          "indexed": false,
          "internalType": "string",
          "name": "value",
          "type": "string"
        },
        {
          "indexed": true,
          "internalType": "uint256",
          "name": "id",
          "type": "uint256"
        }
      ],
      "name": "URI",
      "type": "event"
    },
    {
      "inputs": [],
      "name": "GOLD",
      "outputs": [
        {
          "internalType": "uint256",
          "name": "",
          "type": "uint256"
        }
      ],
      "stateMutability": "view",
      "type": "function"
    },
    {
      "inputs": [],
      "name": "SHIELD",
      "outputs": [
        {
          "internalType": "uint256",
          "name": "",
          "type": "uint256"
        }
      ],
      "stateMutability": "view",
      "type": "function"
    },
    {
      "inputs": [],
      "name": "SILVER",
      "outputs": [
        {
          "internalType": "uint256",
          "name": "",
          "type": "uint256"
        }
      ],
      "stateMutability": "view",
      "type": "function"
    },
    {
      "inputs": [],
      "name": "SWORD",
      "outputs": [
        {
          "internalType": "uint256",
          "name": "",
          "type": "uint256"
        }
      ],
      "stateMutability": "view",
      "type": "function"
    },
    {
      "inputs": [],
      "name": "THORS_HAMMER",
      "outputs": [
        {
          "internalType": "uint256",
          "name": "",
          "type": "uint256"
        }
      ],
      "stateMutability": "view",
      "type": "function"
    },
    {
      "inputs": [
        {
          "internalType": "address",
          "name": "account",
          "type": "address"
        },
        {
          "internalType": "uint256",
          "name": "id",
          "type": "uint256"
        }
      ],
      "name": "balanceOf",
      "outputs": [
        {
          "internalType": "uint256",
          "name": "",
          "type": "uint256"
        }
      ],
      "stateMutability": "view",
      "type": "function"
    },
    {
      "inputs": [
        {
          "internalType": "address[]",
          "name": "accounts",
          "type": "address[]"
        },
        {
          "internalType": "uint256[]",
          "name": "ids",
          "type": "uint256[]"
        }
      ],
      "name": "balanceOfBatch",
      "outputs": [
        {
          "internalType": "uint256[]",
          "name": "",
          "type": "uint256[]"
        }
      ],
      "stateMutability": "view",
      "type": "function"
    },
    {
      "inputs": [
        {
          "internalType": "address",
          "name": "account",
          "type": "address"
        },
        {
          "internalType": "address",
          "name": "operator",
          "type": "address"
        }
      ],
      "name": "isApprovedForAll",
      "outputs": [
        {
          "internalType": "bool",
          "name": "",
          "type": "bool"
        }
      ],
      "stateMutability": "view",
      "type": "function"
    },
    {
      "inputs": [
        {
          "internalType": "address",
          "name": "user",
          "type": "address"
        },
        {
          "internalType": "uint256",
          "name": "tokenId",
          "type": "uint256"
        },
        {
          "internalType": "uint256",
          "name": "value",
          "type": "uint256"
        }
      ],
      "name": "mint",
      "outputs": [],
      "stateMutability": "nonpayable",
      "type": "function"
    },
    {
      "inputs": [
        {
          "internalType": "address",
          "name": "from",
          "type": "address"
        },
        {
          "internalType": "address",
          "name": "to",
          "type": "address"
        },
        {
          "internalType": "uint256[]",
          "name": "ids",
          "type": "uint256[]"
        },
        {
          "internalType": "uint256[]",
          "name": "values",
          "type": "uint256[]"
        },
        {
          "internalType": "bytes",
          "name": "data",
          "type": "bytes"
        }
      ],
      "name": "safeBatchTransferFrom",
      "outputs": [],
      "stateMutability": "nonpayable",
      "type": "function"
    },
    {
      "inputs": [
        {
          "internalType": "address",
          "name": "from",
          "type": "address"
        },
        {
          "internalType": "address",
          "name": "to",
          "type": "address"
        },
        {
          "internalType": "uint256",
          "name": "id",
          "type": "uint256"
        },
        {
          "internalType": "uint256",
          "name": "value",
          "type": "uint256"
        },
        {
          "internalType": "bytes",
          "name": "data",
          "type": "bytes"
        }
      ],
      "name": "safeTransferFrom",
      "outputs": [],
      "stateMutability": "nonpayable",
      "type": "function"
    },
    {
      "inputs": [
        {
          "internalType": "address",
          "name": "operator",
          "type": "address"
        },
        {
          "internalType": "bool",
          "name": "approved",
          "type": "bool"
        }
      ],
      "name": "setApprovalForAll",
      "outputs": [],
      "stateMutability": "nonpayable",
      "type": "function"
    },
    {
      "inputs": [
        {
          "internalType": "bytes4",
          "name": "interfaceId",
          "type": "bytes4"
        }
      ],
      "name": "supportsInterface",
      "outputs": [
        {
          "internalType": "bool",
          "name": "",
          "type": "bool"
        }
      ],
      "stateMutability": "view",
      "type": "function"
    },
    {
      "inputs": [
        {
          "internalType": "uint256",
          "name": "tokenId",
          "type": "uint256"
        }
      ],
      "name": "uri",
      "outputs": [
        {
          "internalType": "string",
          "name": "",
          "type": "string"
        }
      ],
      "stateMutability": "pure",
      "type": "function"
    }
  ],
  "bytecode": "0x6080806040523462000145576200001660e0604052565b60236080527f68747470733a2f2f692e726564642e69742f65306434316e736d34707337312e60a052626a706760e81b60c052620000606200005a60025462000702565b6200073f565b6002600052602090819060008051602062001dff833981519152926000915b8183106200012a57505050608001516001600160e81b03191690556047600255600380546001600160a01b03191633179055620000c6620000bf6200018a565b33620001ae565b620000db620000d46200018a565b336200035f565b620000f0620000e96200018a565b336200044e565b62000105620000fe6200018a565b3362000532565b6200011a620001136200018a565b336200061a565b604051611340908162000a9f8239f35b9080600185968295968501518155019501930191906200007f565b600080fd5b634e487b7160e01b600052604160045260246000fd5b601f909101601f19168101906001600160401b038211908210176200018457604052565b6200014a565b60405190602082016001600160401b03811183821017620001845760405260008252565b6001600160a01b0381169190821562000346576040516001938482526020916020810195600087526040820192818452606094606084019561030987526080850180604052855187518082036200032a57505050908391826000905b620002c2575b50505083511460001462000283576000885160008051602062001ddf83398151915262000253885160405191829133958360209093929193604081019481520152565b0390a45b815103620002735750506200027193519051913362000a66565b565b9150916200027194503362000926565b60006040517f4a39dc06d4c0dbc64b70af90fd698a233a518aa5d07e595d983b8c0526c8f7fb339180620002b989898362000802565b0390a462000257565b8651811015620003245780849160051b88016200031a620003118d620002fa8789860151950151946000526000602052604060002090565b9060018060a01b0316600052602052604060002090565b918254620007a8565b905501836200020a565b62000210565b635b05999160e01b8352608488019190915260a4870152604490fd5b604051632bfa23e760e11b815260006004820152602490fd5b6001600160a01b0381169190821562000346576040516001938482526020916020810195808752604082019281845260609460608401956b033b2e3c9fd0803ce800000087526080850180604052855187518082036200032a57505050908391826000905b6200040c5750505083511460001462000283576000885160008051602062001ddf83398151915262000253885160405191829133958360209093929193604081019481520152565b8651811015620003245780849160051b880162000444620003118d620002fa8789860151950151946000526000602052604060002090565b90550183620003c4565b6001600160a01b038116919082156200034657604051600193848252602091602081019560028752604082019281845260609460608401958387526080850180604052855187518082036200032a57505050908391826000905b620004f05750505083511460001462000283576000885160008051602062001ddf83398151915262000253885160405191829133958360209093929193604081019481520152565b8651811015620003245780849160051b880162000528620003118d620002fa8789860151950151946000526000602052604060002090565b90550183620004a8565b6001600160a01b03811691908215620003465760405160019384825260209160208101956003875260408201928184526060946060840195633b9aca0087526080850180604052855187518082036200032a57505050908391826000905b620005d85750505083511460001462000283576000885160008051602062001ddf83398151915262000253885160405191829133958360209093929193604081019481520152565b8651811015620003245780849160051b880162000610620003118d620002fa8789860151950151946000526000602052604060002090565b9055018362000590565b6001600160a01b03811691908215620003465760405160019384825260209160208101956004875260408201928184526060946060840195633b9aca0087526080850180604052855187518082036200032a57505050908391826000905b620006c05750505083511460001462000283576000885160008051602062001ddf83398151915262000253885160405191829133958360209093929193604081019481520152565b8651811015620003245780849160051b8801620006f8620003118d620002fa8789860151950151946000526000602052604060002090565b9055018362000678565b90600182811c9216801562000734575b60208310146200071e57565b634e487b7160e01b600052602260045260246000fd5b91607f169162000712565b601f81116200074b5750565b60026000908152601f9190910160051c60008051602062001dff83398151915201907f405787fa12a823e0f2b7631cc41b3ba8828b3321ca811111fa75cd3aa3bb5ad05b8281106200079c57505050565b8181556001016200078f565b91908201809211620007b657565b634e487b7160e01b600052601160045260246000fd5b90815180825260208080930193019160005b828110620007ed575050505090565b835185529381019392810192600101620007de565b90916200081c6200082b93604084526040840190620007cc565b916020818403910152620007cc565b90565b908160209103126200014557516001600160e01b031981168103620001455790565b919082519283825260005b8481106200087d575050826000602080949584010152601f8019910116010190565b6020818301810151848301820152016200085b565b92620008c56200082b9593620008d49360018060a01b031686526000602087015260a0604087015260a0860190620007cc565b908482036060860152620007cc565b91608081840391015262000850565b3d1562000921573d906001600160401b03821162000184576040519162000915601f8201601f19166020018462000160565b82523d6000602084013e565b606090565b9293919093843b6200093a575b5050505050565b6020916200095f604051948593849363bc197c8160e01b988986526004860162000892565b038160006001600160a01b0388165af160009181620009fb575b50620009bc57826200098a620008e3565b8051919082620009b557604051632bfa23e760e11b81526001600160a01b0383166004820152602490fd5b9050602001fd5b6001600160e01b03191603620009d85750388080808062000933565b604051632bfa23e760e11b81526001600160a01b03919091166004820152602490fd5b62000a2391925060203d60201162000a2b575b62000a1a818362000160565b8101906200082e565b903862000979565b503d62000a0e565b909260a0926200082b9594600180861b031683526000602084015260408301526060820152816080820152019062000850565b9293919093843b62000a79575050505050565b6020916200095f604051948593849363f23a6e6160e01b988986526004860162000a3356fe6080604052600436101561001257600080fd5b60003560e01c8062fdd58e146100f657806301ffc9a7146100f15780630e89341c146100ec57806313dc989f146100e7578063156e29f6146100e25780632eb2c2d6146100dd5780633e4bee38146100d85780634e1273f4146100d35780635b2725ed146100ce578063a22cb465146100c9578063d562e204146100c4578063e3e55f08146100bf578063e985e9c5146100ba5763f242432a146100b557600080fd5b6109f0565b610993565b610977565b61095b565b61089e565b610882565b6107c8565b610767565b610641565b610440565b610424565b610269565b61019f565b610140565b600435906001600160a01b038216820361011157565b600080fd5b602435906001600160a01b038216820361011157565b35906001600160a01b038216820361011157565b3461011157604036600319011261011157602061018461015e6100fb565b6024356000526000835260406000209060018060a01b0316600052602052604060002090565b54604051908152f35b6001600160e01b031981160361011157565b346101115760203660031901126101115760206004356101be8161018d565b63ffffffff60e01b16636cdb3d1360e11b81149081156101fc575b81156101eb575b506040519015158152f35b6301ffc9a760e01b149050386101e0565b6303a24d0760e21b811491506101d9565b60005b8381106102205750506000910152565b8181015183820152602001610210565b906020916102498151809281855285808601910161020d565b601f01601f1916010190565b906020610266928181520190610230565b90565b346101115760203660031901126101115760006004358072184f03e93ff9f4daa797ed6e38ed64bf6a1f0160401b80821015610416575b506d04ee2d6d415b85acef810000000080831015610407575b50662386f26fc10000808310156103f8575b506305f5e100808310156103e9575b50612710808310156103da575b5060648210156103ca575b600a809210156103c0575b60019081602161030f60018701610bf4565b95860101905b61038a575b6040517f68747470733a2f2f67616d652e6578616d706c652f6170692f6974656d2f000060208201526103869061037a8161036c61035b603e83018b610af4565b64173539b7b760d91b815260050190565b03601f198101835282610547565b60405191829182610255565b0390f35b600019019083906f181899199a1a9b1b9c1cb0b131b232b360811b8282061a8353049182156103bb57919082610315565b61031a565b91600101916102fd565b91906064600291049101916102f2565b600491939204910191386102e7565b600891939204910191386102da565b601091939204910191386102cb565b602091939204910191386102b9565b6040935081049150386102a0565b3461011157600036600319011261011157602060405160038152f35b34610111576060366003190112610111576104596100fb565b6003546001600160a01b0390811633036104d8576040519061047a82610527565b600082528216156104bf576104bd916104b76044356024359160405192600184526020840152604083019160018352606084015260808301604052565b91610c26565b005b604051632bfa23e760e11b815260006004820152602490fd5b60405162461bcd60e51b81526020600482015260116024820152702cb7ba9030b932903737ba1037bbb732b960791b6044820152606490fd5b634e487b7160e01b600052604160045260246000fd5b602081019081106001600160401b0382111761054257604052565b610511565b90601f801991011681019081106001600160401b0382111761054257604052565b6001600160401b0381116105425760051b60200190565b9080601f8301121561011157602090823561059981610568565b936105a76040519586610547565b81855260208086019260051b82010192831161011157602001905b8282106105d0575050505090565b813581529083019083016105c2565b6001600160401b03811161054257601f01601f191660200190565b81601f8201121561011157803590610611826105df565b9261061f6040519485610547565b8284526020838301011161011157816000926020809301838601378301015290565b346101115760a03660031901126101115761065a6100fb565b610662610116565b90604435916001600160401b0390818411610111576106866004943690860161057f565b906064358381116101115761069e903690870161057f565b92608435908111610111576106b690369087016105fa565b936001600160a01b03808216903382141580610743575b610716578316156106fe57156106e7576104bd9550610da1565b604051626a0d4560e21b8152600081880152602490fd5b604051632bfa23e760e11b8152600081890152602490fd5b6040805163711bec9160e11b815233818b019081526001600160a01b038616602082015290918291010390fd5b50600082815260016020908152604080832033845290915290205460ff16156106cd565b3461011157600036600319011261011157602060405160008152f35b90815180825260208080930193019160005b8281106107a3575050505090565b835185529381019392810192600101610795565b906020610266928181520190610783565b34610111576040366003190112610111576004356001600160401b03808211610111573660238301121561011157816004013561080481610568565b926108126040519485610547565b8184526020916024602086019160051b8301019136831161011157602401905b82821061086b5785602435868111610111576103869161085961085f92369060040161057f565b90610b35565b604051918291826107b7565b8380916108778461012c565b815201910190610832565b3461011157600036600319011261011157602060405160048152f35b34610111576040366003190112610111576108b76100fb565b602435801515808203610111576001600160a01b038316928315610943573360009081526001602090815260408083206001600160a01b039094168352929052209060ff801983541691161790557f17307eab39ab6107e8899845ad3d59bd9653f200f220920489ca2b5937696c316040518061093e339482919091602081019215159052565b0390a3005b60405162ced3e160e81b815260006004820152602490fd5b3461011157600036600319011261011157602060405160028152f35b3461011157600036600319011261011157602060405160018152f35b3461011157604036600319011261011157602060ff6109e46109b36100fb565b6109bb610116565b6001600160a01b0391821660009081526001865260408082209290931681526020919091522090565b54166040519015158152f35b346101115760a036600319011261011157610a096100fb565b610a11610116565b6084356001600160401b03811161011157610a309036906004016105fa565b906001600160a01b03838116903382141580610ad0575b610aa9578216156104bf5715610a91576104bd92610a896064356044359160405192600184526020840152604083019160018352606084015260808301604052565b929091610da1565b604051626a0d4560e21b815260006004820152602490fd5b60405163711bec9160e11b81523360048201526001600160a01b0386166024820152604490fd5b50600082815260016020908152604080832033845290915290205460ff1615610a47565b90610b076020928281519485920161020d565b0190565b8051821015610b1f5760209160051b010190565b634e487b7160e01b600052603260045260246000fd5b91909180518351808203610bd2575050805190610b6a610b5483610568565b92610b626040519485610547565b808452610568565b60209190601f1901368484013760005b8151811015610bca57600581901b8281018401519087018401516000908152602081815260408083206001600160a01b039094168352929052205460019190610bc38287610b0b565b5201610b7a565b509193505050565b604051635b05999160e01b815260048101919091526024810191909152604490fd5b90610bfe826105df565b610c0b6040519182610547565b8281528092610c1c601f19916105df565b0190602036910137565b908051835190818103610bd257505060005b8151811015610cb657600581901b82810160209081015191860101516001929185906001600160a01b038216610c72575b50505001610c38565b610cac91610c8d610ca4926000526000602052604060002090565b9060018060a01b0316600052602052604060002090565b918254610f9a565b9055388481610c69565b50805191939291600103610d58576020818101518382015160408051928352928201526001600160a01b0386169160009133917fc3d58168c5ae7397731d063d5bbf3d657854427343f4c083240f7aacaa2d0f6291a45b6001600160a01b038416610d22575b50505050565b8051600103610d495790602080610d4095930151910151913361129e565b38808080610d1c565b610d5393336110a4565b610d40565b6040516001600160a01b0385169060009033907f4a39dc06d4c0dbc64b70af90fd698a233a518aa5d07e595d983b8c0526c8f7fb9080610d99888883610fbd565b0390a4610d0d565b949190918151845190818103610bd257505060005b8251811015610ea457600581901b83810160209081015191870101516001600160a01b03929186908a8516610e1e575b6001948216610df9575b50505001610db6565b610e1491610c8d610ca4926000526000602052604060002090565b9055388581610df0565b9192939050610e3b8a610c8d846000526000602052604060002090565b54838110610e6d5791879184600196959403610e658d610c8d856000526000602052604060002090565b559450610de6565b6040516303dee4c560e01b81526001600160a01b038c16600482015260248101919091526044810184905260648101839052608490fd5b509491939290936001855114600014610f4f576020858101518382015160408051928352928201526001600160a01b03838116929086169133917fc3d58168c5ae7397731d063d5bbf3d657854427343f4c083240f7aacaa2d0f6291a45b6001600160a01b038116610f18575b5050505050565b8451600103610f3e57602080610f3496015192015192336112d3565b3880808080610f11565b610f4a9491923361119f565b610f34565b6040516001600160a01b03828116919085169033907f4a39dc06d4c0dbc64b70af90fd698a233a518aa5d07e595d983b8c0526c8f7fb9080610f92888c83610fbd565b0390a4610f02565b91908201809211610fa757565b634e487b7160e01b600052601160045260246000fd5b9091610fd461026693604084526040840190610783565b916020818403910152610783565b9081602091031261011157516102668161018d565b9261102661026695936110349360018060a01b031686526000602087015260a0604087015260a0860190610783565b908482036060860152610783565b916080818403910152610230565b93906102669593611026916110349460018060a01b03809216885216602087015260a0604087015260a0860190610783565b3d1561109f573d90611085826105df565b916110936040519384610547565b82523d6000602084013e565b606090565b9293919093843b6110b6575050505050565b6020916110d9604051948593849363bc197c8160e01b9889865260048601610ff7565b038160006001600160a01b0388165af16000918161116e575b506111315782611100611074565b805191908261112a57604051632bfa23e760e11b81526001600160a01b0383166004820152602490fd5b9050602001fd5b6001600160e01b0319160361114b57503880808080610f11565b604051632bfa23e760e11b81526001600160a01b03919091166004820152602490fd5b61119191925060203d602011611198575b6111898183610547565b810190610fe2565b90386110f2565b503d61117f565b939290949194853b6111b4575b505050505050565b6111d7602093604051958694859463bc197c8160e01b998a875260048701611042565b038160006001600160a01b0388165af160009181611219575b506111fe5782611100611074565b6001600160e01b0319160361114b57503880808080806111ac565b61123391925060203d602011611198576111898183610547565b90386111f0565b909260a0926102669594600180861b0316835260006020840152604083015260608201528160808201520190610230565b919261026695949160a094600180871b038092168552166020840152604083015260608201528160808201520190610230565b9293919093843b6112b0575050505050565b6020916110d9604051948593849363f23a6e6160e01b988986526004860161123a565b939290949194853b6112e757505050505050565b6111d7602093604051958694859463f23a6e6160e01b998a87526004870161126b56fea2646970667358221220bc30c0c7541e74dba6f609c6460e768eabef6f5a037d567b00f55d84f8887a8764736f6c63430008180033c3d58168c5ae7397731d063d5bbf3d657854427343f4c083240f7aacaa2d0f62405787fa12a823e0f2b7631cc41b3ba8828b3321ca811111fa75cd3aa3bb5ace",
  "linkReferences": {},
  "deployedLinkReferences": {}
}