{
  "_format": "hh-sol-artifact-1",
  "contractName": "GameItems",
  "sourceName": "contracts/GameItems.sol",
  "abi": [
    {
      "inputs": [],
      "stateMutability": "nonpayable",
      "type": "constructor"
    },
    {
      "inputs": [
        {
          "internalType": "address",
          "name": "sender",
          "type": "address"
        },
        {
          "internalType": "uint256",
          "name": "balance",
          "type": "uint256"
        },
        {
          "internalType": "uint256",
          "name": "needed",
          "type": "uint256"
        },
        {
          "internalType": "uint256",
          "name": "tokenId",
          "type": "uint256"
        }
      ],
      "name": "ERC1155InsufficientBalance",
      "type": "error"
    },
    {
      "inputs": [
        {
          "internalType": "address",
          "name": "approver",
          "type": "address"
        }
      ],
      "name": "ERC1155InvalidApprover",
      "type": "error"
    },
    {
      "inputs": [
        {
          "internalType": "uint256",
          "name": "idsLength",
          "type": "uint256"
        },
        {
          "internalType": "uint256",
          "name": "valuesLength",
          "type": "uint256"
        }
      ],
      "name": "ERC1155InvalidArrayLength",
      "type": "error"
    },
    {
      "inputs": [
        {
          "internalType": "address",
          "name": "operator",
          "type": "address"
        }
      ],
      "name": "ERC1155InvalidOperator",
      "type": "error"
    },
    {
      "inputs": [
        {
          "internalType": "address",
          "name": "receiver",
          "type": "address"
        }
      ],
      "name": "ERC1155InvalidReceiver",
      "type": "error"
    },
    {
      "inputs": [
        {
          "internalType": "address",
          "name": "sender",
          "type": "address"
        }
      ],
      "name": "ERC1155InvalidSender",
      "type": "error"
    },
    {
      "inputs": [
        {
          "internalType": "address",
          "name": "operator",
          "type": "address"
        },
        {
          "internalType": "address",
          "name": "owner",
          "type": "address"
        }
      ],
      "name": "ERC1155MissingApprovalForAll",
      "type": "error"
    },
    {
      "anonymous": false,
      "inputs": [
        {
          "indexed": true,
          "internalType": "address",
          "name": "account",
          "type": "address"
        },
        {
          "indexed": true,
          "internalType": "address",
          "name": "operator",
          "type": "address"
        },
        {
          "indexed": false,
          "internalType": "bool",
          "name": "approved",
          "type": "bool"
        }
      ],
      "name": "ApprovalForAll",
      "type": "event"
    },
    {
      "anonymous": false,
      "inputs": [
        {
          "indexed": true,
          "internalType": "address",
          "name": "operator",
          "type": "address"
        },
        {
          "indexed": true,
          "internalType": "address",
          "name": "from",
          "type": "address"
        },
        {
          "indexed": true,
          "internalType": "address",
          "name": "to",
          "type": "address"
        },
        {
          "indexed": false,
          "internalType": "uint256[]",
          "name": "ids",
          "type": "uint256[]"
        },
        {
          "indexed": false,
          "internalType": "uint256[]",
          "name": "values",
          "type": "uint256[]"
        }
      ],
      "name": "TransferBatch",
      "type": "event"
    },
    {
      "anonymous": false,
      "inputs": [
        {
          "indexed": true,
          "internalType": "address",
          "name": "operator",
          "type": "address"
        },
        {
          "indexed": true,
          "internalType": "address",
          "name": "from",
          "type": "address"
        },
        {
          "indexed": true,
          "internalType": "address",
          "name": "to",
          "type": "address"
        },
        {
          "indexed": false,
          "internalType": "uint256",
          "name": "id",
          "type": "uint256"
        },
        {
          "indexed": false,
          "internalType": "uint256",
          "name": "value",
          "type": "uint256"
        }
      ],
      "name": "TransferSingle",
      "type": "event"
    },
    {
      "anonymous": false,
      "inputs": [
        {
          "indexed": false,
          "internalType": "string",
          "name": "value",
          "type": "string"
        },
        {
          "indexed": true,
          "internalType": "uint256",
          "name": "id",
          "type": "uint256"
        }
      ],
      "name": "URI",
      "type": "event"
    },
    {
      "inputs": [],
      "name": "GOLD",
      "outputs": [
        {
          "internalType": "uint256",
          "name": "",
          "type": "uint256"
        }
      ],
      "stateMutability": "view",
      "type": "function"
    },
    {
      "inputs": [],
      "name": "SHIELD",
      "outputs": [
        {
          "internalType": "uint256",
          "name": "",
          "type": "uint256"
        }
      ],
      "stateMutability": "view",
      "type": "function"
    },
    {
      "inputs": [],
      "name": "SILVER",
      "outputs": [
        {
          "internalType": "uint256",
          "name": "",
          "type": "uint256"
        }
      ],
      "stateMutability": "view",
      "type": "function"
    },
    {
      "inputs": [],
      "name": "SWORD",
      "outputs": [
        {
          "internalType": "uint256",
          "name": "",
          "type": "uint256"
        }
      ],
      "stateMutability": "view",
      "type": "function"
    },
    {
      "inputs": [],
      "name": "THORS_HAMMER",
      "outputs": [
        {
          "internalType": "uint256",
          "name": "",
          "type": "uint256"
        }
      ],
      "stateMutability": "view",
      "type": "function"
    },
    {
      "inputs": [
        {
          "internalType": "address",
          "name": "account",
          "type": "address"
        },
        {
          "internalType": "uint256",
          "name": "id",
          "type": "uint256"
        }
      ],
      "name": "balanceOf",
      "outputs": [
        {
          "internalType": "uint256",
          "name": "",
          "type": "uint256"
        }
      ],
      "stateMutability": "view",
      "type": "function"
    },
    {
      "inputs": [
        {
          "internalType": "address[]",
          "name": "accounts",
          "type": "address[]"
        },
        {
          "internalType": "uint256[]",
          "name": "ids",
          "type": "uint256[]"
        }
      ],
      "name": "balanceOfBatch",
      "outputs": [
        {
          "internalType": "uint256[]",
          "name": "",
          "type": "uint256[]"
        }
      ],
      "stateMutability": "view",
      "type": "function"
    },
    {
      "inputs": [
        {
          "internalType": "address",
          "name": "account",
          "type": "address"
        },
        {
          "internalType": "address",
          "name": "operator",
          "type": "address"
        }
      ],
      "name": "isApprovedForAll",
      "outputs": [
        {
          "internalType": "bool",
          "name": "",
          "type": "bool"
        }
      ],
      "stateMutability": "view",
      "type": "function"
    },
    {
      "inputs": [
        {
          "internalType": "address",
          "name": "user",
          "type": "address"
        },
        {
          "internalType": "uint256",
          "name": "tokenId",
          "type": "uint256"
        },
        {
          "internalType": "uint256",
          "name": "value",
          "type": "uint256"
        }
      ],
      "name": "mint",
      "outputs": [],
      "stateMutability": "nonpayable",
      "type": "function"
    },
    {
      "inputs": [],
      "name": "name",
      "outputs": [
        {
          "internalType": "string",
          "name": "",
          "type": "string"
        }
      ],
      "stateMutability": "view",
      "type": "function"
    },
    {
      "inputs": [
        {
          "internalType": "address",
          "name": "from",
          "type": "address"
        },
        {
          "internalType": "address",
          "name": "to",
          "type": "address"
        },
        {
          "internalType": "uint256[]",
          "name": "ids",
          "type": "uint256[]"
        },
        {
          "internalType": "uint256[]",
          "name": "values",
          "type": "uint256[]"
        },
        {
          "internalType": "bytes",
          "name": "data",
          "type": "bytes"
        }
      ],
      "name": "safeBatchTransferFrom",
      "outputs": [],
      "stateMutability": "nonpayable",
      "type": "function"
    },
    {
      "inputs": [
        {
          "internalType": "address",
          "name": "from",
          "type": "address"
        },
        {
          "internalType": "address",
          "name": "to",
          "type": "address"
        },
        {
          "internalType": "uint256",
          "name": "id",
          "type": "uint256"
        },
        {
          "internalType": "uint256",
          "name": "value",
          "type": "uint256"
        },
        {
          "internalType": "bytes",
          "name": "data",
          "type": "bytes"
        }
      ],
      "name": "safeTransferFrom",
      "outputs": [],
      "stateMutability": "nonpayable",
      "type": "function"
    },
    {
      "inputs": [
        {
          "internalType": "address",
          "name": "operator",
          "type": "address"
        },
        {
          "internalType": "bool",
          "name": "approved",
          "type": "bool"
        }
      ],
      "name": "setApprovalForAll",
      "outputs": [],
      "stateMutability": "nonpayable",
      "type": "function"
    },
    {
      "inputs": [
        {
          "internalType": "bytes4",
          "name": "interfaceId",
          "type": "bytes4"
        }
      ],
      "name": "supportsInterface",
      "outputs": [
        {
          "internalType": "bool",
          "name": "",
          "type": "bool"
        }
      ],
      "stateMutability": "view",
      "type": "function"
    },
    {
      "inputs": [],
      "name": "symbol",
      "outputs": [
        {
          "internalType": "string",
          "name": "",
          "type": "string"
        }
      ],
      "stateMutability": "view",
      "type": "function"
    },
    {
      "inputs": [
        {
          "internalType": "uint256",
          "name": "tokenId",
          "type": "uint256"
        }
      ],
      "name": "uri",
      "outputs": [
        {
          "internalType": "string",
          "name": "",
          "type": "string"
        }
      ],
      "stateMutability": "pure",
      "type": "function"
    }
  ],
  "bytecode": "0x6080806040523462000159576200001660e0604052565b60236080527f68747470733a2f2f692e726564642e69742f65306434316e736d34707337312e60a052626a706760e81b60c052620000606200005a600254620001c2565b62000218565b6002600052602090819060008051602062001f44833981519152926000915b8183106200013e57505050608001516001600160e81b03191690556047600255620000a96200026e565b620000b3620002db565b600580546001600160a01b03191633179055620000da620000d36200019e565b3362000344565b620000ef620000e86200019e565b33620004f3565b62000104620000fd6200019e565b33620005d7565b62000119620001126200019e565b33620006bb565b6200012e620001276200019e565b33620007a1565b6040516113a5908162000b7f8239f35b9080600185968295968501518155019501930191906200007f565b600080fd5b634e487b7160e01b600052604160045260246000fd5b601f909101601f19168101906001600160401b038211908210176200019857604052565b6200015e565b60405190602082016001600160401b03811183821017620001985760405260008252565b90600182811c92168015620001f4575b6020831014620001de57565b634e487b7160e01b600052602260045260246000fd5b91607f1691620001d2565b8181106200020b575050565b60008155600101620001ff565b601f8111620002245750565b60026000526200026c90601f0160051c60008051602062001f44833981519152017f405787fa12a823e0f2b7631cc41b3ba8828b3321ca811111fa75cd3aa3bb5ad0620001ff565b565b6200027b600354620001c2565b601f811162000299575b50600e6647474974656d7360c81b01600355565b6003600052620002d490601f0160051c7fc2575a0e9e593c00f959f8c92f12db2869c3395a3b0502d05e2516446f71f85b90810190620001ff565b3862000285565b620002e8600454620001c2565b601f811162000302575b5060066247494760e81b01600455565b60046000526200033d90601f0160051c7f8a35acfbc15ff81a39ae7d344fd709f28e8600b4aa8c65c6b64bfe7fe36bd19b90810190620001ff565b38620002f2565b6001600160a01b03811691908215620004da57604051600193848252602091602081019560008752604082019281845260609460608401956103098752608085018060405285518751808203620004be57505050908391826000905b62000456575b50505083511460001462000417576000885160008051602062001f24833981519152620003e9885160405191829133958360209093929193604081019481520152565b0390a45b815103620004075750506200026c93519051913362000b46565b9150916200026c94503362000a06565b60006040517f4a39dc06d4c0dbc64b70af90fd698a233a518aa5d07e595d983b8c0526c8f7fb3391806200044d898983620008e2565b0390a4620003ed565b8651811015620004b85780849160051b8801620004ae620004a58d6200048e8789860151950151946000526000602052604060002090565b9060018060a01b0316600052602052604060002090565b91825462000888565b90550183620003a0565b620003a6565b635b05999160e01b8352608488019190915260a4870152604490fd5b604051632bfa23e760e11b815260006004820152602490fd5b6001600160a01b03811691908215620004da5760405160019384825260209160208101958087526040820192818452606094606084019560648752608085018060405285518751808203620004be57505050908391826000905b620005955750505083511460001462000417576000885160008051602062001f24833981519152620003e9885160405191829133958360209093929193604081019481520152565b8651811015620004b85780849160051b8801620005cd620004a58d6200048e8789860151950151946000526000602052604060002090565b905501836200054d565b6001600160a01b03811691908215620004da5760405160019384825260209160208101956002875260408201928184526060946060840195838752608085018060405285518751808203620004be57505050908391826000905b620006795750505083511460001462000417576000885160008051602062001f24833981519152620003e9885160405191829133958360209093929193604081019481520152565b8651811015620004b85780849160051b8801620006b1620004a58d6200048e8789860151950151946000526000602052604060002090565b9055018362000631565b6001600160a01b03811691908215620004da57604051600193848252602091602081019560038752604082019281845260609460608401956103e88752608085018060405285518751808203620004be57505050908391826000905b6200075f5750505083511460001462000417576000885160008051602062001f24833981519152620003e9885160405191829133958360209093929193604081019481520152565b8651811015620004b85780849160051b880162000797620004a58d6200048e8789860151950151946000526000602052604060002090565b9055018362000717565b6001600160a01b03811691908215620004da5760405160019384825260209160208101956004875260408201928184526060946060840195620186a08752608085018060405285518751808203620004be57505050908391826000905b620008465750505083511460001462000417576000885160008051602062001f24833981519152620003e9885160405191829133958360209093929193604081019481520152565b8651811015620004b85780849160051b88016200087e620004a58d6200048e8789860151950151946000526000602052604060002090565b90550183620007fe565b919082018092116200089657565b634e487b7160e01b600052601160045260246000fd5b90815180825260208080930193019160005b828110620008cd575050505090565b835185529381019392810192600101620008be565b9091620008fc6200090b93604084526040840190620008ac565b916020818403910152620008ac565b90565b908160209103126200015957516001600160e01b031981168103620001595790565b919082519283825260005b8481106200095d575050826000602080949584010152601f8019910116010190565b6020818301810151848301820152016200093b565b92620009a56200090b9593620009b49360018060a01b031686526000602087015260a0604087015260a0860190620008ac565b908482036060860152620008ac565b91608081840391015262000930565b3d1562000a01573d906001600160401b038211620001985760405191620009f5601f8201601f19166020018462000174565b82523d6000602084013e565b606090565b9293919093843b62000a1a575b5050505050565b60209162000a3f604051948593849363bc197c8160e01b988986526004860162000972565b038160006001600160a01b0388165af16000918162000adb575b5062000a9c578262000a6a620009c3565b805191908262000a9557604051632bfa23e760e11b81526001600160a01b0383166004820152602490fd5b9050602001fd5b6001600160e01b0319160362000ab85750388080808062000a13565b604051632bfa23e760e11b81526001600160a01b03919091166004820152602490fd5b62000b0391925060203d60201162000b0b575b62000afa818362000174565b8101906200090e565b903862000a59565b503d62000aee565b909260a0926200090b9594600180861b031683526000602084015260408301526060820152816080820152019062000930565b9293919093843b62000b59575050505050565b60209162000a3f604051948593849363f23a6e6160e01b988986526004860162000b1356fe6080604052600436101561001257600080fd5b60003560e01c8062fdd58e1461011657806301ffc9a71461011157806306fdde031461010c5780630e89341c1461010757806313dc989f14610102578063156e29f6146100fd5780632eb2c2d6146100f85780633e4bee38146100f35780634e1273f4146100ee5780635b2725ed146100e957806395d89b41146100e4578063a22cb465146100df578063d562e204146100da578063e3e55f08146100d5578063e985e9c5146100d05763f242432a146100cb57600080fd5b610a9e565b610a41565b610a25565b610a09565b61094c565b610886565b61086a565b6107b0565b61074f565b610629565b61047f565b610463565b6103e7565b6102d8565b6101bf565b610160565b600435906001600160a01b038216820361013157565b600080fd5b602435906001600160a01b038216820361013157565b35906001600160a01b038216820361013157565b346101315760403660031901126101315760206101a461017e61011b565b6024356000526000835260406000209060018060a01b0316600052602052604060002090565b54604051908152f35b6001600160e01b031981160361013157565b346101315760203660031901126101315760206004356101de816101ad565b63ffffffff60e01b16636cdb3d1360e11b811490811561021c575b811561020b575b506040519015158152f35b6301ffc9a760e01b14905038610200565b6303a24d0760e21b811491506101f9565b634e487b7160e01b600052604160045260246000fd5b602081019081106001600160401b0382111761025e57604052565b61022d565b90601f801991011681019081106001600160401b0382111761025e57604052565b919082519283825260005b8481106102b0575050826000602080949584010152601f8019910116010190565b60208183018101518483018201520161028f565b9060206102d5928181520190610284565b90565b34610131576000806003193601126103e4576040519080600354906001918060011c92600182169283156103da575b6020926020861085146103c65785885260208801949081156103a5575060011461034c575b6103488761033c81890382610263565b604051918291826102c4565b0390f35b600360005294509192917fc2575a0e9e593c00f959f8c92f12db2869c3395a3b0502d05e2516446f71f85b5b838610610394575050509101905061033c82610348388061032c565b805485870152948201948101610378565b60ff191685525050505090151560051b01905061033c82610348388061032c565b634e487b7160e01b82526022600452602482fd5b93607f1693610307565b80fd5b346101315760203660031901126101315760405160608101908082106001600160401b0383111761025e5761034891604052602381527f68747470733a2f2f692e726564642e69742f65306434316e736d34707337312e6020820152626a706760e81b6040820152604051918291602083526020830190610284565b3461013157600036600319011261013157602060405160038152f35b346101315760603660031901126101315761049861011b565b6005546001600160a01b03908116330361051757604051906104b982610243565b600082528216156104fe576104fc916104f66044356024359160405192600184526020840152604083019160018352606084015260808301604052565b91610c8b565b005b604051632bfa23e760e11b815260006004820152602490fd5b60405162461bcd60e51b81526020600482015260116024820152702cb7ba9030b932903737ba1037bbb732b960791b6044820152606490fd5b6001600160401b03811161025e5760051b60200190565b9080601f8301121561013157602090823561058181610550565b9361058f6040519586610263565b81855260208086019260051b82010192831161013157602001905b8282106105b8575050505090565b813581529083019083016105aa565b6001600160401b03811161025e57601f01601f191660200190565b81601f82011215610131578035906105f9826105c7565b926106076040519485610263565b8284526020838301011161013157816000926020809301838601378301015290565b346101315760a03660031901126101315761064261011b565b61064a610136565b90604435916001600160401b03908184116101315761066e60049436908601610567565b90606435838111610131576106869036908701610567565b926084359081116101315761069e90369087016105e2565b936001600160a01b0380821690338214158061072b575b6106fe578316156106e657156106cf576104fc9550610e06565b604051626a0d4560e21b8152600081880152602490fd5b604051632bfa23e760e11b8152600081890152602490fd5b6040805163711bec9160e11b815233818b019081526001600160a01b038616602082015290918291010390fd5b50600082815260016020908152604080832033845290915290205460ff16156106b5565b3461013157600036600319011261013157602060405160008152f35b90815180825260208080930193019160005b82811061078b575050505090565b83518552938101939281019260010161077d565b9060206102d592818152019061076b565b34610131576040366003190112610131576004356001600160401b0380821161013157366023830112156101315781600401356107ec81610550565b926107fa6040519485610263565b8184526020916024602086019160051b8301019136831161013157602401905b82821061085357856024358681116101315761034891610841610847923690600401610567565b90610bcc565b6040519182918261079f565b83809161085f8461014c565b81520191019061081a565b3461013157600036600319011261013157602060405160048152f35b34610131576000806003193601126103e4576040519080600454906001918060011c9260018216928315610942575b6020926020861085146103c65785885260208801949081156103a557506001146108e9576103488761033c81890382610263565b600460005294509192917f8a35acfbc15ff81a39ae7d344fd709f28e8600b4aa8c65c6b64bfe7fe36bd19b5b838610610931575050509101905061033c82610348388061032c565b805485870152948201948101610915565b93607f16936108b5565b346101315760403660031901126101315761096561011b565b602435801515808203610131576001600160a01b0383169283156109f1573360009081526001602090815260408083206001600160a01b039094168352929052209060ff801983541691161790557f17307eab39ab6107e8899845ad3d59bd9653f200f220920489ca2b5937696c31604051806109ec339482919091602081019215159052565b0390a3005b60405162ced3e160e81b815260006004820152602490fd5b3461013157600036600319011261013157602060405160028152f35b3461013157600036600319011261013157602060405160018152f35b3461013157604036600319011261013157602060ff610a92610a6161011b565b610a69610136565b6001600160a01b0391821660009081526001865260408082209290931681526020919091522090565b54166040519015158152f35b346101315760a036600319011261013157610ab761011b565b610abf610136565b6084356001600160401b03811161013157610ade9036906004016105e2565b906001600160a01b03838116903382141580610b7e575b610b57578216156104fe5715610b3f576104fc92610b376064356044359160405192600184526020840152604083019160018352606084015260808301604052565b929091610e06565b604051626a0d4560e21b815260006004820152602490fd5b60405163711bec9160e11b81523360048201526001600160a01b0386166024820152604490fd5b50600082815260016020908152604080832033845290915290205460ff1615610af5565b8051821015610bb65760209160051b010190565b634e487b7160e01b600052603260045260246000fd5b91909180518351808203610c69575050805190610c01610beb83610550565b92610bf96040519485610263565b808452610550565b60209190601f1901368484013760005b8151811015610c6157600581901b8281018401519087018401516000908152602081815260408083206001600160a01b039094168352929052205460019190610c5a8287610ba2565b5201610c11565b509193505050565b604051635b05999160e01b815260048101919091526024810191909152604490fd5b908051835190818103610c6957505060005b8151811015610d1b57600581901b82810160209081015191860101516001929185906001600160a01b038216610cd7575b50505001610c9d565b610d1191610cf2610d09926000526000602052604060002090565b9060018060a01b0316600052602052604060002090565b918254610fff565b9055388481610cce565b50805191939291600103610dbd576020818101518382015160408051928352928201526001600160a01b0386169160009133917fc3d58168c5ae7397731d063d5bbf3d657854427343f4c083240f7aacaa2d0f6291a45b6001600160a01b038416610d87575b50505050565b8051600103610dae5790602080610da5959301519101519133611303565b38808080610d81565b610db89333611109565b610da5565b6040516001600160a01b0385169060009033907f4a39dc06d4c0dbc64b70af90fd698a233a518aa5d07e595d983b8c0526c8f7fb9080610dfe888883611022565b0390a4610d72565b949190918151845190818103610c6957505060005b8251811015610f0957600581901b83810160209081015191870101516001600160a01b03929186908a8516610e83575b6001948216610e5e575b50505001610e1b565b610e7991610cf2610d09926000526000602052604060002090565b9055388581610e55565b9192939050610ea08a610cf2846000526000602052604060002090565b54838110610ed25791879184600196959403610eca8d610cf2856000526000602052604060002090565b559450610e4b565b6040516303dee4c560e01b81526001600160a01b038c16600482015260248101919091526044810184905260648101839052608490fd5b509491939290936001855114600014610fb4576020858101518382015160408051928352928201526001600160a01b03838116929086169133917fc3d58168c5ae7397731d063d5bbf3d657854427343f4c083240f7aacaa2d0f6291a45b6001600160a01b038116610f7d575b5050505050565b8451600103610fa357602080610f999601519201519233611338565b3880808080610f76565b610faf94919233611204565b610f99565b6040516001600160a01b03828116919085169033907f4a39dc06d4c0dbc64b70af90fd698a233a518aa5d07e595d983b8c0526c8f7fb9080610ff7888c83611022565b0390a4610f67565b9190820180921161100c57565b634e487b7160e01b600052601160045260246000fd5b90916110396102d59360408452604084019061076b565b91602081840391015261076b565b9081602091031261013157516102d5816101ad565b9261108b6102d595936110999360018060a01b031686526000602087015260a0604087015260a086019061076b565b90848203606086015261076b565b916080818403910152610284565b93906102d5959361108b916110999460018060a01b03809216885216602087015260a0604087015260a086019061076b565b3d15611104573d906110ea826105c7565b916110f86040519384610263565b82523d6000602084013e565b606090565b9293919093843b61111b575050505050565b60209161113e604051948593849363bc197c8160e01b988986526004860161105c565b038160006001600160a01b0388165af1600091816111d3575b5061119657826111656110d9565b805191908261118f57604051632bfa23e760e11b81526001600160a01b0383166004820152602490fd5b9050602001fd5b6001600160e01b031916036111b057503880808080610f76565b604051632bfa23e760e11b81526001600160a01b03919091166004820152602490fd5b6111f691925060203d6020116111fd575b6111ee8183610263565b810190611047565b9038611157565b503d6111e4565b939290949194853b611219575b505050505050565b61123c602093604051958694859463bc197c8160e01b998a8752600487016110a7565b038160006001600160a01b0388165af16000918161127e575b5061126357826111656110d9565b6001600160e01b031916036111b05750388080808080611211565b61129891925060203d6020116111fd576111ee8183610263565b9038611255565b909260a0926102d59594600180861b0316835260006020840152604083015260608201528160808201520190610284565b91926102d595949160a094600180871b038092168552166020840152604083015260608201528160808201520190610284565b9293919093843b611315575050505050565b60209161113e604051948593849363f23a6e6160e01b988986526004860161129f565b939290949194853b61134c57505050505050565b61123c602093604051958694859463f23a6e6160e01b998a8752600487016112d056fea26469706673582212201c94f73a5df0ef2ffff2591fb1c30b5f293f063a4eb7f893a9b41ee0f24f830964736f6c63430008180033c3d58168c5ae7397731d063d5bbf3d657854427343f4c083240f7aacaa2d0f62405787fa12a823e0f2b7631cc41b3ba8828b3321ca811111fa75cd3aa3bb5ace",
  "linkReferences": {},
  "deployedLinkReferences": {}
}