{
  "_format": "hh-sol-artifact-1",
  "contractName": "OffChainMarket",
  "sourceName": "contracts/OffChainMarket.sol",
  "abi": [
    {
      "inputs": [],
      "name": "ECDSAInvalidSignature",
      "type": "error"
    },
    {
      "inputs": [
        {
          "internalType": "uint256",
          "name": "length",
          "type": "uint256"
        }
      ],
      "name": "ECDSAInvalidSignatureLength",
      "type": "error"
    },
    {
      "inputs": [
        {
          "internalType": "bytes32",
          "name": "s",
          "type": "bytes32"
        }
      ],
      "name": "ECDSAInvalidSignatureS",
      "type": "error"
    },
    {
      "inputs": [
        {
          "internalType": "address",
          "name": "owner",
          "type": "address"
        }
      ],
      "name": "OwnableInvalidOwner",
      "type": "error"
    },
    {
      "inputs": [
        {
          "internalType": "address",
          "name": "account",
          "type": "address"
        }
      ],
      "name": "OwnableUnauthorizedAccount",
      "type": "error"
    },
    {
      "anonymous": false,
      "inputs": [
        {
          "indexed": true,
          "internalType": "address",
          "name": "previousOwner",
          "type": "address"
        },
        {
          "indexed": true,
          "internalType": "address",
          "name": "newOwner",
          "type": "address"
        }
      ],
      "name": "OwnershipTransferred",
      "type": "event"
    },
    {
      "stateMutability": "payable",
      "type": "fallback"
    },
    {
      "inputs": [],
      "name": "increaseNonce",
      "outputs": [],
      "stateMutability": "nonpayable",
      "type": "function"
    },
    {
      "inputs": [],
      "name": "nonce",
      "outputs": [
        {
          "internalType": "uint256",
          "name": "",
          "type": "uint256"
        }
      ],
      "stateMutability": "view",
      "type": "function"
    },
    {
      "inputs": [],
      "name": "owner",
      "outputs": [
        {
          "internalType": "address",
          "name": "",
          "type": "address"
        }
      ],
      "stateMutability": "view",
      "type": "function"
    },
    {
      "inputs": [
        {
          "internalType": "address",
          "name": "nftAddress",
          "type": "address"
        },
        {
          "internalType": "uint256",
          "name": "tokenId",
          "type": "uint256"
        },
        {
          "internalType": "uint256",
          "name": "price",
          "type": "uint256"
        },
        {
          "internalType": "uint256",
          "name": "_nonce",
          "type": "uint256"
        },
        {
          "internalType": "bytes",
          "name": "signature",
          "type": "bytes"
        }
      ],
      "name": "performBuy",
      "outputs": [],
      "stateMutability": "payable",
      "type": "function"
    },
    {
      "inputs": [],
      "name": "renounceOwnership",
      "outputs": [],
      "stateMutability": "nonpayable",
      "type": "function"
    },
    {
      "inputs": [
        {
          "internalType": "address",
          "name": "newOwner",
          "type": "address"
        }
      ],
      "name": "transferOwnership",
      "outputs": [],
      "stateMutability": "nonpayable",
      "type": "function"
    },
    {
      "stateMutability": "payable",
      "type": "receive"
    }
  ],
  "bytecode": "0x6080806040523461007a5733156100645760008054336001600160a01b03198216811783556040519290916001600160a01b0316907f8be0079c531659141344cd1fd0a4f28419497f9722a3daafe3b4186f6b6457e09080a361081b90816100808239f35b631e4fbdf760e01b815260006004820152602490fd5b600080fdfe60806040526004361015610018575b361561001657005b005b6000803560e01c8063715018a6146105b25780638da5cb5b1461058b578063affed0e01461056d578063c53a029214610533578063cb6230b4146100f05763f2fde38b14610066575061000e565b346100ed5760203660031901126100ed5761007f61060c565b61008761067e565b6001600160a01b039081169081156100d4576000548260018060a01b0319821617600055167f8be0079c531659141344cd1fd0a4f28419497f9722a3daafe3b4186f6b6457e0600080a380f35b604051631e4fbdf760e01b815260048101849052602490fd5b80fd5b5060a03660031901126100ed5761010561060c565b906084359167ffffffffffffffff83116103cf57366023840112156103cf5767ffffffffffffffff8360040135116103cf573660248460040135850101116103cf5760ff604051846004013560248601823760208186600401358101600181520301902054166104f25760405163020604bf60e21b81526024803560048301526020908290816001600160a01b0386165afa9081156104925783916104d3575b50306001600160a01b039091160361049d576040516331a9108f60e11b81526024803560048301529093906020908590816001600160a01b0386165afa938415610492578394610461575b50604051936bffffffffffffffffffffffff198360601b166020860152602435603486015260443560548601526064356074860152607485528460a081011067ffffffffffffffff60a08701111761044d576102c58560a06102ce9701604052805160208201207f19457468657265756d205369676e6564204d6573736167653a0a3332000000008752601c5260a0603c87209161029e6020601f19601f8960040135011601838301610627565b60048601358183018190526024870160c08301378760c087600401358301015201906106aa565b909691966106e6565b6001600160a01b0390811694168490036104085760443534106103d3576020604051828193600401356024820183376004013581016001815203019020600160ff1982541617905560018060a01b0381163b156103cf578180916064604051809481936323b872dd60e01b8352886004840152336024840152602435604484015260018060a01b03165af180156103c457610398575b50808080809481906044351561038e575b60443591f1156103825780f35b604051903d90823e3d90fd5b6108fc9150610375565b67ffffffffffffffff81116103b05760405238610364565b634e487b7160e01b82526041600452602482fd5b6040513d84823e3d90fd5b5080fd5b60405162461bcd60e51b815260206004820152600d60248201526c4c61636b206f66206d6f6e657960981b6044820152606490fd5b60405162461bcd60e51b815260206004820152601e60248201527f4f726465722063726561746f72206973206e6f74206e6674206f776e657200006044820152606490fd5b634e487b7160e01b84526041600452602484fd5b61048491945060203d60201161048b575b61047c8183610627565b81019061065f565b92386101f0565b503d610472565b6040513d85823e3d90fd5b60405162461bcd60e51b815260206004820152600e60248201526d105c1c1c9bdd994819985a5b195960921b6044820152606490fd5b6104ec915060203d60201161048b5761047c8183610627565b386101a5565b60405162461bcd60e51b815260206004820152601960248201527814da59db985d1d5c99481a5cc8185b1c9958591e481d5cd959603a1b6044820152606490fd5b50346100ed57806003193601126100ed5760025460001981146105595760010160025580f35b634e487b7160e01b82526011600452602482fd5b50346100ed57806003193601126100ed576020600254604051908152f35b50346100ed57806003193601126100ed57546040516001600160a01b039091168152602090f35b50346100ed57806003193601126100ed576105cb61067e565b80546001600160a01b03198116825581906001600160a01b03167f8be0079c531659141344cd1fd0a4f28419497f9722a3daafe3b4186f6b6457e08280a380f35b600435906001600160a01b038216820361062257565b600080fd5b90601f8019910116810190811067ffffffffffffffff82111761064957604052565b634e487b7160e01b600052604160045260246000fd5b9081602091031261062257516001600160a01b03811681036106225790565b6000546001600160a01b0316330361069257565b60405163118cdaa760e01b8152336004820152602490fd5b81519190604183036106db576106d492506020820151906060604084015193015160001a9061076b565b9192909190565b505060009160029190565b600481101561075557806106f8575050565b600181036107125760405163f645eedf60e01b8152600490fd5b600281036107335760405163fce698f760e01b815260048101839052602490fd5b60031461073d5750565b602490604051906335e2f38360e21b82526004820152fd5b634e487b7160e01b600052602160045260246000fd5b91906fa2a8918ca85bafe22016d0b997e4df60600160ff1b0384116107d957926020929160ff608095604051948552168484015260408301526060820152600092839182805260015afa156103825780516001600160a01b038116156107d057918190565b50809160019190565b5050506000916003919056fea2646970667358221220eef1e3af42b49d67df9ddf46ca66e0adafa34d8a9a4cd09b97871e92aacea83664736f6c63430008180033",
  "linkReferences": {},
  "deployedLinkReferences": {}
}