{
	"_format": "hh-sol-artifact-1",
	"contractName": "Market",
	"sourceName": "contracts/Market.sol",
	"abi": [
		{
			"inputs": [
				{
					"internalType": "address",
					"name": "owner",
					"type": "address"
				}
			],
			"name": "OwnableInvalidOwner",
			"type": "error"
		},
		{
			"inputs": [
				{
					"internalType": "address",
					"name": "account",
					"type": "address"
				}
			],
			"name": "OwnableUnauthorizedAccount",
			"type": "error"
		},
		{
			"anonymous": false,
			"inputs": [
				{
					"indexed": false,
					"internalType": "uint256",
					"name": "orderId",
					"type": "uint256"
				},
				{
					"indexed": false,
					"internalType": "address",
					"name": "buyer",
					"type": "address"
				},
				{
					"indexed": false,
					"internalType": "uint256",
					"name": "tokenId",
					"type": "uint256"
				},
				{
					"indexed": false,
					"internalType": "uint256",
					"name": "price",
					"type": "uint256"
				}
			],
			"name": "Buy",
			"type": "event"
		},
		{
			"anonymous": false,
			"inputs": [
				{
					"indexed": false,
					"internalType": "uint256",
					"name": "orderId",
					"type": "uint256"
				},
				{
					"indexed": false,
					"internalType": "address",
					"name": "creator",
					"type": "address"
				},
				{
					"indexed": false,
					"internalType": "uint256",
					"name": "price",
					"type": "uint256"
				},
				{
					"indexed": false,
					"internalType": "address",
					"name": "nft",
					"type": "address"
				},
				{
					"indexed": false,
					"internalType": "uint256",
					"name": "tokenId",
					"type": "uint256"
				}
			],
			"name": "OrderCreated",
			"type": "event"
		},
		{
			"anonymous": false,
			"inputs": [
				{
					"indexed": true,
					"internalType": "address",
					"name": "previousOwner",
					"type": "address"
				},
				{
					"indexed": true,
					"internalType": "address",
					"name": "newOwner",
					"type": "address"
				}
			],
			"name": "OwnershipTransferred",
			"type": "event"
		},
		{
			"anonymous": false,
			"inputs": [
				{
					"indexed": false,
					"internalType": "uint256",
					"name": "proposeId",
					"type": "uint256"
				},
				{
					"indexed": false,
					"internalType": "address",
					"name": "proposer",
					"type": "address"
				},
				{
					"indexed": false,
					"internalType": "uint256",
					"name": "proposedPrice",
					"type": "uint256"
				},
				{
					"indexed": false,
					"internalType": "address",
					"name": "nft",
					"type": "address"
				},
				{
					"indexed": false,
					"internalType": "uint256",
					"name": "tokenId",
					"type": "uint256"
				},
				{
					"indexed": false,
					"internalType": "address",
					"name": "nftOwner",
					"type": "address"
				},
				{
					"indexed": false,
					"internalType": "uint256",
					"name": "orderId",
					"type": "uint256"
				}
			],
			"name": "ProposalCanceled",
			"type": "event"
		},
		{
			"anonymous": false,
			"inputs": [
				{
					"indexed": false,
					"internalType": "uint256",
					"name": "proposeId",
					"type": "uint256"
				},
				{
					"indexed": false,
					"internalType": "address",
					"name": "proposer",
					"type": "address"
				},
				{
					"indexed": false,
					"internalType": "uint256",
					"name": "proposedPrice",
					"type": "uint256"
				},
				{
					"indexed": false,
					"internalType": "address",
					"name": "nft",
					"type": "address"
				},
				{
					"indexed": false,
					"internalType": "uint256",
					"name": "tokenId",
					"type": "uint256"
				},
				{
					"indexed": false,
					"internalType": "address",
					"name": "nftOwner",
					"type": "address"
				},
				{
					"indexed": false,
					"internalType": "uint256",
					"name": "orderId",
					"type": "uint256"
				}
			],
			"name": "ProposalCreated",
			"type": "event"
		},
		{
			"anonymous": false,
			"inputs": [
				{
					"indexed": false,
					"internalType": "uint256",
					"name": "proposeId",
					"type": "uint256"
				},
				{
					"indexed": false,
					"internalType": "address",
					"name": "proposer",
					"type": "address"
				},
				{
					"indexed": false,
					"internalType": "uint256",
					"name": "proposedPrice",
					"type": "uint256"
				},
				{
					"indexed": false,
					"internalType": "address",
					"name": "nft",
					"type": "address"
				},
				{
					"indexed": false,
					"internalType": "uint256",
					"name": "tokenId",
					"type": "uint256"
				},
				{
					"indexed": false,
					"internalType": "address",
					"name": "nftOwner",
					"type": "address"
				},
				{
					"indexed": false,
					"internalType": "uint256",
					"name": "orderId",
					"type": "uint256"
				}
			],
			"name": "ProposalSelected",
			"type": "event"
		},
		{
			"stateMutability": "payable",
			"type": "fallback"
		},
		{
			"inputs": [
				{
					"internalType": "uint256",
					"name": "orderId",
					"type": "uint256"
				}
			],
			"name": "buy",
			"outputs": [],
			"stateMutability": "payable",
			"type": "function"
		},
		{
			"inputs": [
				{
					"internalType": "uint256",
					"name": "proposalId",
					"type": "uint256"
				}
			],
			"name": "cancelProposal",
			"outputs": [],
			"stateMutability": "nonpayable",
			"type": "function"
		},
		{
			"inputs": [
				{
					"internalType": "uint256",
					"name": "orderId",
					"type": "uint256"
				},
				{
					"internalType": "uint256",
					"name": "proposedPrice",
					"type": "uint256"
				}
			],
			"name": "createProposal",
			"outputs": [],
			"stateMutability": "payable",
			"type": "function"
		},
		{
			"inputs": [
				{
					"internalType": "address",
					"name": "nftAddress",
					"type": "address"
				},
				{
					"internalType": "uint256",
					"name": "tokenId",
					"type": "uint256"
				},
				{
					"internalType": "uint256",
					"name": "price",
					"type": "uint256"
				}
			],
			"name": "createSellOrder",
			"outputs": [],
			"stateMutability": "payable",
			"type": "function"
		},
		{
			"inputs": [],
			"name": "fee",
			"outputs": [
				{
					"internalType": "uint256",
					"name": "",
					"type": "uint256"
				}
			],
			"stateMutability": "view",
			"type": "function"
		},
		{
			"inputs": [
				{
					"internalType": "address",
					"name": "nftAddress",
					"type": "address"
				},
				{
					"internalType": "uint256",
					"name": "tokenId",
					"type": "uint256"
				},
				{
					"internalType": "uint256",
					"name": "price",
					"type": "uint256"
				},
				{
					"internalType": "address",
					"name": "sender",
					"type": "address"
				}
			],
			"name": "generateId",
			"outputs": [
				{
					"internalType": "uint256",
					"name": "id",
					"type": "uint256"
				}
			],
			"stateMutability": "pure",
			"type": "function"
		},
		{
			"inputs": [
				{
					"internalType": "uint256",
					"name": "orderId",
					"type": "uint256"
				}
			],
			"name": "orders",
			"outputs": [
				{
					"internalType": "uint256",
					"name": "id",
					"type": "uint256"
				},
				{
					"internalType": "address",
					"name": "creator",
					"type": "address"
				},
				{
					"internalType": "address",
					"name": "nft",
					"type": "address"
				},
				{
					"internalType": "uint256",
					"name": "tokenId",
					"type": "uint256"
				},
				{
					"internalType": "uint256",
					"name": "price",
					"type": "uint256"
				}
			],
			"stateMutability": "view",
			"type": "function"
		},
		{
			"inputs": [],
			"name": "owner",
			"outputs": [
				{
					"internalType": "address",
					"name": "",
					"type": "address"
				}
			],
			"stateMutability": "view",
			"type": "function"
		},
		{
			"inputs": [
				{
					"internalType": "uint256",
					"name": "proposalId",
					"type": "uint256"
				}
			],
			"name": "proposals",
			"outputs": [
				{
					"internalType": "uint256",
					"name": "id",
					"type": "uint256"
				},
				{
					"internalType": "address",
					"name": "nft",
					"type": "address"
				},
				{
					"internalType": "uint256",
					"name": "tokenId",
					"type": "uint256"
				},
				{
					"internalType": "address",
					"name": "nftOwner",
					"type": "address"
				},
				{
					"internalType": "address",
					"name": "proposer",
					"type": "address"
				},
				{
					"internalType": "uint256",
					"name": "proposedPrice",
					"type": "uint256"
				},
				{
					"internalType": "uint256",
					"name": "orderId",
					"type": "uint256"
				}
			],
			"stateMutability": "view",
			"type": "function"
		},
		{
			"inputs": [],
			"name": "renounceOwnership",
			"outputs": [],
			"stateMutability": "nonpayable",
			"type": "function"
		},
		{
			"inputs": [
				{
					"internalType": "uint256",
					"name": "proposalId",
					"type": "uint256"
				}
			],
			"name": "selectProposer",
			"outputs": [],
			"stateMutability": "nonpayable",
			"type": "function"
		},
		{
			"inputs": [
				{
					"internalType": "address",
					"name": "newOwner",
					"type": "address"
				}
			],
			"name": "transferOwnership",
			"outputs": [],
			"stateMutability": "nonpayable",
			"type": "function"
		},
		{
			"stateMutability": "payable",
			"type": "receive"
		}
	],
	"bytecode": "0x6080806040523461007e5733156100685760008054336001600160a01b03198216811783556040519290916001600160a01b0316907f8be0079c531659141344cd1fd0a4f28419497f9722a3daafe3b4186f6b6457e09080a360018055610fa990816100848239f35b631e4fbdf760e01b815260006004820152602490fd5b600080fdfe608080604052600436101561001a575b50361561001857005b005b600090813560e01c908163013cf08b14610d1b5750806304e9e17a14610ae75780636935bda6146108a8578063715018a61461084e57806386a5017c146106415780638da5cb5b1461061a5780639ba1ad19146105cb578063a85c38ef1461056a578063d96a094a14610368578063ddca3f431461034a578063e0a8f6f5146101315763f2fde38b0361000f573461012e57602036600319011261012e576100c0610d91565b6100c8610f47565b6001600160a01b03908116908115610115576000548260018060a01b0319821617600055167f8be0079c531659141344cd1fd0a4f28419497f9722a3daafe3b4186f6b6457e0600080a380f35b604051631e4fbdf760e01b815260048101849052602490fd5b80fd5b503461012e57602036600319011261012e5760043581526003602052604081206101b76040519161016183610e02565b8054835260018060a01b03928360018301541660208201526002820154604082015283600383015416606082015260c060068560048501541693846080850152600581015460a085015201549101521515610eb4565b6004358252600360205260408220604051916101d283610e02565b815483528060018301541692602081019384526002830154906040810191825282600385015416606082015282600485015416946080820194868652600660058201549160a0850192835201549660c08401978852330361030e5784905195511693606461024260015488610da7565b049186838103116102fa57888083606082958395511698519b519701511694600435825260036020528160066040822082815582600182015582600282015582600382015582600482015582600582015501558190808b146102f0575b8a03903390f1156102e5577f3cb1bb21d4247cd586bdda29c5179969ee1107cd09bf4e04c5cb2fbe8a0be050956102df9360405196879660043588610e78565b0390a180f35b6040513d88823e3d90fd5b6108fc915061029f565b634e487b7160e01b89526011600452602489fd5b60405162461bcd60e51b81526020600482015260146024820152732cb7ba9030b932903737ba10383937b837b9b2b960611b6044820152606490fd5b503461012e578060031936011261012e576020600154604051908152f35b506020806003193601126105665760043590818352600291828252608060408520936103d76040519561039a87610dd0565b8054875260018060a01b03968460048960018501541693848a8501528a878201541660408501526003810154606085015201549101521515610e32565b82865280845260408620604051956103ee87610dd0565b815487528060018301541696868101978852818484015416906040810191825260046003850154946060830195865201549586910152843410610531579080899493925116915197511691813b1561052d576040516323b872dd60e01b81526001600160a01b0384166004820152336024820152604481018990529184908390606490829084905af19081156104fc5784928692610510575b5090829383600481948a8352808c528260408120918183558160018401558201558260038201550155828215610507575bf1156104fc577fcc93b0018cb6ae09600353141c5e6471ae473f39200cfe34a3f588895176c28c93608093604051938452339084015260408301526060820152a180f35b6040513d86823e3d90fd5b506108fc6104b8565b61051c91939250610e1e565b6105295783839138610487565b8280fd5b8380fd5b60405162461bcd60e51b815260048101889052600d60248201526c4c61636b206f66206d6f6e657960981b6044820152606490fd5b5080fd5b503461012e57602036600319011261012e57604060a0916004358152600260205220805490600180841b0390816001820154169160028201541660046003830154920154926040519485526020850152604084015260608301526080820152f35b503461012e57608036600319011261012e576105e5610d91565b606435906001600160a01b03821682036106155760209161060d916044359060243590610f00565b604051908152f35b600080fd5b503461012e578060031936011261012e57546040516001600160a01b039091168152602090f35b503461012e5760208060031936011261056657600435908183526003815260408320916106c96040519361067485610e02565b8054855260018060a01b039485600183015416858201526002820154604082015285600383015416606082015260c060068760048501541693846080850152600581015460a085015201549101521515610eb4565b808452600382526040842091604051906106e282610e02565b8354825284600185015416818301908152600285015495604084019687528060038701541691606085019383855282600489015416936080870194855260c0600660058b01549a60a08a019b8c520154970196875233036108165750818091511697519451935116915116945192863b15610812576040516323b872dd60e01b81523360048201526001600160a01b0387166024820152604481018290528881606481838c5af18015610807576107f4575b5087808580156107ea575b8280929181923390f1156107df577f1f66d68942ef54cede3d546cfd01feb5422bc9fe0e4f86398853940b20bb537f966102df9460405197889788610e78565b6040513d89823e3d90fd5b6108fc915061079f565b61080090989198610e1e565b9638610794565b6040513d8b823e3d90fd5b8780fd5b6064906040519062461bcd60e51b8252600482015260116024820152702cb7ba9030b932903737ba1037bbb732b960791b6044820152fd5b503461012e578060031936011261012e57610867610f47565b80546001600160a01b03198116825581906001600160a01b03167f8be0079c531659141344cd1fd0a4f28419497f9722a3daafe3b4186f6b6457e08280a380f35b50604036600319011261012e57600435906024358282526020926002845260408320610919604051916108da83610dd0565b8054835260018060a01b0392608060048560018501541693848b8501528660028201541660408501526003810154606085015201549101521515610e32565b823410610aa657818452600285526040842060405161093781610dd0565b815481528260018301541692838883015285608082600286015416938460408201526004600387015496876060840152015491829101521115610a4f5791818798600687897f5f85e628b24cc1177b1c1fe0d398ad8df0df2c711e3056f020a957618fab3e8b9b899760409b996102df9b896109b533878387610f00565b9e8f95600382519b8c986109c88a610e02565b808a52818a01988952848a0195865260608a0196875260c060808b019a338c5260a081019c8d52019b8c5283525220985189558260018a019451169360018060a01b03199485825416179055516002890155816003890191511683825416179055600487019251169082541617905551600584015551910155604051968796339088610e78565b60405162461bcd60e51b815260048101899052602960248201527f596f752063616e20656173696c792062757920746f6b656e20776974686f7574604482015268081c1c9bdc1bdcd85b60ba1b6064820152608490fd5b60405162461bcd60e51b81526004810186905260196024820152780b2deea40c8d2c8dce840e6cadce840cadcdeeaced0408aa89603b1b6044820152606490fd5b50606036600319011261012e57610afc610d91565b602435604435916064610b1160015485610da7565b043410610cd6576040516331a9108f60e11b8152600481018390526001600160a01b0393828516929091602091908281602481885afa8015610ccb5787918991610c66575b50163303610c2157917f01eb91f5dcefe786687093f16ff50592c3375c92c1678a2001576ed7b6600014959391610b9386948360a0983392610f00565b9460048960405192610ba484610dd0565b888452848401338152604085019088825260608601928a8452604060808801958a87528d815260028a5220965187558060018801925116916001808f1b031992838254161790556002870192511690825416179055516003840155519101556040519485523390850152604084015260608301526080820152a180f35b60405162461bcd60e51b815260048101839052601c60248201527f596f7520617265206e6f74206f776e6572206f6620746865206e6674000000006044820152606490fd5b915050823d8411610cc4575b601f8101601f1916820167ffffffffffffffff811183821017610cb05784918391604052810103126108125751868116810361081257869038610b56565b634e487b7160e01b8a52604160045260248afd5b503d610c72565b6040513d8a823e3d90fd5b60405162461bcd60e51b815260206004820152601c60248201527f596f75206d757374207061792066656520746f2073656c6c206e6674000000006044820152606490fd5b90503461056657602036600319011261056657604060e092600435815260036020522080549060018060a01b038060018301541690600283015481600385015416916004850154169260066005860154950154958752602087015260408601526060850152608084015260a083015260c0820152f35b600435906001600160a01b038216820361061557565b81810292918115918404141715610dba57565b634e487b7160e01b600052601160045260246000fd5b60a0810190811067ffffffffffffffff821117610dec57604052565b634e487b7160e01b600052604160045260246000fd5b60e0810190811067ffffffffffffffff821117610dec57604052565b67ffffffffffffffff8111610dec57604052565b15610e3957565b60405162461bcd60e51b8152602060048201526017602482015276151a1a5cc81bdc99195c88191bd95cdb9d08195e1a5cdd604a1b6044820152606490fd5b939160c095919897969260e0860199865260018060a01b0394858093166020880152604087015216606085015260808401521660a08201520152565b15610ebb57565b60405162461bcd60e51b815260206004820152601a60248201527f546869732070726f706f73616c20646f65736e742065786973740000000000006044820152606490fd5b90926040519260208401946bffffffffffffffffffffffff19809460601b1686526034850152605484015260601b16607482015260688152610f4181610dd0565b51902090565b6000546001600160a01b03163303610f5b57565b60405163118cdaa760e01b8152336004820152602490fdfea2646970667358221220af4ed394218e6b9f22a578cc77163795e9b41426090ef53439098f6cfa909aba64736f6c63430008180033",
	"linkReferences": {},
	"deployedLinkReferences": {}
}