{
	"_format": "hh-sol-artifact-1",
	"contractName": "Orderbook",
	"sourceName": "contracts/Orderbook.sol",
	"abi": [
		{
			"inputs": [],
			"stateMutability": "nonpayable",
			"type": "constructor"
		},
		{
			"anonymous": false,
			"inputs": [
				{
					"indexed": false,
					"internalType": "bytes32",
					"name": "id",
					"type": "bytes32"
				},
				{
					"indexed": false,
					"internalType": "address",
					"name": "creator",
					"type": "address"
				},
				{
					"indexed": false,
					"internalType": "address",
					"name": "tokenAddress",
					"type": "address"
				},
				{
					"indexed": false,
					"internalType": "uint256",
					"name": "tokenId",
					"type": "uint256"
				},
				{
					"indexed": false,
					"internalType": "uint256",
					"name": "amount",
					"type": "uint256"
				},
				{
					"indexed": false,
					"internalType": "uint256",
					"name": "pricePerOne",
					"type": "uint256"
				}
			],
			"name": "BuyOrderCreated",
			"type": "event"
		},
		{
			"anonymous": false,
			"inputs": [
				{
					"indexed": false,
					"internalType": "bytes32",
					"name": "id",
					"type": "bytes32"
				},
				{
					"indexed": false,
					"internalType": "address",
					"name": "creator",
					"type": "address"
				},
				{
					"indexed": false,
					"internalType": "address",
					"name": "tokenAddress",
					"type": "address"
				},
				{
					"indexed": false,
					"internalType": "uint256",
					"name": "tokenId",
					"type": "uint256"
				},
				{
					"indexed": false,
					"internalType": "uint256",
					"name": "amount",
					"type": "uint256"
				},
				{
					"indexed": false,
					"internalType": "uint256",
					"name": "pricePerOne",
					"type": "uint256"
				}
			],
			"name": "BuyOrderRemoved",
			"type": "event"
		},
		{
			"anonymous": false,
			"inputs": [
				{
					"indexed": false,
					"internalType": "bytes32",
					"name": "id",
					"type": "bytes32"
				},
				{
					"indexed": false,
					"internalType": "address",
					"name": "creator",
					"type": "address"
				},
				{
					"indexed": false,
					"internalType": "address",
					"name": "tokenAddress",
					"type": "address"
				},
				{
					"indexed": false,
					"internalType": "uint256",
					"name": "tokenId",
					"type": "uint256"
				},
				{
					"indexed": false,
					"internalType": "uint256",
					"name": "amount",
					"type": "uint256"
				},
				{
					"indexed": false,
					"internalType": "uint256",
					"name": "pricePerOne",
					"type": "uint256"
				}
			],
			"name": "BuyOrderUpdated",
			"type": "event"
		},
		{
			"anonymous": false,
			"inputs": [
				{
					"indexed": false,
					"internalType": "bytes32",
					"name": "id",
					"type": "bytes32"
				},
				{
					"indexed": false,
					"internalType": "address",
					"name": "creator",
					"type": "address"
				},
				{
					"indexed": false,
					"internalType": "address",
					"name": "tokenAddress",
					"type": "address"
				},
				{
					"indexed": false,
					"internalType": "uint256",
					"name": "tokenId",
					"type": "uint256"
				},
				{
					"indexed": false,
					"internalType": "uint256",
					"name": "amount",
					"type": "uint256"
				},
				{
					"indexed": false,
					"internalType": "uint256",
					"name": "pricePerOne",
					"type": "uint256"
				}
			],
			"name": "SellOrderCreated",
			"type": "event"
		},
		{
			"anonymous": false,
			"inputs": [
				{
					"indexed": false,
					"internalType": "bytes32",
					"name": "id",
					"type": "bytes32"
				},
				{
					"indexed": false,
					"internalType": "address",
					"name": "creator",
					"type": "address"
				},
				{
					"indexed": false,
					"internalType": "address",
					"name": "tokenAddress",
					"type": "address"
				},
				{
					"indexed": false,
					"internalType": "uint256",
					"name": "tokenId",
					"type": "uint256"
				},
				{
					"indexed": false,
					"internalType": "uint256",
					"name": "amount",
					"type": "uint256"
				},
				{
					"indexed": false,
					"internalType": "uint256",
					"name": "pricePerOne",
					"type": "uint256"
				}
			],
			"name": "SellOrderRemoved",
			"type": "event"
		},
		{
			"anonymous": false,
			"inputs": [
				{
					"indexed": false,
					"internalType": "bytes32",
					"name": "id",
					"type": "bytes32"
				},
				{
					"indexed": false,
					"internalType": "address",
					"name": "creator",
					"type": "address"
				},
				{
					"indexed": false,
					"internalType": "address",
					"name": "tokenAddress",
					"type": "address"
				},
				{
					"indexed": false,
					"internalType": "uint256",
					"name": "tokenId",
					"type": "uint256"
				},
				{
					"indexed": false,
					"internalType": "uint256",
					"name": "amount",
					"type": "uint256"
				},
				{
					"indexed": false,
					"internalType": "uint256",
					"name": "pricePerOne",
					"type": "uint256"
				}
			],
			"name": "SellOrderUpdated",
			"type": "event"
		},
		{
			"inputs": [
				{
					"internalType": "uint256",
					"name": "tokenId",
					"type": "uint256"
				},
				{
					"internalType": "address",
					"name": "tokenAddress",
					"type": "address"
				},
				{
					"internalType": "uint256",
					"name": "amount",
					"type": "uint256"
				},
				{
					"internalType": "uint256",
					"name": "pricePerOne",
					"type": "uint256"
				},
				{
					"internalType": "bytes32",
					"name": "insertionId",
					"type": "bytes32"
				}
			],
			"name": "createBuyOrder",
			"outputs": [],
			"stateMutability": "payable",
			"type": "function"
		},
		{
			"inputs": [
				{
					"internalType": "uint256",
					"name": "tokenId",
					"type": "uint256"
				},
				{
					"internalType": "address",
					"name": "tokenAddress",
					"type": "address"
				},
				{
					"internalType": "uint256",
					"name": "amount",
					"type": "uint256"
				},
				{
					"internalType": "uint256",
					"name": "pricePerOne",
					"type": "uint256"
				},
				{
					"internalType": "bytes32",
					"name": "insertionId",
					"type": "bytes32"
				}
			],
			"name": "createSellOrder",
			"outputs": [],
			"stateMutability": "nonpayable",
			"type": "function"
		},
		{
			"inputs": [
				{
					"internalType": "address",
					"name": "tokenAddress",
					"type": "address"
				},
				{
					"internalType": "uint256",
					"name": "tokenId",
					"type": "uint256"
				},
				{
					"internalType": "uint256",
					"name": "amount",
					"type": "uint256"
				},
				{
					"internalType": "uint256",
					"name": "price",
					"type": "uint256"
				},
				{
					"internalType": "address",
					"name": "sender",
					"type": "address"
				}
			],
			"name": "generateId",
			"outputs": [
				{
					"internalType": "bytes32",
					"name": "id",
					"type": "bytes32"
				}
			],
			"stateMutability": "pure",
			"type": "function"
		},
		{
			"inputs": [],
			"name": "getBuyHead",
			"outputs": [
				{
					"internalType": "bytes32",
					"name": "",
					"type": "bytes32"
				}
			],
			"stateMutability": "view",
			"type": "function"
		},
		{
			"inputs": [],
			"name": "getSellHead",
			"outputs": [
				{
					"internalType": "bytes32",
					"name": "",
					"type": "bytes32"
				}
			],
			"stateMutability": "view",
			"type": "function"
		},
		{
			"inputs": [],
			"name": "linkedListBuy",
			"outputs": [
				{
					"internalType": "bytes32",
					"name": "head",
					"type": "bytes32"
				}
			],
			"stateMutability": "view",
			"type": "function"
		},
		{
			"inputs": [],
			"name": "linkedListSell",
			"outputs": [
				{
					"internalType": "bytes32",
					"name": "head",
					"type": "bytes32"
				}
			],
			"stateMutability": "view",
			"type": "function"
		},
		{
			"inputs": [
				{
					"internalType": "bytes32",
					"name": "buyId",
					"type": "bytes32"
				}
			],
			"name": "matchBuyOrder",
			"outputs": [],
			"stateMutability": "nonpayable",
			"type": "function"
		},
		{
			"inputs": [
				{
					"internalType": "bytes32",
					"name": "sellId",
					"type": "bytes32"
				}
			],
			"name": "matchSellOrder",
			"outputs": [],
			"stateMutability": "nonpayable",
			"type": "function"
		}
	],
	"bytecode": "0x60808060405234610016576113e5908161001c8239f35b600080fdfe60a060408181526004918236101561001657600080fd5b600092833560e01c91826305e6aed21461048a57508163486c9eb21461042f5781634df049e514610410578163674bc5421461041057816367601aa11461010557816395250ff9146100e657816398c5e186146100c9578163b316171b146100a9575063b9dfacad1461008857600080fd5b346100a557816003193601126100a5576020906003549051908152f35b5080fd5b8390346100a55760203660031901126100a5576100c69035610e5a565b80f35b8390346100a55760203660031901126100a5576100c69035610aec565b5050346100a557816003193601126100a5576020906003549051908152f35b8383610110366107e4565b9391929490966101208885610a27565b34106103e057815163e985e9c560e01b815233828201908152306020828101919091526001600160a01b0389169792909182908290819060400103818b5afa9081156103d65790610178918b916103a9575b506108b7565b811515928361038c575b6101cc610192338d8a8a8e6109d8565b9886519061019f8261081b565b8a82523385830152878201528760608201528860808201528c60a0820152898c5260058452868c20610940565b8982526003936101e185878d2001541561109b565b1561030057828a5289825283858b200154156102bf5750828288928c979560608d9e8b7fd5754b1e24c48d55f27a63643a76cc4de68af1307cb5df58570c64b1a19f94529f9a8b819a6102b99f9d528087528181208683519161024383610861565b8054835260018101548a840152600281015485840152015495869101528082519761026d89610861565b8b8952808901948552838901958652606089019687528b8252522094518555516001850155516002840155519101558b52828b2001555b6102ad86610e5a565b519586953390876109a0565b0390a180f35b60649185519162461bcd60e51b8352820152601d60248201527f496e73657274696f6e206e6f646520646f6573206e6f742065786973740000006044820152fd5b506102b99593915088999492877fd5754b1e24c48d55f27a63643a76cc4de68af1307cb5df58570c64b1a19f94529a528a825261034281848d2001541561109b565b8783519261034f84610861565b8184528c858286019189835280828801948c86526060890196828852825252209451855551600185015551600284015551910155856001556102a4565b828a52600582526103a481868c2001548811156108f4565b610182565b6103c99150833d85116103cf575b6103c1818361087d565b81019061089f565b8c610172565b503d6103b7565b85513d8c823e3d90fd5b6020606492519162461bcd60e51b8352820152600b60248201526a098c2c6d640decc408aa8960ab1b6044820152fd5b5050346100a557816003193601126100a5576020906001549051908152f35b9050346104865760a0366003190112610486576001600160a01b03929035908382168203610483576084359384168403610483575060209261047c916064359060443590602435906109d8565b9051908152f35b80fd5b8280fd5b90849250346104865761049c366107e4565b63e985e9c560e01b87523386880190815230602082810191909152929994976001600160a01b03891697949695949293929183908290819060400103818b5afa9081156103d657906104f4918b916107cd57506108b7565b8351627eeac760e11b815233828201526024810186905282816044818b5afa9081156103d6579087918b91610798575b50106107575790838261058861054f8b8e8e8998879a1515978861073a575b5050508b8b33936109d8565b9986519061055c8261081b565b8b82523386830152878201528860608201528960808201528d60a08201528a8d52828552868d20610940565b6002918284526105a08c60039788912001541561109b565b156106af57838b5281835284868c2001541561066c5750928288928260608e99978e9f7fab9fba2e97b98b4c23ba8ec725fbab6afd2666e9238f42f36475a680e297ab0d9f9c8b8e6102b99f9b839e9c528488528181208783519161060483610861565b8054835260018101548b8401528781015485840152015496879101528482519861062d8a610861565b8c8a52808a01948552838a0195865260608a019788528c83525220955186555160018601555190840155519101558b52828b2001555b6102ad86610aec565b855162461bcd60e51b8152908101839052601d60248201527f496e73657274696f6e206e6f646520646f6573206e6f742065786973740000006044820152606490fd5b506102b9969492509289818993829d9896857fab9fba2e97b98b4c23ba8ec725fbab6afd2666e9238f42f36475a680e297ab0d9e528082526106f68388862001541561109b565b86519361070285610861565b8685528285018a815288808701928d84528460608901968288528b835252209551865551600186015551908401555191015555610663565b828b61074f9452828b522001548d10156108f4565b8e858a610543565b60649184519162461bcd60e51b8352820152601b60248201527f496e73756666696369656e7420546f6b656e732062616c616e636500000000006044820152fd5b809250848092503d83116107c6575b6107b1818361087d565b810103126107c2578690518c610524565b8980fd5b503d6107a7565b6103c99150843d86116103cf576103c1818361087d565b60a090600319011261081657600435906024356001600160a01b03811681036108165790604435906064359060843590565b600080fd5b60c0810190811067ffffffffffffffff82111761083757604052565b634e487b7160e01b600052604160045260246000fd5b67ffffffffffffffff811161083757604052565b6080810190811067ffffffffffffffff82111761083757604052565b90601f8019910116810190811067ffffffffffffffff82111761083757604052565b90816020910312610816575180151581036108165790565b156108be57565b60405162461bcd60e51b815260206004820152600e60248201526d105c1c1c9bdd994819985a5b195960921b6044820152606490fd5b156108fb57565b60405162461bcd60e51b815260206004820152601b60248201527f4f66662d636861696e2063616c63756c6174696f6e206572726f7200000000006044820152606490fd5b8151815560208201516001820180546001600160a01b039283166001600160a01b0319918216179091556040840151600284018054919093169116179055606082015160038201556080820151600482015560a090910151600590910155565b9081526001600160a01b039182166020820152911660408201526060810191909152608081019190915260a081019190915260c00190565b91929390936040519360208501956bffffffffffffffffffffffff19809560601b16875260348601526054850152607484015260601b16609482015260888152610a218161081b565b51902090565b81810292918115918404141715610a3a57565b634e487b7160e01b600052601160045260246000fd5b90604051610a5d8161081b565b8254815260018301546001600160a01b0390811660208301526002840154166040820152600383015460608201526004830154608082015260059092015460a0830152565b81810392916000138015828513169184121617610a3a57565b60056000918281558260018201558260028201558260038201558260048201550155565b91908203918211610a3a57565b6000818152602060048152610b0360408320610a50565b9060a082015191608081015160018060a01b0395868484015116948760406060860151950151166080526001549283885260058652610b4460408920610a50565b98868a01511693608060a08b01519a0151998a97610b628585610a27565b9b610b6d8582610aa2565b8387111580610e51575b610b8c575b5050505050505050505050505050565b8c811315610d035750610c3b9388610c278b98958f95600460408860056000805160206113708339815191529f9d9a8b8f9b610bfc8d7f97474a10b713cdaf73649d915776f4b94c55718e0d7849f8669af8462026a0809e610c019552888a52610bf7888820610abb565b6110dd565b610adf565b94610c0d87878c6112cb565b89835252200155859d8a60405195869560805191876109a0565b0390a16040519485948b60805191876109a0565b0390a15b6080513b15610cff57604051637921219560e11b81526001600160a01b03808616600483015290911660248201526044810191909152606481019190915260a06084820152600060a482015282818060c481010381836080515af18015610cf457610ce1575b50818080948193828215610cd8575bf115610ccc5780808080808080808080808080610b7c565b604051903d90823e3d90fd5b506108fc610cb4565b610ced9092919261084d565b9038610ca5565b6040513d85823e3d90fd5b8480fd5b8c919a509c9193969c9594929512600014610ddc5750927f990d9692448163d38baad10d6a852417700cccde976a3faf0f2af292e2e0cf7087610da88795610da38f968f99610dd4988f60408d6000805160206113908339815191529f8a9f600494610d84838794610d8a945260058b52610d7f878720610abb565b6111db565b87610adf565b9685610d988b8a809961125f565b835252200155610adf565b610a27565b9c610dbf848c6040519485948d60805191876109a0565b0390a1876040519485948860805191876109a0565b0390a1610c3f565b9a92906000805160206113908339815191526000805160206113708339815191529688610c278b988f6040610e3f916005610dd49b610e1a8e6110dd565b8d835260048152610e2c848420610abb565b610e35896111db565b8883525220610abb565b8d8a60405195869560805191876109a0565b50841515610b77565b600081815260209160058352610e7260408320610a50565b9060018060a01b039182858201511683604083015116608052608060a0830151920151926003549081875260048852610ead60408820610a50565b9560a08701519160606080890151928b8a01511698015195879a610ed18585610a27565b9b610edc858b610aa2565b8684101580611092575b610efa575050505050505050505050505050565b8c811315610f77575050927f97474a10b713cdaf73649d915776f4b94c55718e0d7849f8669af8462026a080610c3b9388610c27858f60048f918f9c999060056000805160206113708339815191529f9d610c0d8f94610f718e610f6b8860409989528a8752610bf78a8a20610abb565b89610adf565b8c6112cb565b8c909d919a9d97929497969593961260001461101c57508593610da3610dd4948a97948f948f6040816004610d8a6000805160206113908339815191529f9a610d848c610fd09d85985260058b52610d7f878720610abb565b9a7f990d9692448163d38baad10d6a852417700cccde976a3faf0f2af292e2e0cf706040518061100885858a8d608051908c876109a0565b0390a16040519485948860805191876109a0565b9b6000805160206113708339815191529688610c278b988f946110816040600080516020611390833981519152976005610dd49c8b9e9c9b61105d816110dd565b83526004815261106e848420610abb565b6110778a6111db565b8983525220610abb565b8a60405195869560805191876109a0565b50871515610ee6565b156110a257565b60405162461bcd60e51b81526020600482015260136024820152724e6f646520616c72656164792065786973747360681b6044820152606490fd5b600090808252602060028152604090818420541561119a576003928084541460001461112e579081600292865282825284848720015485555b85525282208281558260018201558260028201550155565b611137816112fa565b801561115c579060029291818752838352858588200154908752858588200155611116565b835162461bcd60e51b8152600481018490526017602482015276141c995d9a5bdd5cc81b9bd919481b9bdd08199bdd5b99604a1b6044820152606490fd5b606491519062461bcd60e51b825280600483015260248201527f4e6f64652077697468207468697320494420646f6573206e6f742065786973746044820152fd5b6000908082526020828152604090818420541561119a578390836001541460001461122b578360039483528282528484842001546001555b82525282208281558260018201558260028201550155565b9192905061123881611336565b801561115c5791816003949386938452838352858585200154908452858585200155611213565b9081600052600260205260026040600020015415611290576002916000528160205260406000209060018201550155565b60405162461bcd60e51b8152602060048201526013602482015272139bd91948191bd95cc81b9bdd08195e1a5cdd606a1b6044820152606490fd5b906000918083528260205260026040842001541561129057826040916002945280602052209060018201550155565b6003906003545b60008181526002602052836040822001549183831461132e575081156113275750611301565b9250505090565b935050505090565b60019081600154925b61134857505090565b60008381528060205260036040822001549383851461132e5750831561132757508061133f56fede91702d51290b4d2459283ee099de658fbf9d03519b916a9aad72f48212c842a05c47326e469fd148302a51b93f0684f9b34d829e6bd14f277695bfb5f57785a264697066735822122055b4cbe77bcf3a86af307c5cefb38ae021bc5facdcec1dc493fb7a3f885591c564736f6c63430008180033",
	"linkReferences": {},
	"deployedLinkReferences": {}
}