{
	"_format": "hh-sol-artifact-1",
	"contractName": "Orderbook",
	"sourceName": "contracts/Orderbook.sol",
	"abi": [
		{
			"inputs": [
				{
					"internalType": "address",
					"name": "_linkedListSell",
					"type": "address"
				},
				{
					"internalType": "address",
					"name": "_linkedListBuy",
					"type": "address"
				}
			],
			"stateMutability": "nonpayable",
			"type": "constructor"
		},
		{
			"anonymous": false,
			"inputs": [
				{
					"indexed": false,
					"internalType": "bytes32",
					"name": "id",
					"type": "bytes32"
				},
				{
					"indexed": false,
					"internalType": "address",
					"name": "creator",
					"type": "address"
				},
				{
					"indexed": false,
					"internalType": "address",
					"name": "tokenAddress",
					"type": "address"
				},
				{
					"indexed": false,
					"internalType": "uint256",
					"name": "tokenId",
					"type": "uint256"
				},
				{
					"indexed": false,
					"internalType": "uint256",
					"name": "amount",
					"type": "uint256"
				}
			],
			"name": "BuyOrderCreated",
			"type": "event"
		},
		{
			"anonymous": false,
			"inputs": [
				{
					"indexed": false,
					"internalType": "bytes32",
					"name": "id",
					"type": "bytes32"
				},
				{
					"indexed": false,
					"internalType": "address",
					"name": "creator",
					"type": "address"
				},
				{
					"indexed": false,
					"internalType": "address",
					"name": "tokenAddress",
					"type": "address"
				},
				{
					"indexed": false,
					"internalType": "uint256",
					"name": "tokenId",
					"type": "uint256"
				},
				{
					"indexed": false,
					"internalType": "uint256",
					"name": "amount",
					"type": "uint256"
				}
			],
			"name": "SellOrderCreated",
			"type": "event"
		},
		{
			"inputs": [
				{
					"internalType": "uint256",
					"name": "tokenId",
					"type": "uint256"
				},
				{
					"internalType": "address",
					"name": "tokenAddress",
					"type": "address"
				},
				{
					"internalType": "uint256",
					"name": "amount",
					"type": "uint256"
				},
				{
					"internalType": "uint256",
					"name": "pricePerOne",
					"type": "uint256"
				},
				{
					"internalType": "bytes32",
					"name": "insertionId",
					"type": "bytes32"
				}
			],
			"name": "createBuyOrder",
			"outputs": [],
			"stateMutability": "payable",
			"type": "function"
		},
		{
			"inputs": [
				{
					"internalType": "uint256",
					"name": "tokenId",
					"type": "uint256"
				},
				{
					"internalType": "address",
					"name": "tokenAddress",
					"type": "address"
				},
				{
					"internalType": "uint256",
					"name": "amount",
					"type": "uint256"
				},
				{
					"internalType": "uint256",
					"name": "pricePerOne",
					"type": "uint256"
				},
				{
					"internalType": "bytes32",
					"name": "insertionId",
					"type": "bytes32"
				}
			],
			"name": "createSellOrder",
			"outputs": [],
			"stateMutability": "nonpayable",
			"type": "function"
		},
		{
			"inputs": [
				{
					"internalType": "address",
					"name": "tokenAddress",
					"type": "address"
				},
				{
					"internalType": "uint256",
					"name": "tokenId",
					"type": "uint256"
				},
				{
					"internalType": "uint256",
					"name": "amount",
					"type": "uint256"
				},
				{
					"internalType": "uint256",
					"name": "price",
					"type": "uint256"
				},
				{
					"internalType": "address",
					"name": "sender",
					"type": "address"
				}
			],
			"name": "generateId",
			"outputs": [
				{
					"internalType": "bytes32",
					"name": "id",
					"type": "bytes32"
				}
			],
			"stateMutability": "pure",
			"type": "function"
		},
		{
			"inputs": [],
			"name": "linkedListBuy",
			"outputs": [
				{
					"internalType": "contract LinkedList",
					"name": "",
					"type": "address"
				}
			],
			"stateMutability": "view",
			"type": "function"
		},
		{
			"inputs": [],
			"name": "linkedListSell",
			"outputs": [
				{
					"internalType": "contract LinkedList",
					"name": "",
					"type": "address"
				}
			],
			"stateMutability": "view",
			"type": "function"
		},
		{
			"inputs": [
				{
					"internalType": "bytes32",
					"name": "buyId",
					"type": "bytes32"
				}
			],
			"name": "matchBuyOrder",
			"outputs": [],
			"stateMutability": "nonpayable",
			"type": "function"
		},
		{
			"inputs": [
				{
					"internalType": "bytes32",
					"name": "sellId",
					"type": "bytes32"
				}
			],
			"name": "matchSellOrder",
			"outputs": [],
			"stateMutability": "nonpayable",
			"type": "function"
		}
	],
	"bytecode": "0x60803461008d57601f61112838819003918201601f19168301916001600160401b0383118484101761009257808492604094855283398101031261008d57610052602061004b836100a8565b92016100a8565b600080546001600160a01b039384166001600160a01b0319918216179091556001805492909316911617905560405161106b90816100bd8239f35b600080fd5b634e487b7160e01b600052604160045260246000fd5b51906001600160a01b038216820361008d5756fe608060408181526004918236101561001657600080fd5b600092833560e01c91826305e6aed2146103a157508163486c9eb214610345578163674bc5421461031c57816367601aa1146100d957816398c5e186146100bc578163b316171b1461009c575063b9dfacad1461007257600080fd5b34610098578160031936011261009857905490516001600160a01b039091168152602090f35b5080fd5b839034610098576020366003190112610098576100b99035610c84565b80f35b839034610098576020366003190112610098576100b990356108e9565b9190506100e53661061f565b906100f68184959794989698610809565b34106102eb57825163e985e9c560e01b81523381870190815230602082810191909152968a94939290916001600160a01b03918a8316918a90829081906040010381855afa9081156102e1576101798c878f8d908f8a8f8f8f6101676101b09d9c60039c84916102b4575b506106d1565b80610296575b505050505033936107ba565b9a89519261018684610651565b8c845233828501528a8401528d60608401528a60808401528660a08401528b89525287872061075a565b60015416803b15610292578551635122361960e01b815291820193845260208401889052604084018790526060840192909252918391839182908490829060800103925af180156102885761026c575b5050907f90acac0ea98c0598db6e1556db95e67a201d4226da26a8a61e121be913cc9831946102669261023285610c84565b519384523360208501526001600160a01b0390941660408401526060830193909352608082019290925290819060a0820190565b0390a180f35b61027890939293610683565b61028457908538610200565b8580fd5b83513d84823e3d90fd5b8480fd5b6102aa948b9183525220015483111561070e565b8f8a8f8f8f61016d565b6102d49150873d89116102da575b6102cc8183610697565b8101906106b9565b38610161565b503d6102c2565b88513d89823e3d90fd5b825162461bcd60e51b8152602081870152600b60248201526a098c2c6d640decc408aa8960ab1b6044820152606490fd5b50503461009857816003193601126100985760015490516001600160a01b039091168152602090f35b9050823461039e5760a036600319011261039e57506001600160a01b03919035828116810361039957608435928316830361039957602092610392916064359060443590602435906107ba565b9051908152f35b600080fd5b80fd5b8492503461061b576103b23661061f565b63e985e9c560e01b8652338688019081523060208281019190915294976001600160a01b03808a1698959796949593949193909282908290819060400103818c5afa9081156105f4579061040c918c916105fe57506106d1565b8a51627eeac760e11b815233848201526024810187905281816044818c5afa9081156105f4579088918c916105bf575b501061057d578a6002610499928c868489610560575b5050506104638c898c8c33936107ba565b9a83519361047085610651565b8c855233838601528401528860608401528960808401528760a08401528a8d52528b8b2061075a565b88541692833b1561055c578951635122361960e01b81529182019283526020830187905260408301869052606083015291879183919082908490829060800103925af1801561055257610519575b5090610266917f4d97fc7aac0abf1b96e1a9c1ca50ef0bde1a6d150fc28669cadde6d2c1cc2cd89596610232856108e9565b907f4d97fc7aac0abf1b96e1a9c1ca50ef0bde1a6d150fc28669cadde6d2c1cc2cd8956105496102669493610683565b955090916104e7565b87513d88823e3d90fd5b8880fd5b828a61057594528585522001548b101561070e565b8c8684610452565b826064918c519162461bcd60e51b8352820152601b60248201527f496e73756666696369656e7420546f6b656e732062616c616e636500000000006044820152fd5b809250838092503d83116105ed575b6105d88183610697565b810103126105e9578790518d61043c565b8a80fd5b503d6105ce565b8c513d8d823e3d90fd5b6106159150833d85116102da576102cc8183610697565b8d610161565b8280fd5b60a090600319011261039957600435906024356001600160a01b03811681036103995790604435906064359060843590565b60c0810190811067ffffffffffffffff82111761066d57604052565b634e487b7160e01b600052604160045260246000fd5b67ffffffffffffffff811161066d57604052565b90601f8019910116810190811067ffffffffffffffff82111761066d57604052565b90816020910312610399575180151581036103995790565b156106d857565b60405162461bcd60e51b815260206004820152600e60248201526d105c1c1c9bdd994819985a5b195960921b6044820152606490fd5b1561071557565b60405162461bcd60e51b815260206004820152601b60248201527f4f66662d636861696e2063616c63756c6174696f6e206572726f7200000000006044820152606490fd5b8151815560208201516001820180546001600160a01b039283166001600160a01b0319918216179091556040840151600284018054919093169116179055606082015160038201556080820151600482015560a090910151600590910155565b91929390936040519360208501956bffffffffffffffffffffffff19809560601b16875260348601526054850152607484015260601b1660948201526088815261080381610651565b51902090565b8181029291811591840414171561081c57565b634e487b7160e01b600052601160045260246000fd5b9060405161083f81610651565b8254815260018301546001600160a01b0390811660208301526002840154166040820152600383015460608201526004830154608082015260059092015460a0830152565b60056000918281558260018201558260028201558260038201558260048201550155565b9190820391821161081c57565b929060c0949260018060a01b0380921685521660208401526040830152606082015260a06080820152600060a08201520190565b60009080825260209060028252604091610904838520610832565b60a08101519260808201519260018060a01b039081818501511694818389606088015197015116938060015416908a5194858093638f7dcfa360e01b825260049788915afa918215610c1d578c92610c51575b50818c526003835261096a8b8d20610832565b9281818501511697608060a0860151950151916109878d88610809565b9c8681111580610c48575b6109a9575b50505050505050505050505050505050565b8f918f9189861115610b465750829160026109ca9286899652528220610884565b541690813b15610b42578e9160248f9284935194859384926305b1620960e21b84528d8401525af18015610b365786918f91610b1f575b5050610a0c916108a8565b906001541691823b15610b1b578b51630309988160e61b815286810191825260208201929092526040810193909352918b91839182908490829060600103925af18015610b1157908a91610afd575b50505b823b1561055c578751637921219560e11b8152948994869493859387938593610a8a938c9086016108b5565b03925af18015610af35790859291610ad7575b508180938192828215610ace575bf115610ac4578080808080808080808080808080610997565b51903d90823e3d90fd5b506108fc610aab565b610ae390929192610683565b610aef57839038610a9d565b8380fd5b84513d87823e3d90fd5b610b0690610683565b61055c578838610a5b565b89513d8c823e3d90fd5b8c80fd5b610b2a919250610683565b610b1b57848d38610a01565b8e8e51903d90823e3d90fd5b8e80fd5b9896949e50610b619395975060039085849394525220610884565b836001541690813b15610c44578d91602483928f5194859384926305b1620960e21b84528c8401525af18015610c3a57610c27575b50610ba18a836108a8565b928c541690813b15610b1b578b51630309988160e61b81528087019182526020820185905260408201869052918d9183919082908490829060600103925af18015610c1d57908c91610c09575b5050610c039291610bfe916108a8565b610809565b95610a5e565b610c1290610683565b6105e9578a38610bee565b8b513d8e823e3d90fd5b610c33909c919c610683565b9a38610b96565b8c513d8f823e3d90fd5b8d80fd5b50851515610992565b9091508281813d8311610c7d575b610c698183610697565b81010312610c7957519038610957565b8b80fd5b503d610c5f565b60009080825260209060038252610c9d60408420610832565b8281015160408083015160a084015160809094015187549251638f7dcfa360e01b815290966001600160a01b0394851695928516949093919291849184916004918391165afa918215610ec7578892611002575b5081885260028352610d0560408920610832565b9560a087015197608088015193606060018060a01b03878b0151169901519582610d2f8c88610809565b9b8087101580610ff9575b610d4f575b5050505050505050505050505050565b87851115610ef8575050600290828d5252610d6c60408c20610884565b8a546001600160a01b031690813b15610c79578b916024839260405194859384926305b1620960e21b845260048401525af18015610eed5785918c91610ed2575b5050610db8916108a8565b6001546001600160a01b031691823b156105e957604051630309988160e61b815260048101919091526024810191909152604481019290925288908290606490829084905af18015610ec757908891610eb3575b5050925b823b15610eaf5791610e3e939187809460405196879586948593637921219560e11b85528b600486016108b5565b03925af18015610ea45790849291610e8c575b508180938192828215610e83575bf115610e775780808080808080808080808080610d3f565b604051903d90823e3d90fd5b506108fc610e5f565b610e9890929192610683565b61061b57829038610e51565b6040513d86823e3d90fd5b8680fd5b610ebc90610683565b610eaf578638610e0c565b6040513d8a823e3d90fd5b610edd919250610683565b610ee957838a38610dad565b8980fd5b6040513d8d823e3d90fd5b9694600392919a9c50809396508d5252610f1460408c20610884565b6001546001600160a01b031690813b15610c79578b916024839260405194859384926305b1620960e21b845260048401525af18015610eed57610fe4575b50610f5d90826108a8565b9160018060a01b038a541690813b156105e957604051630309988160e61b815260048101919091526024810184905260448101859052908a908290606490829084905af18015610fd957908a91610fc5575b5050610fbf9291610bfe916108a8565b94610e10565b610fce90610683565b61055c578838610faf565b6040513d8c823e3d90fd5b99610ff2610f5d929b610683565b9990610f52565b50831515610d3a565b9091508281813d831161102e575b61101a8183610697565b8101031261102a57519038610cf1565b8780fd5b503d61101056fea2646970667358221220b2834ecea5377568365888fdaabebd43c0e8f6d4cad5cd8341b8693c1d0dff3d64736f6c63430008180033",
	"linkReferences": {},
	"deployedLinkReferences": {}
}